{
  "contracts/ComplianceRegistry.sol": {
    "ComplianceRegistry": {
      "abi": [
        {
          "inputs": [
            {
              "internalType": "address",
              "name": "_produceRegistry",
              "type": "address"
            }
          ],
          "stateMutability": "nonpayable",
          "type": "constructor"
        },
        {
          "anonymous": false,
          "inputs": [
            {
              "indexed": false,
              "internalType": "string",
              "name": "certId",
              "type": "string"
            },
            {
              "indexed": false,
              "internalType": "string",
              "name": "batchId",
              "type": "string"
            },
            {
              "indexed": false,
              "internalType": "address",
              "name": "issuedBy",
              "type": "address"
            },
            {
              "indexed": false,
              "internalType": "uint256",
              "name": "issuedAt",
              "type": "uint256"
            }
          ],
          "name": "CertificateIssued",
          "type": "event"
        },
        {
          "anonymous": false,
          "inputs": [
            {
              "indexed": false,
              "internalType": "string",
              "name": "certId",
              "type": "string"
            },
            {
              "indexed": false,
              "internalType": "string",
              "name": "batchId",
              "type": "string"
            },
            {
              "indexed": false,
              "internalType": "string",
              "name": "reason",
              "type": "string"
            }
          ],
          "name": "CertificateRevoked",
          "type": "event"
        },
        {
          "anonymous": false,
          "inputs": [
            {
              "indexed": false,
              "internalType": "string",
              "name": "batchId",
              "type": "string"
            },
            {
              "indexed": false,
              "internalType": "string",
              "name": "inspectorId",
              "type": "string"
            },
            {
              "indexed": false,
              "internalType": "enum ComplianceRegistry.GMOStatus",
              "name": "gmoStatus",
              "type": "uint8"
            },
            {
              "indexed": false,
              "internalType": "string",
              "name": "grade",
              "type": "string"
            }
          ],
          "name": "InspectionRecorded",
          "type": "event"
        },
        {
          "inputs": [
            {
              "internalType": "address",
              "name": "account",
              "type": "address"
            }
          ],
          "name": "addInspector",
          "outputs": [],
          "stateMutability": "nonpayable",
          "type": "function"
        },
        {
          "inputs": [
            {
              "internalType": "address",
              "name": "account",
              "type": "address"
            }
          ],
          "name": "addRegulator",
          "outputs": [],
          "stateMutability": "nonpayable",
          "type": "function"
        },
        {
          "inputs": [
            {
              "internalType": "string",
              "name": "batchId",
              "type": "string"
            }
          ],
          "name": "getCertificate",
          "outputs": [
            {
              "components": [
                {
                  "internalType": "string",
                  "name": "certId",
                  "type": "string"
                },
                {
                  "internalType": "string",
                  "name": "batchId",
                  "type": "string"
                },
                {
                  "internalType": "string",
                  "name": "inspectorId",
                  "type": "string"
                },
                {
                  "internalType": "enum ComplianceRegistry.GMOStatus",
                  "name": "gmoStatus",
                  "type": "uint8"
                },
                {
                  "internalType": "string",
                  "name": "grade",
                  "type": "string"
                },
                {
                  "internalType": "uint256",
                  "name": "issuedAt",
                  "type": "uint256"
                },
                {
                  "internalType": "uint256",
                  "name": "validUntil",
                  "type": "uint256"
                },
                {
                  "internalType": "bool",
                  "name": "isActive",
                  "type": "bool"
                },
                {
                  "internalType": "address",
                  "name": "issuedBy",
                  "type": "address"
                }
              ],
              "internalType": "struct ComplianceRegistry.Certificate",
              "name": "",
              "type": "tuple"
            }
          ],
          "stateMutability": "view",
          "type": "function"
        },
        {
          "inputs": [
            {
              "internalType": "string",
              "name": "batchId",
              "type": "string"
            }
          ],
          "name": "getInspection",
          "outputs": [
            {
              "components": [
                {
                  "internalType": "string",
                  "name": "batchId",
                  "type": "string"
                },
                {
                  "internalType": "string",
                  "name": "inspectorId",
                  "type": "string"
                },
                {
                  "internalType": "uint256",
                  "name": "physicalWeightKg",
                  "type": "uint256"
                },
                {
                  "internalType": "string",
                  "name": "qualityGrade",
                  "type": "string"
                },
                {
                  "internalType": "enum ComplianceRegistry.GMOStatus",
                  "name": "gmoStatus",
                  "type": "uint8"
                },
                {
                  "internalType": "string",
                  "name": "biosafetyGrade",
                  "type": "string"
                },
                {
                  "internalType": "bool",
                  "name": "meetsNAFDACStandards",
                  "type": "bool"
                },
                {
                  "internalType": "string",
                  "name": "notes",
                  "type": "string"
                },
                {
                  "internalType": "uint256",
                  "name": "inspectedAt",
                  "type": "uint256"
                },
                {
                  "internalType": "address",
                  "name": "inspectedBy",
                  "type": "address"
                }
              ],
              "internalType": "struct ComplianceRegistry.Inspection",
              "name": "",
              "type": "tuple"
            }
          ],
          "stateMutability": "view",
          "type": "function"
        },
        {
          "inputs": [
            {
              "internalType": "string",
              "name": "batchId",
              "type": "string"
            },
            {
              "internalType": "string",
              "name": "certId",
              "type": "string"
            },
            {
              "internalType": "uint256",
              "name": "validFrom",
              "type": "uint256"
            },
            {
              "internalType": "uint256",
              "name": "validUntil",
              "type": "uint256"
            }
          ],
          "name": "issueCertificate",
          "outputs": [],
          "stateMutability": "nonpayable",
          "type": "function"
        },
        {
          "inputs": [],
          "name": "owner",
          "outputs": [
            {
              "internalType": "address",
              "name": "",
              "type": "address"
            }
          ],
          "stateMutability": "view",
          "type": "function"
        },
        {
          "inputs": [],
          "name": "produceRegistry",
          "outputs": [
            {
              "internalType": "contract IProduceRegistry",
              "name": "",
              "type": "address"
            }
          ],
          "stateMutability": "view",
          "type": "function"
        },
        {
          "inputs": [
            {
              "internalType": "string",
              "name": "batchId",
              "type": "string"
            },
            {
              "internalType": "string",
              "name": "inspectorId",
              "type": "string"
            },
            {
              "internalType": "uint256",
              "name": "weightKg",
              "type": "uint256"
            },
            {
              "internalType": "string",
              "name": "grade",
              "type": "string"
            },
            {
              "internalType": "enum ComplianceRegistry.GMOStatus",
              "name": "gmoStatus",
              "type": "uint8"
            },
            {
              "internalType": "string",
              "name": "biosafetyGrade",
              "type": "string"
            },
            {
              "internalType": "bool",
              "name": "meetsNAFDAC",
              "type": "bool"
            },
            {
              "internalType": "string",
              "name": "notes",
              "type": "string"
            }
          ],
          "name": "recordInspection",
          "outputs": [],
          "stateMutability": "nonpayable",
          "type": "function"
        },
        {
          "inputs": [
            {
              "internalType": "string",
              "name": "batchId",
              "type": "string"
            },
            {
              "internalType": "string",
              "name": "reason",
              "type": "string"
            }
          ],
          "name": "revokeCertificate",
          "outputs": [],
          "stateMutability": "nonpayable",
          "type": "function"
        }
      ],
      "evm": {
        "bytecode": {
          "linkReferences": {},
          "object": "608034607e57601f611cbe38819003918201601f19168301916001600160401b03831184841017608357808492602094604052833981010312607e57516001600160a01b03811690819003607e57600080546001600160a01b0319908116331790915560018054909116919091179055604051611c24908161009a8239f35b600080fd5b634e487b7160e01b600052604160045260246000fdfe6080604052600436101561001257600080fd5b6000803560e01c8063059599ef14610fcc57806315b06da314610799578063657e2834146104e05780637e4584921461048c5780638b2650b3146104635780638da5cb5b1461043c578063ac63f3c7146103e8578063bc4f5bad1461029f5763ed0f2e751461008057600080fd5b3461029c57602036600319011261029c576004356001600160401b03811161029a576100b260209136906004016118dd565b926101006040516100c2816119e4565b6060815260608582015260606040820152826060820152606060808201528260a08201528260c08201528260e0820152015261011460ff60405185848237848187810160078152030190205416611baa565b8260405193849283378101600681520301902061014060405191610137836119e4565b60405161014f816101488185611ae6565b0382611a00565b8352604051610165816101488160018601611ae6565b602084019081528360405192610189846101828160028501611ae6565b0385611a00565b6040820193845261027060ff6003830154166101a9606085019182611a67565b6040516101bd816101488160048801611ae6565b6080850190815261025e61025260058601549860a08801998a5261023f600760068901549860c08b01998a5201549961010060e08b019a60ff8d1615158c52019a60018060a01b039060081c168b5261022c6040519e8f9e8f916020835251916101206020820152019061190f565b90518d8203601f190160408f015261190f565b90518b8203601f190160608d015261190f565b925160808a0190611950565b51878203601f190160a089015261190f565b935160c08601525160e0850152511515610100840152516001600160a01b03166101208301520390f35b505b80fd5b503461029c57604036600319011261029c576004356001600160401b03811161029a576102d09036906004016118dd565b6024356001600160401b0381116103e4576102ef9036906004016118dd565b919092338552600360205260ff604086205416156103ad577fa500d8e1cc88492e072343dc641e33184d8d352516ddc36dc0eac6d168cb61409361038b936103996103a79361035560ff604051888482376020818a810160078152030190205416611baa565b604051868282376020818881016006815203019020956007870160ff198154169055604051978897606089526060890190611ae6565b918783036020890152611ac5565b918483036040860152611ac5565b0390a180f35b60405162461bcd60e51b815260206004820152600f60248201526e2737ba1030903932b3bab630ba37b960891b6044820152606490fd5b8380fd5b503461029c57602036600319011261029c576004356001600160a01b0381169081900361029a5761042360018060a01b038354163314611b69565b8152600360205260408120805460ff1916600117905580f35b503461029c578060031936011261029c57546040516001600160a01b039091168152602090f35b503461029c578060031936011261029c576001546040516001600160a01b039091168152602090f35b503461029c57602036600319011261029c576004356001600160a01b0381169081900361029a576104c760018060a01b038354163314611b69565b8152600260205260408120805460ff1916600117905580f35b503461029c57602036600319011261029c576004356001600160401b03811161029a576105119036906004016118dd565b91610120604051610521816119b2565b6060815260606020820152826040820152606080820152826080820152606060a08201528260c0820152606060e082015282610100820152015260ff60405183838237602081858101600581520301902054161561075d5781604051928392833781016004815203602001902060405161059a816119b2565b604051806105a88185611ae6565b036105b39082611a00565b815260405191826105c78160018401611ae6565b036105d29084611a00565b60208201928352600281015460408084019182525190816105f68160038601611ae6565b036106019083611a00565b60608401918252600483015460ff169060808501916106209083611a67565b60405191826106328160058801611ae6565b0361063d9084611a00565b60a08601928352600685015460ff169260c087019315158452604051928380600789019061066a91611ae6565b036106759085611a00565b60e088019384526008870154966101008901978852600160a01b60019003906009015416956101208901968752604051998a9960208b525160208b0161014090526101608b016106c49161190f565b90518a8203601f190160408c01526106dc919061190f565b915160608a015251888203601f190160808a01526106fa919061190f565b915160a0880161070991611950565b51868203601f190160c0880152610720919061190f565b9151151560e086015251848203601f1901610100860152610741919061190f565b9151610120840152516001600160a01b03166101408301520390f35b60405162461bcd60e51b8152602060048201526014602482015273125b9cdc1958dd1a5bdb881b9bdd08199bdd5b9960621b6044820152606490fd5b503461029c57608036600319011261029c576004356001600160401b03811161029a576107ca9036906004016118dd565b91906024356001600160401b038111610fc8576107eb9036906004016118dd565b909160443594338552600260205261080960ff604087205416611973565b60ff604051828482376020818481016005815203019020541615610f8357600360405182848237602081848101600481520301902096600160405161084d816119b2565b60405161085e81610148818e611ae6565b815261087b8a6108746040518095819301611ae6565b0383611a00565b6020810191825260028a015460408201526108a08a6101826040518097819301611ae6565b6060810193845261012060ff60048c0154169a6108c1608084019c8d611a67565b6040516108d5816101488160058601611ae6565b60a084015260ff600682015416151560c08401526040516108fd816101488160078601611ae6565b60e08401526008810154610100840152600901546001600160a01b0316910152519751916003831015610f6f57519080610f65575061097042925b604051996109458b6119e4565b61095036898b611a21565b8b5261095d368789611a21565b60208c015260408b015260608a01611a67565b608088015260a087015260643560c0870152600160e0870152336101008701526040518183823760208183810160068152030190209580518051906001600160401b038211610dd25781906109c58a54611a73565b601f8111610f18575b50602090601f8311600114610eb5578992610eaa575b50508160011b916000199060031b1c19161787555b60208101518051906001600160401b038211610dd2578190610a1e60018b0154611a73565b601f8111610e5a575b50602090601f8311600114610df1578992610de6575b50508160011b916000199060031b1c19161760018801555b60408101518051906001600160401b038211610dd2578190610a7a60028b0154611a73565b601f8111610d7f575b50602090601f8311600114610d16578992610d0b575b50508160011b916000199060031b1c19161760028801555b60608101516003811015610cf757610acc9060038901611aad565b600487019660808201519788516001600160401b038111610ce357610af18254611a73565b601f8111610c9e575b506020601f8211600114610c0d57926101009282600793610bf0999897968d9e7ffa7468fb48fb83622c2209222cf44e88523933fddb73d3b07ecf89400639b3ba9e92610c02575b50508160011b916000199060031b1c19161790555b60a0840151600582015560c084015160068201550191610b8960e08201511515849060ff801983541691151516179055565b01518154610100600160a81b03191660089190911b610100600160a81b0316179055604051818382376020818381016007815203019020600160ff19825416179055610be2604051958695608087526080870191611ac5565b918483036020860152611ac5565b3360408301524260608301520390a180f35b015190503880610b42565b828a52808a209a601f1983168b5b818110610c865750837ffa7468fb48fb83622c2209222cf44e88523933fddb73d3b07ecf89400639b3ba9c9d610bf09a99989794610100979460079760019510610c6d575b505050811b019055610b57565b015160001960f88460031b161c19169055388080610c60565b838301518e556001909d019c60209384019301610c1b565b828a5260208a20601f830160051c81019160208410610cd9575b601f0160051c01905b818110610cce5750610afa565b8a8155600101610cc1565b9091508190610cb8565b634e487b7160e01b89526041600452602489fd5b634e487b7160e01b87526021600452602487fd5b015190503880610a99565b60028b018a52818a209250601f1984168a5b818110610d675750908460019594939210610d4e575b505050811b016002880155610ab1565b015160001960f88460031b161c19169055388080610d3e565b92936020600181928786015181550195019301610d28565b90915060028a01895260208920601f840160051c81019160208510610dc8575b90601f859493920160051c01905b818110610dba5750610a83565b8a8155849350600101610dad565b9091508190610d9f565b634e487b7160e01b88526041600452602488fd5b015190503880610a3d565b60018b018a52818a209250601f1984168a5b818110610e425750908460019594939210610e29575b505050811b016001880155610a55565b015160001960f88460031b161c19169055388080610e19565b92936020600181928786015181550195019301610e03565b90915060018a01895260208920601f840160051c810160208510610ea3575b90849392915b601f830160051c82018110610e95575050610a27565b8b8155859450600101610e7f565b5080610e79565b0151905038806109e4565b8a8a52818a209250601f1984168a5b818110610f005750908460019594939210610ee7575b505050811b0187556109f9565b015160001960f88460031b161c19169055388080610eda565b92936020600181928786015181550195019301610ec4565b90915089895260208920601f840160051c810160208510610f5e575b90849392915b601f830160051c82018110610f505750506109ce565b8b8155859450600101610f3a565b5080610f34565b6109709092610938565b634e487b7160e01b88526021600452602488fd5b60405162461bcd60e51b815260206004820152601c60248201527f426174636820686173206e6f74206265656e20696e73706563746564000000006044820152606490fd5b8280fd5b503461029c5761010036600319011261029c576004356001600160401b03811161029a57610ffe9036906004016118dd565b91906024356001600160401b038111610fc85761101f9036906004016118dd565b93906064356001600160401b0381116118d9576110409036906004016118dd565b9590600360843510156118d55760a4356001600160401b0381116118d15761106c9036906004016118dd565b979060c43580151581036118cd5760e4356001600160401b0381116118c9576110999036906004016118dd565b919092338b52600260205260408b205460ff166110b590611973565b6040519b6110c28d6119b2565b6110cd368b8d611a21565b8d528c6110db368a8c611a21565b60209091015260443560408e01528c6110f536888a611a21565b60609091015261110a60843560808f01611a67565b369061111592611a21565b60a08c0152151560c08b0152369061112c92611a21565b60e089015242610100890152336101208901526040518587823780868101600481520360200190209780518051906001600160401b0382116115875781906111748c54611a73565b601f811161187b575b50602090601f8311600114611813578b92611808575b50508160011b916000199060031b1c19161789555b60208101518051906001600160401b0382116115875781906111cd60018d0154611a73565b601f81116117b7575b50602090601f8311600114611749578b9261173e575b50508160011b916000199060031b1c19161760018a01555b604081015160028a015560608101518051906001600160401b03821161158757819061123360038d0154611a73565b601f81116116ed575b50602090601f8311600114611684578b92611679575b50508160011b916000199060031b1c19161760038a01555b60808101516003811015611665576112859060048b01611aad565b60a08101518051906001600160401b0382116115875781906112aa60058d0154611a73565b601f8111611614575b50602090601f83116001146115a6578b9261159b575b50508160011b916000199060031b1c19161760058a01555b61130060c0820151151560068b019060ff801983541691151516179055565b60e08101519889516001600160401b038111611587576113236007830154611a73565b9a601f8c1161153f575b8a809c50999a50602090601f831160011461149b5792827fb4440038c142868b0da63940eecd1357b34466d841959a844be50d7ae83a2a08999897959360099361141b98968e92611490575b50508160011b916000199060031b1c19161760078201555b6101008301516008820155019061012060018060a01b03910151166bffffffffffffffffffffffff60a01b825416179055604051878a82376020818981016005815203019020600160ff198254161790556113fe6040519586956080875261038b8c8b60808a0191611ac5565b9161140e60408601608435611950565b8483036060860152611ac5565b0390a16001546001600160a01b031692833b15610fc85761145d9383928360405180978195829463b50a3c8760e01b8452604060048501526044840191611ac5565b6001602483015203925af18015611483576114755780f35b61147e91611a00565b388180f35b50604051903d90823e3d90fd5b015190503880611379565b99989796959493929190600783018a52808a209a8a5b601f19841681106115245750827fb4440038c142868b0da63940eecd1357b34466d841959a844be50d7ae83a2a089a9b9c61141b9897969593600193600996601f1981161061150b575b505050811b016007820155611391565b015160001960f88460031b161c191690553880806114fb565b828201518d556001909c019b8e9b50602092830192016114b1565b600783018b5260208b20601f830160051c81019c6020841061157d575b601f0160051c019b5b8c8110611572575061132d565b8b8155600101611565565b909c508c9061155c565b634e487b7160e01b8a52604160045260248afd5b0151905038806112c9565b925060058c018b52808b20908b935b601f19841685106115f9576001945083601f198116106115e0575b505050811b0160058a01556112e1565b015160001960f88460031b161c191690553880806115d0565b818101518355602094850194600190930192909101906115b5565b90915060058c018b5260208b20601f840160051c81016020851061165e575b90849392915b8d601f840160051c83018210611651575050506112b3565b8155859450600101611639565b5080611633565b634e487b7160e01b89526021600452602489fd5b015190503880611252565b60038d018c52818c209250601f1984168c5b8181106116d557509084600195949392106116bc575b505050811b0160038a015561126a565b015160001960f88460031b161c191690553880806116ac565b92936020600181928786015181550195019301611696565b90915060038c018b5260208b20601f840160051c810160208510611737575b90849392915b8d601f840160051c8301821061172a5750505061123c565b8155859450600101611712565b508061170c565b0151905038806111ec565b925060018c018b52808b20908b935b601f198416851061179c576001945083601f19811610611783575b505050811b0160018a0155611204565b015160001960f88460031b161c19169055388080611773565b81810151835560209485019460019093019290910190611758565b90915060018c018b5260208b20601f840160051c810160208510611801575b90849392915b8d601f840160051c830182106117f4575050506111d6565b81558594506001016117dc565b50806117d6565b015190503880611193565b92508b8b52808b20908b935b601f1984168510611860576001945083601f19811610611847575b505050811b0189556111a8565b015160001960f88460031b161c1916905538808061183a565b8181015183556020948501946001909301929091019061181f565b9091508b8b5260208b20601f840160051c8101602085106118c2575b90849392915b8d601f840160051c830182106118b55750505061117d565b815585945060010161189d565b5080611897565b8980fd5b8880fd5b8680fd5b8580fd5b8480fd5b9181601f8401121561190a578235916001600160401b03831161190a576020838186019501011161190a57565b600080fd5b919082519283825260005b84811061193b575050826000602080949584010152601f8019910116010190565b8060208092840101518282860101520161191a565b90600382101561195d5752565b634e487b7160e01b600052602160045260246000fd5b1561197a57565b60405162461bcd60e51b815260206004820152601060248201526f2737ba1030b71034b739b832b1ba37b960811b6044820152606490fd5b61014081019081106001600160401b038211176119ce57604052565b634e487b7160e01b600052604160045260246000fd5b61012081019081106001600160401b038211176119ce57604052565b90601f801991011681019081106001600160401b038211176119ce57604052565b9291926001600160401b0382116119ce5760405191611a4a601f8201601f191660200184611a00565b82948184528183011161190a578281602093846000960137010152565b600382101561195d5752565b90600182811c92168015611aa3575b6020831014611a8d57565b634e487b7160e01b600052602260045260246000fd5b91607f1691611a82565b90600381101561195d5760ff80198354169116179055565b908060209392818452848401376000828201840152601f01601f1916010190565b60009291815491611af683611a73565b8083529260018116908115611b4c5750600114611b1257505050565b60009081526020812093945091925b838310611b32575060209250010190565b600181602092949394548385870101520191019190611b21565b915050602093945060ff929192191683830152151560051b010190565b15611b7057565b60405162461bcd60e51b81526020600482015260126024820152712737ba1031b7b73a3930b1ba1037bbb732b960711b6044820152606490fd5b15611bb157565b60405162461bcd60e51b815260206004820152601560248201527410d95c9d1a599a58d85d19481b9bdd08199bdd5b99605a1b6044820152606490fdfea264697066735822122027323530ff37a045d79f9fdc7463d28d95daa1697fa0cc6a35d23a193ec86fd964736f6c634300081b0033",
          "opcodes": "PUSH1 0x80 CALLVALUE PUSH1 0x7E JUMPI PUSH1 0x1F PUSH2 0x1CBE CODESIZE DUP2 SWAP1 SUB SWAP2 DUP3 ADD PUSH1 0x1F NOT AND DUP4 ADD SWAP2 PUSH1 0x1 PUSH1 0x1 PUSH1 0x40 SHL SUB DUP4 GT DUP5 DUP5 LT OR PUSH1 0x83 JUMPI DUP1 DUP5 SWAP3 PUSH1 0x20 SWAP5 PUSH1 0x40 MSTORE DUP4 CODECOPY DUP2 ADD SUB SLT PUSH1 0x7E JUMPI MLOAD PUSH1 0x1 PUSH1 0x1 PUSH1 0xA0 SHL SUB DUP2 AND SWAP1 DUP2 SWAP1 SUB PUSH1 0x7E JUMPI PUSH1 0x0 DUP1 SLOAD PUSH1 0x1 PUSH1 0x1 PUSH1 0xA0 SHL SUB NOT SWAP1 DUP2 AND CALLER OR SWAP1 SWAP2 SSTORE PUSH1 0x1 DUP1 SLOAD SWAP1 SWAP2 AND SWAP2 SWAP1 SWAP2 OR SWAP1 SSTORE PUSH1 0x40 MLOAD PUSH2 0x1C24 SWAP1 DUP2 PUSH2 0x9A DUP3 CODECOPY RETURN JUMPDEST PUSH1 0x0 DUP1 REVERT JUMPDEST PUSH4 0x4E487B71 PUSH1 0xE0 SHL PUSH1 0x0 MSTORE PUSH1 0x41 PUSH1 0x4 MSTORE PUSH1 0x24 PUSH1 0x0 REVERT INVALID PUSH1 0x80 PUSH1 0x40 MSTORE PUSH1 0x4 CALLDATASIZE LT ISZERO PUSH2 0x12 JUMPI PUSH1 0x0 DUP1 REVERT JUMPDEST PUSH1 0x0 DUP1 CALLDATALOAD PUSH1 0xE0 SHR DUP1 PUSH4 0x59599EF EQ PUSH2 0xFCC JUMPI DUP1 PUSH4 0x15B06DA3 EQ PUSH2 0x799 JUMPI DUP1 PUSH4 0x657E2834 EQ PUSH2 0x4E0 JUMPI DUP1 PUSH4 0x7E458492 EQ PUSH2 0x48C JUMPI DUP1 PUSH4 0x8B2650B3 EQ PUSH2 0x463 JUMPI DUP1 PUSH4 0x8DA5CB5B EQ PUSH2 0x43C JUMPI DUP1 PUSH4 0xAC63F3C7 EQ PUSH2 0x3E8 JUMPI DUP1 PUSH4 0xBC4F5BAD EQ PUSH2 0x29F JUMPI PUSH4 0xED0F2E75 EQ PUSH2 0x80 JUMPI PUSH1 0x0 DUP1 REVERT JUMPDEST CALLVALUE PUSH2 0x29C JUMPI PUSH1 0x20 CALLDATASIZE PUSH1 0x3 NOT ADD SLT PUSH2 0x29C JUMPI PUSH1 0x4 CALLDATALOAD PUSH1 0x1 PUSH1 0x1 PUSH1 0x40 SHL SUB DUP2 GT PUSH2 0x29A JUMPI PUSH2 0xB2 PUSH1 0x20 SWAP2 CALLDATASIZE SWAP1 PUSH1 0x4 ADD PUSH2 0x18DD JUMP JUMPDEST SWAP3 PUSH2 0x100 PUSH1 0x40 MLOAD PUSH2 0xC2 DUP2 PUSH2 0x19E4 JUMP JUMPDEST PUSH1 0x60 DUP2 MSTORE PUSH1 0x60 DUP6 DUP3 ADD MSTORE PUSH1 0x60 PUSH1 0x40 DUP3 ADD MSTORE DUP3 PUSH1 0x60 DUP3 ADD MSTORE PUSH1 0x60 PUSH1 0x80 DUP3 ADD MSTORE DUP3 PUSH1 0xA0 DUP3 ADD MSTORE DUP3 PUSH1 0xC0 DUP3 ADD MSTORE DUP3 PUSH1 0xE0 DUP3 ADD MSTORE ADD MSTORE PUSH2 0x114 PUSH1 0xFF PUSH1 0x40 MLOAD DUP6 DUP5 DUP3 CALLDATACOPY DUP5 DUP2 DUP8 DUP2 ADD PUSH1 0x7 DUP2 MSTORE SUB ADD SWAP1 KECCAK256 SLOAD AND PUSH2 0x1BAA JUMP JUMPDEST DUP3 PUSH1 0x40 MLOAD SWAP4 DUP5 SWAP3 DUP4 CALLDATACOPY DUP2 ADD PUSH1 0x6 DUP2 MSTORE SUB ADD SWAP1 KECCAK256 PUSH2 0x140 PUSH1 0x40 MLOAD SWAP2 PUSH2 0x137 DUP4 PUSH2 0x19E4 JUMP JUMPDEST PUSH1 0x40 MLOAD PUSH2 0x14F DUP2 PUSH2 0x148 DUP2 DUP6 PUSH2 0x1AE6 JUMP JUMPDEST SUB DUP3 PUSH2 0x1A00 JUMP JUMPDEST DUP4 MSTORE PUSH1 0x40 MLOAD PUSH2 0x165 DUP2 PUSH2 0x148 DUP2 PUSH1 0x1 DUP7 ADD PUSH2 0x1AE6 JUMP JUMPDEST PUSH1 0x20 DUP5 ADD SWAP1 DUP2 MSTORE DUP4 PUSH1 0x40 MLOAD SWAP3 PUSH2 0x189 DUP5 PUSH2 0x182 DUP2 PUSH1 0x2 DUP6 ADD PUSH2 0x1AE6 JUMP JUMPDEST SUB DUP6 PUSH2 0x1A00 JUMP JUMPDEST PUSH1 0x40 DUP3 ADD SWAP4 DUP5 MSTORE PUSH2 0x270 PUSH1 0xFF PUSH1 0x3 DUP4 ADD SLOAD AND PUSH2 0x1A9 PUSH1 0x60 DUP6 ADD SWAP2 DUP3 PUSH2 0x1A67 JUMP JUMPDEST PUSH1 0x40 MLOAD PUSH2 0x1BD DUP2 PUSH2 0x148 DUP2 PUSH1 0x4 DUP9 ADD PUSH2 0x1AE6 JUMP JUMPDEST PUSH1 0x80 DUP6 ADD SWAP1 DUP2 MSTORE PUSH2 0x25E PUSH2 0x252 PUSH1 0x5 DUP7 ADD SLOAD SWAP9 PUSH1 0xA0 DUP9 ADD SWAP10 DUP11 MSTORE PUSH2 0x23F PUSH1 0x7 PUSH1 0x6 DUP10 ADD SLOAD SWAP9 PUSH1 0xC0 DUP12 ADD SWAP10 DUP11 MSTORE ADD SLOAD SWAP10 PUSH2 0x100 PUSH1 0xE0 DUP12 ADD SWAP11 PUSH1 0xFF DUP14 AND ISZERO ISZERO DUP13 MSTORE ADD SWAP11 PUSH1 0x1 DUP1 PUSH1 0xA0 SHL SUB SWAP1 PUSH1 0x8 SHR AND DUP12 MSTORE PUSH2 0x22C PUSH1 0x40 MLOAD SWAP15 DUP16 SWAP15 DUP16 SWAP2 PUSH1 0x20 DUP4 MSTORE MLOAD SWAP2 PUSH2 0x120 PUSH1 0x20 DUP3 ADD MSTORE ADD SWAP1 PUSH2 0x190F JUMP JUMPDEST SWAP1 MLOAD DUP14 DUP3 SUB PUSH1 0x1F NOT ADD PUSH1 0x40 DUP16 ADD MSTORE PUSH2 0x190F JUMP JUMPDEST SWAP1 MLOAD DUP12 DUP3 SUB PUSH1 0x1F NOT ADD PUSH1 0x60 DUP14 ADD MSTORE PUSH2 0x190F JUMP JUMPDEST SWAP3 MLOAD PUSH1 0x80 DUP11 ADD SWAP1 PUSH2 0x1950 JUMP JUMPDEST MLOAD DUP8 DUP3 SUB PUSH1 0x1F NOT ADD PUSH1 0xA0 DUP10 ADD MSTORE PUSH2 0x190F JUMP JUMPDEST SWAP4 MLOAD PUSH1 0xC0 DUP7 ADD MSTORE MLOAD PUSH1 0xE0 DUP6 ADD MSTORE MLOAD ISZERO ISZERO PUSH2 0x100 DUP5 ADD MSTORE MLOAD PUSH1 0x1 PUSH1 0x1 PUSH1 0xA0 SHL SUB AND PUSH2 0x120 DUP4 ADD MSTORE SUB SWAP1 RETURN JUMPDEST POP JUMPDEST DUP1 REVERT JUMPDEST POP CALLVALUE PUSH2 0x29C JUMPI PUSH1 0x40 CALLDATASIZE PUSH1 0x3 NOT ADD SLT PUSH2 0x29C JUMPI PUSH1 0x4 CALLDATALOAD PUSH1 0x1 PUSH1 0x1 PUSH1 0x40 SHL SUB DUP2 GT PUSH2 0x29A JUMPI PUSH2 0x2D0 SWAP1 CALLDATASIZE SWAP1 PUSH1 0x4 ADD PUSH2 0x18DD JUMP JUMPDEST PUSH1 0x24 CALLDATALOAD PUSH1 0x1 PUSH1 0x1 PUSH1 0x40 SHL SUB DUP2 GT PUSH2 0x3E4 JUMPI PUSH2 0x2EF SWAP1 CALLDATASIZE SWAP1 PUSH1 0x4 ADD PUSH2 0x18DD JUMP JUMPDEST SWAP2 SWAP1 SWAP3 CALLER DUP6 MSTORE PUSH1 0x3 PUSH1 0x20 MSTORE PUSH1 0xFF PUSH1 0x40 DUP7 KECCAK256 SLOAD AND ISZERO PUSH2 0x3AD JUMPI PUSH32 0xA500D8E1CC88492E072343DC641E33184D8D352516DDC36DC0EAC6D168CB6140 SWAP4 PUSH2 0x38B SWAP4 PUSH2 0x399 PUSH2 0x3A7 SWAP4 PUSH2 0x355 PUSH1 0xFF PUSH1 0x40 MLOAD DUP9 DUP5 DUP3 CALLDATACOPY PUSH1 0x20 DUP2 DUP11 DUP2 ADD PUSH1 0x7 DUP2 MSTORE SUB ADD SWAP1 KECCAK256 SLOAD AND PUSH2 0x1BAA JUMP JUMPDEST PUSH1 0x40 MLOAD DUP7 DUP3 DUP3 CALLDATACOPY PUSH1 0x20 DUP2 DUP9 DUP2 ADD PUSH1 0x6 DUP2 MSTORE SUB ADD SWAP1 KECCAK256 SWAP6 PUSH1 0x7 DUP8 ADD PUSH1 0xFF NOT DUP2 SLOAD AND SWAP1 SSTORE PUSH1 0x40 MLOAD SWAP8 DUP9 SWAP8 PUSH1 0x60 DUP10 MSTORE PUSH1 0x60 DUP10 ADD SWAP1 PUSH2 0x1AE6 JUMP JUMPDEST SWAP2 DUP8 DUP4 SUB PUSH1 0x20 DUP10 ADD MSTORE PUSH2 0x1AC5 JUMP JUMPDEST SWAP2 DUP5 DUP4 SUB PUSH1 0x40 DUP7 ADD MSTORE PUSH2 0x1AC5 JUMP JUMPDEST SUB SWAP1 LOG1 DUP1 RETURN JUMPDEST PUSH1 0x40 MLOAD PUSH3 0x461BCD PUSH1 0xE5 SHL DUP2 MSTORE PUSH1 0x20 PUSH1 0x4 DUP3 ADD MSTORE PUSH1 0xF PUSH1 0x24 DUP3 ADD MSTORE PUSH15 0x2737BA1030903932B3BAB630BA37B9 PUSH1 0x89 SHL PUSH1 0x44 DUP3 ADD MSTORE PUSH1 0x64 SWAP1 REVERT JUMPDEST DUP4 DUP1 REVERT JUMPDEST POP CALLVALUE PUSH2 0x29C JUMPI PUSH1 0x20 CALLDATASIZE PUSH1 0x3 NOT ADD SLT PUSH2 0x29C JUMPI PUSH1 0x4 CALLDATALOAD PUSH1 0x1 PUSH1 0x1 PUSH1 0xA0 SHL SUB DUP2 AND SWAP1 DUP2 SWAP1 SUB PUSH2 0x29A JUMPI PUSH2 0x423 PUSH1 0x1 DUP1 PUSH1 0xA0 SHL SUB DUP4 SLOAD AND CALLER EQ PUSH2 0x1B69 JUMP JUMPDEST DUP2 MSTORE PUSH1 0x3 PUSH1 0x20 MSTORE PUSH1 0x40 DUP2 KECCAK256 DUP1 SLOAD PUSH1 0xFF NOT AND PUSH1 0x1 OR SWAP1 SSTORE DUP1 RETURN JUMPDEST POP CALLVALUE PUSH2 0x29C JUMPI DUP1 PUSH1 0x3 NOT CALLDATASIZE ADD SLT PUSH2 0x29C JUMPI SLOAD PUSH1 0x40 MLOAD PUSH1 0x1 PUSH1 0x1 PUSH1 0xA0 SHL SUB SWAP1 SWAP2 AND DUP2 MSTORE PUSH1 0x20 SWAP1 RETURN JUMPDEST POP CALLVALUE PUSH2 0x29C JUMPI DUP1 PUSH1 0x3 NOT CALLDATASIZE ADD SLT PUSH2 0x29C JUMPI PUSH1 0x1 SLOAD PUSH1 0x40 MLOAD PUSH1 0x1 PUSH1 0x1 PUSH1 0xA0 SHL SUB SWAP1 SWAP2 AND DUP2 MSTORE PUSH1 0x20 SWAP1 RETURN JUMPDEST POP CALLVALUE PUSH2 0x29C JUMPI PUSH1 0x20 CALLDATASIZE PUSH1 0x3 NOT ADD SLT PUSH2 0x29C JUMPI PUSH1 0x4 CALLDATALOAD PUSH1 0x1 PUSH1 0x1 PUSH1 0xA0 SHL SUB DUP2 AND SWAP1 DUP2 SWAP1 SUB PUSH2 0x29A JUMPI PUSH2 0x4C7 PUSH1 0x1 DUP1 PUSH1 0xA0 SHL SUB DUP4 SLOAD AND CALLER EQ PUSH2 0x1B69 JUMP JUMPDEST DUP2 MSTORE PUSH1 0x2 PUSH1 0x20 MSTORE PUSH1 0x40 DUP2 KECCAK256 DUP1 SLOAD PUSH1 0xFF NOT AND PUSH1 0x1 OR SWAP1 SSTORE DUP1 RETURN JUMPDEST POP CALLVALUE PUSH2 0x29C JUMPI PUSH1 0x20 CALLDATASIZE PUSH1 0x3 NOT ADD SLT PUSH2 0x29C JUMPI PUSH1 0x4 CALLDATALOAD PUSH1 0x1 PUSH1 0x1 PUSH1 0x40 SHL SUB DUP2 GT PUSH2 0x29A JUMPI PUSH2 0x511 SWAP1 CALLDATASIZE SWAP1 PUSH1 0x4 ADD PUSH2 0x18DD JUMP JUMPDEST SWAP2 PUSH2 0x120 PUSH1 0x40 MLOAD PUSH2 0x521 DUP2 PUSH2 0x19B2 JUMP JUMPDEST PUSH1 0x60 DUP2 MSTORE PUSH1 0x60 PUSH1 0x20 DUP3 ADD MSTORE DUP3 PUSH1 0x40 DUP3 ADD MSTORE PUSH1 0x60 DUP1 DUP3 ADD MSTORE DUP3 PUSH1 0x80 DUP3 ADD MSTORE PUSH1 0x60 PUSH1 0xA0 DUP3 ADD MSTORE DUP3 PUSH1 0xC0 DUP3 ADD MSTORE PUSH1 0x60 PUSH1 0xE0 DUP3 ADD MSTORE DUP3 PUSH2 0x100 DUP3 ADD MSTORE ADD MSTORE PUSH1 0xFF PUSH1 0x40 MLOAD DUP4 DUP4 DUP3 CALLDATACOPY PUSH1 0x20 DUP2 DUP6 DUP2 ADD PUSH1 0x5 DUP2 MSTORE SUB ADD SWAP1 KECCAK256 SLOAD AND ISZERO PUSH2 0x75D JUMPI DUP2 PUSH1 0x40 MLOAD SWAP3 DUP4 SWAP3 DUP4 CALLDATACOPY DUP2 ADD PUSH1 0x4 DUP2 MSTORE SUB PUSH1 0x20 ADD SWAP1 KECCAK256 PUSH1 0x40 MLOAD PUSH2 0x59A DUP2 PUSH2 0x19B2 JUMP JUMPDEST PUSH1 0x40 MLOAD DUP1 PUSH2 0x5A8 DUP2 DUP6 PUSH2 0x1AE6 JUMP JUMPDEST SUB PUSH2 0x5B3 SWAP1 DUP3 PUSH2 0x1A00 JUMP JUMPDEST DUP2 MSTORE PUSH1 0x40 MLOAD SWAP2 DUP3 PUSH2 0x5C7 DUP2 PUSH1 0x1 DUP5 ADD PUSH2 0x1AE6 JUMP JUMPDEST SUB PUSH2 0x5D2 SWAP1 DUP5 PUSH2 0x1A00 JUMP JUMPDEST PUSH1 0x20 DUP3 ADD SWAP3 DUP4 MSTORE PUSH1 0x2 DUP2 ADD SLOAD PUSH1 0x40 DUP1 DUP5 ADD SWAP2 DUP3 MSTORE MLOAD SWAP1 DUP2 PUSH2 0x5F6 DUP2 PUSH1 0x3 DUP7 ADD PUSH2 0x1AE6 JUMP JUMPDEST SUB PUSH2 0x601 SWAP1 DUP4 PUSH2 0x1A00 JUMP JUMPDEST PUSH1 0x60 DUP5 ADD SWAP2 DUP3 MSTORE PUSH1 0x4 DUP4 ADD SLOAD PUSH1 0xFF AND SWAP1 PUSH1 0x80 DUP6 ADD SWAP2 PUSH2 0x620 SWAP1 DUP4 PUSH2 0x1A67 JUMP JUMPDEST PUSH1 0x40 MLOAD SWAP2 DUP3 PUSH2 0x632 DUP2 PUSH1 0x5 DUP9 ADD PUSH2 0x1AE6 JUMP JUMPDEST SUB PUSH2 0x63D SWAP1 DUP5 PUSH2 0x1A00 JUMP JUMPDEST PUSH1 0xA0 DUP7 ADD SWAP3 DUP4 MSTORE PUSH1 0x6 DUP6 ADD SLOAD PUSH1 0xFF AND SWAP3 PUSH1 0xC0 DUP8 ADD SWAP4 ISZERO ISZERO DUP5 MSTORE PUSH1 0x40 MLOAD SWAP3 DUP4 DUP1 PUSH1 0x7 DUP10 ADD SWAP1 PUSH2 0x66A SWAP2 PUSH2 0x1AE6 JUMP JUMPDEST SUB PUSH2 0x675 SWAP1 DUP6 PUSH2 0x1A00 JUMP JUMPDEST PUSH1 0xE0 DUP9 ADD SWAP4 DUP5 MSTORE PUSH1 0x8 DUP8 ADD SLOAD SWAP7 PUSH2 0x100 DUP10 ADD SWAP8 DUP9 MSTORE PUSH1 0x1 PUSH1 0xA0 SHL PUSH1 0x1 SWAP1 SUB SWAP1 PUSH1 0x9 ADD SLOAD AND SWAP6 PUSH2 0x120 DUP10 ADD SWAP7 DUP8 MSTORE PUSH1 0x40 MLOAD SWAP10 DUP11 SWAP10 PUSH1 0x20 DUP12 MSTORE MLOAD PUSH1 0x20 DUP12 ADD PUSH2 0x140 SWAP1 MSTORE PUSH2 0x160 DUP12 ADD PUSH2 0x6C4 SWAP2 PUSH2 0x190F JUMP JUMPDEST SWAP1 MLOAD DUP11 DUP3 SUB PUSH1 0x1F NOT ADD PUSH1 0x40 DUP13 ADD MSTORE PUSH2 0x6DC SWAP2 SWAP1 PUSH2 0x190F JUMP JUMPDEST SWAP2 MLOAD PUSH1 0x60 DUP11 ADD MSTORE MLOAD DUP9 DUP3 SUB PUSH1 0x1F NOT ADD PUSH1 0x80 DUP11 ADD MSTORE PUSH2 0x6FA SWAP2 SWAP1 PUSH2 0x190F JUMP JUMPDEST SWAP2 MLOAD PUSH1 0xA0 DUP9 ADD PUSH2 0x709 SWAP2 PUSH2 0x1950 JUMP JUMPDEST MLOAD DUP7 DUP3 SUB PUSH1 0x1F NOT ADD PUSH1 0xC0 DUP9 ADD MSTORE PUSH2 0x720 SWAP2 SWAP1 PUSH2 0x190F JUMP JUMPDEST SWAP2 MLOAD ISZERO ISZERO PUSH1 0xE0 DUP7 ADD MSTORE MLOAD DUP5 DUP3 SUB PUSH1 0x1F NOT ADD PUSH2 0x100 DUP7 ADD MSTORE PUSH2 0x741 SWAP2 SWAP1 PUSH2 0x190F JUMP JUMPDEST SWAP2 MLOAD PUSH2 0x120 DUP5 ADD MSTORE MLOAD PUSH1 0x1 PUSH1 0x1 PUSH1 0xA0 SHL SUB AND PUSH2 0x140 DUP4 ADD MSTORE SUB SWAP1 RETURN JUMPDEST PUSH1 0x40 MLOAD PUSH3 0x461BCD PUSH1 0xE5 SHL DUP2 MSTORE PUSH1 0x20 PUSH1 0x4 DUP3 ADD MSTORE PUSH1 0x14 PUSH1 0x24 DUP3 ADD MSTORE PUSH20 0x125B9CDC1958DD1A5BDB881B9BDD08199BDD5B99 PUSH1 0x62 SHL PUSH1 0x44 DUP3 ADD MSTORE PUSH1 0x64 SWAP1 REVERT JUMPDEST POP CALLVALUE PUSH2 0x29C JUMPI PUSH1 0x80 CALLDATASIZE PUSH1 0x3 NOT ADD SLT PUSH2 0x29C JUMPI PUSH1 0x4 CALLDATALOAD PUSH1 0x1 PUSH1 0x1 PUSH1 0x40 SHL SUB DUP2 GT PUSH2 0x29A JUMPI PUSH2 0x7CA SWAP1 CALLDATASIZE SWAP1 PUSH1 0x4 ADD PUSH2 0x18DD JUMP JUMPDEST SWAP2 SWAP1 PUSH1 0x24 CALLDATALOAD PUSH1 0x1 PUSH1 0x1 PUSH1 0x40 SHL SUB DUP2 GT PUSH2 0xFC8 JUMPI PUSH2 0x7EB SWAP1 CALLDATASIZE SWAP1 PUSH1 0x4 ADD PUSH2 0x18DD JUMP JUMPDEST SWAP1 SWAP2 PUSH1 0x44 CALLDATALOAD SWAP5 CALLER DUP6 MSTORE PUSH1 0x2 PUSH1 0x20 MSTORE PUSH2 0x809 PUSH1 0xFF PUSH1 0x40 DUP8 KECCAK256 SLOAD AND PUSH2 0x1973 JUMP JUMPDEST PUSH1 0xFF PUSH1 0x40 MLOAD DUP3 DUP5 DUP3 CALLDATACOPY PUSH1 0x20 DUP2 DUP5 DUP2 ADD PUSH1 0x5 DUP2 MSTORE SUB ADD SWAP1 KECCAK256 SLOAD AND ISZERO PUSH2 0xF83 JUMPI PUSH1 0x3 PUSH1 0x40 MLOAD DUP3 DUP5 DUP3 CALLDATACOPY PUSH1 0x20 DUP2 DUP5 DUP2 ADD PUSH1 0x4 DUP2 MSTORE SUB ADD SWAP1 KECCAK256 SWAP7 PUSH1 0x1 PUSH1 0x40 MLOAD PUSH2 0x84D DUP2 PUSH2 0x19B2 JUMP JUMPDEST PUSH1 0x40 MLOAD PUSH2 0x85E DUP2 PUSH2 0x148 DUP2 DUP15 PUSH2 0x1AE6 JUMP JUMPDEST DUP2 MSTORE PUSH2 0x87B DUP11 PUSH2 0x874 PUSH1 0x40 MLOAD DUP1 SWAP6 DUP2 SWAP4 ADD PUSH2 0x1AE6 JUMP JUMPDEST SUB DUP4 PUSH2 0x1A00 JUMP JUMPDEST PUSH1 0x20 DUP2 ADD SWAP2 DUP3 MSTORE PUSH1 0x2 DUP11 ADD SLOAD PUSH1 0x40 DUP3 ADD MSTORE PUSH2 0x8A0 DUP11 PUSH2 0x182 PUSH1 0x40 MLOAD DUP1 SWAP8 DUP2 SWAP4 ADD PUSH2 0x1AE6 JUMP JUMPDEST PUSH1 0x60 DUP2 ADD SWAP4 DUP5 MSTORE PUSH2 0x120 PUSH1 0xFF PUSH1 0x4 DUP13 ADD SLOAD AND SWAP11 PUSH2 0x8C1 PUSH1 0x80 DUP5 ADD SWAP13 DUP14 PUSH2 0x1A67 JUMP JUMPDEST PUSH1 0x40 MLOAD PUSH2 0x8D5 DUP2 PUSH2 0x148 DUP2 PUSH1 0x5 DUP7 ADD PUSH2 0x1AE6 JUMP JUMPDEST PUSH1 0xA0 DUP5 ADD MSTORE PUSH1 0xFF PUSH1 0x6 DUP3 ADD SLOAD AND ISZERO ISZERO PUSH1 0xC0 DUP5 ADD MSTORE PUSH1 0x40 MLOAD PUSH2 0x8FD DUP2 PUSH2 0x148 DUP2 PUSH1 0x7 DUP7 ADD PUSH2 0x1AE6 JUMP JUMPDEST PUSH1 0xE0 DUP5 ADD MSTORE PUSH1 0x8 DUP2 ADD SLOAD PUSH2 0x100 DUP5 ADD MSTORE PUSH1 0x9 ADD SLOAD PUSH1 0x1 PUSH1 0x1 PUSH1 0xA0 SHL SUB AND SWAP2 ADD MSTORE MLOAD SWAP8 MLOAD SWAP2 PUSH1 0x3 DUP4 LT ISZERO PUSH2 0xF6F JUMPI MLOAD SWAP1 DUP1 PUSH2 0xF65 JUMPI POP PUSH2 0x970 TIMESTAMP SWAP3 JUMPDEST PUSH1 0x40 MLOAD SWAP10 PUSH2 0x945 DUP12 PUSH2 0x19E4 JUMP JUMPDEST PUSH2 0x950 CALLDATASIZE DUP10 DUP12 PUSH2 0x1A21 JUMP JUMPDEST DUP12 MSTORE PUSH2 0x95D CALLDATASIZE DUP8 DUP10 PUSH2 0x1A21 JUMP JUMPDEST PUSH1 0x20 DUP13 ADD MSTORE PUSH1 0x40 DUP12 ADD MSTORE PUSH1 0x60 DUP11 ADD PUSH2 0x1A67 JUMP JUMPDEST PUSH1 0x80 DUP9 ADD MSTORE PUSH1 0xA0 DUP8 ADD MSTORE PUSH1 0x64 CALLDATALOAD PUSH1 0xC0 DUP8 ADD MSTORE PUSH1 0x1 PUSH1 0xE0 DUP8 ADD MSTORE CALLER PUSH2 0x100 DUP8 ADD MSTORE PUSH1 0x40 MLOAD DUP2 DUP4 DUP3 CALLDATACOPY PUSH1 0x20 DUP2 DUP4 DUP2 ADD PUSH1 0x6 DUP2 MSTORE SUB ADD SWAP1 KECCAK256 SWAP6 DUP1 MLOAD DUP1 MLOAD SWAP1 PUSH1 0x1 PUSH1 0x1 PUSH1 0x40 SHL SUB DUP3 GT PUSH2 0xDD2 JUMPI DUP2 SWAP1 PUSH2 0x9C5 DUP11 SLOAD PUSH2 0x1A73 JUMP JUMPDEST PUSH1 0x1F DUP2 GT PUSH2 0xF18 JUMPI JUMPDEST POP PUSH1 0x20 SWAP1 PUSH1 0x1F DUP4 GT PUSH1 0x1 EQ PUSH2 0xEB5 JUMPI DUP10 SWAP3 PUSH2 0xEAA JUMPI JUMPDEST POP POP DUP2 PUSH1 0x1 SHL SWAP2 PUSH1 0x0 NOT SWAP1 PUSH1 0x3 SHL SHR NOT AND OR DUP8 SSTORE JUMPDEST PUSH1 0x20 DUP2 ADD MLOAD DUP1 MLOAD SWAP1 PUSH1 0x1 PUSH1 0x1 PUSH1 0x40 SHL SUB DUP3 GT PUSH2 0xDD2 JUMPI DUP2 SWAP1 PUSH2 0xA1E PUSH1 0x1 DUP12 ADD SLOAD PUSH2 0x1A73 JUMP JUMPDEST PUSH1 0x1F DUP2 GT PUSH2 0xE5A JUMPI JUMPDEST POP PUSH1 0x20 SWAP1 PUSH1 0x1F DUP4 GT PUSH1 0x1 EQ PUSH2 0xDF1 JUMPI DUP10 SWAP3 PUSH2 0xDE6 JUMPI JUMPDEST POP POP DUP2 PUSH1 0x1 SHL SWAP2 PUSH1 0x0 NOT SWAP1 PUSH1 0x3 SHL SHR NOT AND OR PUSH1 0x1 DUP9 ADD SSTORE JUMPDEST PUSH1 0x40 DUP2 ADD MLOAD DUP1 MLOAD SWAP1 PUSH1 0x1 PUSH1 0x1 PUSH1 0x40 SHL SUB DUP3 GT PUSH2 0xDD2 JUMPI DUP2 SWAP1 PUSH2 0xA7A PUSH1 0x2 DUP12 ADD SLOAD PUSH2 0x1A73 JUMP JUMPDEST PUSH1 0x1F DUP2 GT PUSH2 0xD7F JUMPI JUMPDEST POP PUSH1 0x20 SWAP1 PUSH1 0x1F DUP4 GT PUSH1 0x1 EQ PUSH2 0xD16 JUMPI DUP10 SWAP3 PUSH2 0xD0B JUMPI JUMPDEST POP POP DUP2 PUSH1 0x1 SHL SWAP2 PUSH1 0x0 NOT SWAP1 PUSH1 0x3 SHL SHR NOT AND OR PUSH1 0x2 DUP9 ADD SSTORE JUMPDEST PUSH1 0x60 DUP2 ADD MLOAD PUSH1 0x3 DUP2 LT ISZERO PUSH2 0xCF7 JUMPI PUSH2 0xACC SWAP1 PUSH1 0x3 DUP10 ADD PUSH2 0x1AAD JUMP JUMPDEST PUSH1 0x4 DUP8 ADD SWAP7 PUSH1 0x80 DUP3 ADD MLOAD SWAP8 DUP9 MLOAD PUSH1 0x1 PUSH1 0x1 PUSH1 0x40 SHL SUB DUP2 GT PUSH2 0xCE3 JUMPI PUSH2 0xAF1 DUP3 SLOAD PUSH2 0x1A73 JUMP JUMPDEST PUSH1 0x1F DUP2 GT PUSH2 0xC9E JUMPI JUMPDEST POP PUSH1 0x20 PUSH1 0x1F DUP3 GT PUSH1 0x1 EQ PUSH2 0xC0D JUMPI SWAP3 PUSH2 0x100 SWAP3 DUP3 PUSH1 0x7 SWAP4 PUSH2 0xBF0 SWAP10 SWAP9 SWAP8 SWAP7 DUP14 SWAP15 PUSH32 0xFA7468FB48FB83622C2209222CF44E88523933FDDB73D3B07ECF89400639B3BA SWAP15 SWAP3 PUSH2 0xC02 JUMPI JUMPDEST POP POP DUP2 PUSH1 0x1 SHL SWAP2 PUSH1 0x0 NOT SWAP1 PUSH1 0x3 SHL SHR NOT AND OR SWAP1 SSTORE JUMPDEST PUSH1 0xA0 DUP5 ADD MLOAD PUSH1 0x5 DUP3 ADD SSTORE PUSH1 0xC0 DUP5 ADD MLOAD PUSH1 0x6 DUP3 ADD SSTORE ADD SWAP2 PUSH2 0xB89 PUSH1 0xE0 DUP3 ADD MLOAD ISZERO ISZERO DUP5 SWAP1 PUSH1 0xFF DUP1 NOT DUP4 SLOAD AND SWAP2 ISZERO ISZERO AND OR SWAP1 SSTORE JUMP JUMPDEST ADD MLOAD DUP2 SLOAD PUSH2 0x100 PUSH1 0x1 PUSH1 0xA8 SHL SUB NOT AND PUSH1 0x8 SWAP2 SWAP1 SWAP2 SHL PUSH2 0x100 PUSH1 0x1 PUSH1 0xA8 SHL SUB AND OR SWAP1 SSTORE PUSH1 0x40 MLOAD DUP2 DUP4 DUP3 CALLDATACOPY PUSH1 0x20 DUP2 DUP4 DUP2 ADD PUSH1 0x7 DUP2 MSTORE SUB ADD SWAP1 KECCAK256 PUSH1 0x1 PUSH1 0xFF NOT DUP3 SLOAD AND OR SWAP1 SSTORE PUSH2 0xBE2 PUSH1 0x40 MLOAD SWAP6 DUP7 SWAP6 PUSH1 0x80 DUP8 MSTORE PUSH1 0x80 DUP8 ADD SWAP2 PUSH2 0x1AC5 JUMP JUMPDEST SWAP2 DUP5 DUP4 SUB PUSH1 0x20 DUP7 ADD MSTORE PUSH2 0x1AC5 JUMP JUMPDEST CALLER PUSH1 0x40 DUP4 ADD MSTORE TIMESTAMP PUSH1 0x60 DUP4 ADD MSTORE SUB SWAP1 LOG1 DUP1 RETURN JUMPDEST ADD MLOAD SWAP1 POP CODESIZE DUP1 PUSH2 0xB42 JUMP JUMPDEST DUP3 DUP11 MSTORE DUP1 DUP11 KECCAK256 SWAP11 PUSH1 0x1F NOT DUP4 AND DUP12 JUMPDEST DUP2 DUP2 LT PUSH2 0xC86 JUMPI POP DUP4 PUSH32 0xFA7468FB48FB83622C2209222CF44E88523933FDDB73D3B07ECF89400639B3BA SWAP13 SWAP14 PUSH2 0xBF0 SWAP11 SWAP10 SWAP9 SWAP8 SWAP5 PUSH2 0x100 SWAP8 SWAP5 PUSH1 0x7 SWAP8 PUSH1 0x1 SWAP6 LT PUSH2 0xC6D JUMPI JUMPDEST POP POP POP DUP2 SHL ADD SWAP1 SSTORE PUSH2 0xB57 JUMP JUMPDEST ADD MLOAD PUSH1 0x0 NOT PUSH1 0xF8 DUP5 PUSH1 0x3 SHL AND SHR NOT AND SWAP1 SSTORE CODESIZE DUP1 DUP1 PUSH2 0xC60 JUMP JUMPDEST DUP4 DUP4 ADD MLOAD DUP15 SSTORE PUSH1 0x1 SWAP1 SWAP14 ADD SWAP13 PUSH1 0x20 SWAP4 DUP5 ADD SWAP4 ADD PUSH2 0xC1B JUMP JUMPDEST DUP3 DUP11 MSTORE PUSH1 0x20 DUP11 KECCAK256 PUSH1 0x1F DUP4 ADD PUSH1 0x5 SHR DUP2 ADD SWAP2 PUSH1 0x20 DUP5 LT PUSH2 0xCD9 JUMPI JUMPDEST PUSH1 0x1F ADD PUSH1 0x5 SHR ADD SWAP1 JUMPDEST DUP2 DUP2 LT PUSH2 0xCCE JUMPI POP PUSH2 0xAFA JUMP JUMPDEST DUP11 DUP2 SSTORE PUSH1 0x1 ADD PUSH2 0xCC1 JUMP JUMPDEST SWAP1 SWAP2 POP DUP2 SWAP1 PUSH2 0xCB8 JUMP JUMPDEST PUSH4 0x4E487B71 PUSH1 0xE0 SHL DUP10 MSTORE PUSH1 0x41 PUSH1 0x4 MSTORE PUSH1 0x24 DUP10 REVERT JUMPDEST PUSH4 0x4E487B71 PUSH1 0xE0 SHL DUP8 MSTORE PUSH1 0x21 PUSH1 0x4 MSTORE PUSH1 0x24 DUP8 REVERT JUMPDEST ADD MLOAD SWAP1 POP CODESIZE DUP1 PUSH2 0xA99 JUMP JUMPDEST PUSH1 0x2 DUP12 ADD DUP11 MSTORE DUP2 DUP11 KECCAK256 SWAP3 POP PUSH1 0x1F NOT DUP5 AND DUP11 JUMPDEST DUP2 DUP2 LT PUSH2 0xD67 JUMPI POP SWAP1 DUP5 PUSH1 0x1 SWAP6 SWAP5 SWAP4 SWAP3 LT PUSH2 0xD4E JUMPI JUMPDEST POP POP POP DUP2 SHL ADD PUSH1 0x2 DUP9 ADD SSTORE PUSH2 0xAB1 JUMP JUMPDEST ADD MLOAD PUSH1 0x0 NOT PUSH1 0xF8 DUP5 PUSH1 0x3 SHL AND SHR NOT AND SWAP1 SSTORE CODESIZE DUP1 DUP1 PUSH2 0xD3E JUMP JUMPDEST SWAP3 SWAP4 PUSH1 0x20 PUSH1 0x1 DUP2 SWAP3 DUP8 DUP7 ADD MLOAD DUP2 SSTORE ADD SWAP6 ADD SWAP4 ADD PUSH2 0xD28 JUMP JUMPDEST SWAP1 SWAP2 POP PUSH1 0x2 DUP11 ADD DUP10 MSTORE PUSH1 0x20 DUP10 KECCAK256 PUSH1 0x1F DUP5 ADD PUSH1 0x5 SHR DUP2 ADD SWAP2 PUSH1 0x20 DUP6 LT PUSH2 0xDC8 JUMPI JUMPDEST SWAP1 PUSH1 0x1F DUP6 SWAP5 SWAP4 SWAP3 ADD PUSH1 0x5 SHR ADD SWAP1 JUMPDEST DUP2 DUP2 LT PUSH2 0xDBA JUMPI POP PUSH2 0xA83 JUMP JUMPDEST DUP11 DUP2 SSTORE DUP5 SWAP4 POP PUSH1 0x1 ADD PUSH2 0xDAD JUMP JUMPDEST SWAP1 SWAP2 POP DUP2 SWAP1 PUSH2 0xD9F JUMP JUMPDEST PUSH4 0x4E487B71 PUSH1 0xE0 SHL DUP9 MSTORE PUSH1 0x41 PUSH1 0x4 MSTORE PUSH1 0x24 DUP9 REVERT JUMPDEST ADD MLOAD SWAP1 POP CODESIZE DUP1 PUSH2 0xA3D JUMP JUMPDEST PUSH1 0x1 DUP12 ADD DUP11 MSTORE DUP2 DUP11 KECCAK256 SWAP3 POP PUSH1 0x1F NOT DUP5 AND DUP11 JUMPDEST DUP2 DUP2 LT PUSH2 0xE42 JUMPI POP SWAP1 DUP5 PUSH1 0x1 SWAP6 SWAP5 SWAP4 SWAP3 LT PUSH2 0xE29 JUMPI JUMPDEST POP POP POP DUP2 SHL ADD PUSH1 0x1 DUP9 ADD SSTORE PUSH2 0xA55 JUMP JUMPDEST ADD MLOAD PUSH1 0x0 NOT PUSH1 0xF8 DUP5 PUSH1 0x3 SHL AND SHR NOT AND SWAP1 SSTORE CODESIZE DUP1 DUP1 PUSH2 0xE19 JUMP JUMPDEST SWAP3 SWAP4 PUSH1 0x20 PUSH1 0x1 DUP2 SWAP3 DUP8 DUP7 ADD MLOAD DUP2 SSTORE ADD SWAP6 ADD SWAP4 ADD PUSH2 0xE03 JUMP JUMPDEST SWAP1 SWAP2 POP PUSH1 0x1 DUP11 ADD DUP10 MSTORE PUSH1 0x20 DUP10 KECCAK256 PUSH1 0x1F DUP5 ADD PUSH1 0x5 SHR DUP2 ADD PUSH1 0x20 DUP6 LT PUSH2 0xEA3 JUMPI JUMPDEST SWAP1 DUP5 SWAP4 SWAP3 SWAP2 JUMPDEST PUSH1 0x1F DUP4 ADD PUSH1 0x5 SHR DUP3 ADD DUP2 LT PUSH2 0xE95 JUMPI POP POP PUSH2 0xA27 JUMP JUMPDEST DUP12 DUP2 SSTORE DUP6 SWAP5 POP PUSH1 0x1 ADD PUSH2 0xE7F JUMP JUMPDEST POP DUP1 PUSH2 0xE79 JUMP JUMPDEST ADD MLOAD SWAP1 POP CODESIZE DUP1 PUSH2 0x9E4 JUMP JUMPDEST DUP11 DUP11 MSTORE DUP2 DUP11 KECCAK256 SWAP3 POP PUSH1 0x1F NOT DUP5 AND DUP11 JUMPDEST DUP2 DUP2 LT PUSH2 0xF00 JUMPI POP SWAP1 DUP5 PUSH1 0x1 SWAP6 SWAP5 SWAP4 SWAP3 LT PUSH2 0xEE7 JUMPI JUMPDEST POP POP POP DUP2 SHL ADD DUP8 SSTORE PUSH2 0x9F9 JUMP JUMPDEST ADD MLOAD PUSH1 0x0 NOT PUSH1 0xF8 DUP5 PUSH1 0x3 SHL AND SHR NOT AND SWAP1 SSTORE CODESIZE DUP1 DUP1 PUSH2 0xEDA JUMP JUMPDEST SWAP3 SWAP4 PUSH1 0x20 PUSH1 0x1 DUP2 SWAP3 DUP8 DUP7 ADD MLOAD DUP2 SSTORE ADD SWAP6 ADD SWAP4 ADD PUSH2 0xEC4 JUMP JUMPDEST SWAP1 SWAP2 POP DUP10 DUP10 MSTORE PUSH1 0x20 DUP10 KECCAK256 PUSH1 0x1F DUP5 ADD PUSH1 0x5 SHR DUP2 ADD PUSH1 0x20 DUP6 LT PUSH2 0xF5E JUMPI JUMPDEST SWAP1 DUP5 SWAP4 SWAP3 SWAP2 JUMPDEST PUSH1 0x1F DUP4 ADD PUSH1 0x5 SHR DUP3 ADD DUP2 LT PUSH2 0xF50 JUMPI POP POP PUSH2 0x9CE JUMP JUMPDEST DUP12 DUP2 SSTORE DUP6 SWAP5 POP PUSH1 0x1 ADD PUSH2 0xF3A JUMP JUMPDEST POP DUP1 PUSH2 0xF34 JUMP JUMPDEST PUSH2 0x970 SWAP1 SWAP3 PUSH2 0x938 JUMP JUMPDEST PUSH4 0x4E487B71 PUSH1 0xE0 SHL DUP9 MSTORE PUSH1 0x21 PUSH1 0x4 MSTORE PUSH1 0x24 DUP9 REVERT JUMPDEST PUSH1 0x40 MLOAD PUSH3 0x461BCD PUSH1 0xE5 SHL DUP2 MSTORE PUSH1 0x20 PUSH1 0x4 DUP3 ADD MSTORE PUSH1 0x1C PUSH1 0x24 DUP3 ADD MSTORE PUSH32 0x426174636820686173206E6F74206265656E20696E7370656374656400000000 PUSH1 0x44 DUP3 ADD MSTORE PUSH1 0x64 SWAP1 REVERT JUMPDEST DUP3 DUP1 REVERT JUMPDEST POP CALLVALUE PUSH2 0x29C JUMPI PUSH2 0x100 CALLDATASIZE PUSH1 0x3 NOT ADD SLT PUSH2 0x29C JUMPI PUSH1 0x4 CALLDATALOAD PUSH1 0x1 PUSH1 0x1 PUSH1 0x40 SHL SUB DUP2 GT PUSH2 0x29A JUMPI PUSH2 0xFFE SWAP1 CALLDATASIZE SWAP1 PUSH1 0x4 ADD PUSH2 0x18DD JUMP JUMPDEST SWAP2 SWAP1 PUSH1 0x24 CALLDATALOAD PUSH1 0x1 PUSH1 0x1 PUSH1 0x40 SHL SUB DUP2 GT PUSH2 0xFC8 JUMPI PUSH2 0x101F SWAP1 CALLDATASIZE SWAP1 PUSH1 0x4 ADD PUSH2 0x18DD JUMP JUMPDEST SWAP4 SWAP1 PUSH1 0x64 CALLDATALOAD PUSH1 0x1 PUSH1 0x1 PUSH1 0x40 SHL SUB DUP2 GT PUSH2 0x18D9 JUMPI PUSH2 0x1040 SWAP1 CALLDATASIZE SWAP1 PUSH1 0x4 ADD PUSH2 0x18DD JUMP JUMPDEST SWAP6 SWAP1 PUSH1 0x3 PUSH1 0x84 CALLDATALOAD LT ISZERO PUSH2 0x18D5 JUMPI PUSH1 0xA4 CALLDATALOAD PUSH1 0x1 PUSH1 0x1 PUSH1 0x40 SHL SUB DUP2 GT PUSH2 0x18D1 JUMPI PUSH2 0x106C SWAP1 CALLDATASIZE SWAP1 PUSH1 0x4 ADD PUSH2 0x18DD JUMP JUMPDEST SWAP8 SWAP1 PUSH1 0xC4 CALLDATALOAD DUP1 ISZERO ISZERO DUP2 SUB PUSH2 0x18CD JUMPI PUSH1 0xE4 CALLDATALOAD PUSH1 0x1 PUSH1 0x1 PUSH1 0x40 SHL SUB DUP2 GT PUSH2 0x18C9 JUMPI PUSH2 0x1099 SWAP1 CALLDATASIZE SWAP1 PUSH1 0x4 ADD PUSH2 0x18DD JUMP JUMPDEST SWAP2 SWAP1 SWAP3 CALLER DUP12 MSTORE PUSH1 0x2 PUSH1 0x20 MSTORE PUSH1 0x40 DUP12 KECCAK256 SLOAD PUSH1 0xFF AND PUSH2 0x10B5 SWAP1 PUSH2 0x1973 JUMP JUMPDEST PUSH1 0x40 MLOAD SWAP12 PUSH2 0x10C2 DUP14 PUSH2 0x19B2 JUMP JUMPDEST PUSH2 0x10CD CALLDATASIZE DUP12 DUP14 PUSH2 0x1A21 JUMP JUMPDEST DUP14 MSTORE DUP13 PUSH2 0x10DB CALLDATASIZE DUP11 DUP13 PUSH2 0x1A21 JUMP JUMPDEST PUSH1 0x20 SWAP1 SWAP2 ADD MSTORE PUSH1 0x44 CALLDATALOAD PUSH1 0x40 DUP15 ADD MSTORE DUP13 PUSH2 0x10F5 CALLDATASIZE DUP9 DUP11 PUSH2 0x1A21 JUMP JUMPDEST PUSH1 0x60 SWAP1 SWAP2 ADD MSTORE PUSH2 0x110A PUSH1 0x84 CALLDATALOAD PUSH1 0x80 DUP16 ADD PUSH2 0x1A67 JUMP JUMPDEST CALLDATASIZE SWAP1 PUSH2 0x1115 SWAP3 PUSH2 0x1A21 JUMP JUMPDEST PUSH1 0xA0 DUP13 ADD MSTORE ISZERO ISZERO PUSH1 0xC0 DUP12 ADD MSTORE CALLDATASIZE SWAP1 PUSH2 0x112C SWAP3 PUSH2 0x1A21 JUMP JUMPDEST PUSH1 0xE0 DUP10 ADD MSTORE TIMESTAMP PUSH2 0x100 DUP10 ADD MSTORE CALLER PUSH2 0x120 DUP10 ADD MSTORE PUSH1 0x40 MLOAD DUP6 DUP8 DUP3 CALLDATACOPY DUP1 DUP7 DUP2 ADD PUSH1 0x4 DUP2 MSTORE SUB PUSH1 0x20 ADD SWAP1 KECCAK256 SWAP8 DUP1 MLOAD DUP1 MLOAD SWAP1 PUSH1 0x1 PUSH1 0x1 PUSH1 0x40 SHL SUB DUP3 GT PUSH2 0x1587 JUMPI DUP2 SWAP1 PUSH2 0x1174 DUP13 SLOAD PUSH2 0x1A73 JUMP JUMPDEST PUSH1 0x1F DUP2 GT PUSH2 0x187B JUMPI JUMPDEST POP PUSH1 0x20 SWAP1 PUSH1 0x1F DUP4 GT PUSH1 0x1 EQ PUSH2 0x1813 JUMPI DUP12 SWAP3 PUSH2 0x1808 JUMPI JUMPDEST POP POP DUP2 PUSH1 0x1 SHL SWAP2 PUSH1 0x0 NOT SWAP1 PUSH1 0x3 SHL SHR NOT AND OR DUP10 SSTORE JUMPDEST PUSH1 0x20 DUP2 ADD MLOAD DUP1 MLOAD SWAP1 PUSH1 0x1 PUSH1 0x1 PUSH1 0x40 SHL SUB DUP3 GT PUSH2 0x1587 JUMPI DUP2 SWAP1 PUSH2 0x11CD PUSH1 0x1 DUP14 ADD SLOAD PUSH2 0x1A73 JUMP JUMPDEST PUSH1 0x1F DUP2 GT PUSH2 0x17B7 JUMPI JUMPDEST POP PUSH1 0x20 SWAP1 PUSH1 0x1F DUP4 GT PUSH1 0x1 EQ PUSH2 0x1749 JUMPI DUP12 SWAP3 PUSH2 0x173E JUMPI JUMPDEST POP POP DUP2 PUSH1 0x1 SHL SWAP2 PUSH1 0x0 NOT SWAP1 PUSH1 0x3 SHL SHR NOT AND OR PUSH1 0x1 DUP11 ADD SSTORE JUMPDEST PUSH1 0x40 DUP2 ADD MLOAD PUSH1 0x2 DUP11 ADD SSTORE PUSH1 0x60 DUP2 ADD MLOAD DUP1 MLOAD SWAP1 PUSH1 0x1 PUSH1 0x1 PUSH1 0x40 SHL SUB DUP3 GT PUSH2 0x1587 JUMPI DUP2 SWAP1 PUSH2 0x1233 PUSH1 0x3 DUP14 ADD SLOAD PUSH2 0x1A73 JUMP JUMPDEST PUSH1 0x1F DUP2 GT PUSH2 0x16ED JUMPI JUMPDEST POP PUSH1 0x20 SWAP1 PUSH1 0x1F DUP4 GT PUSH1 0x1 EQ PUSH2 0x1684 JUMPI DUP12 SWAP3 PUSH2 0x1679 JUMPI JUMPDEST POP POP DUP2 PUSH1 0x1 SHL SWAP2 PUSH1 0x0 NOT SWAP1 PUSH1 0x3 SHL SHR NOT AND OR PUSH1 0x3 DUP11 ADD SSTORE JUMPDEST PUSH1 0x80 DUP2 ADD MLOAD PUSH1 0x3 DUP2 LT ISZERO PUSH2 0x1665 JUMPI PUSH2 0x1285 SWAP1 PUSH1 0x4 DUP12 ADD PUSH2 0x1AAD JUMP JUMPDEST PUSH1 0xA0 DUP2 ADD MLOAD DUP1 MLOAD SWAP1 PUSH1 0x1 PUSH1 0x1 PUSH1 0x40 SHL SUB DUP3 GT PUSH2 0x1587 JUMPI DUP2 SWAP1 PUSH2 0x12AA PUSH1 0x5 DUP14 ADD SLOAD PUSH2 0x1A73 JUMP JUMPDEST PUSH1 0x1F DUP2 GT PUSH2 0x1614 JUMPI JUMPDEST POP PUSH1 0x20 SWAP1 PUSH1 0x1F DUP4 GT PUSH1 0x1 EQ PUSH2 0x15A6 JUMPI DUP12 SWAP3 PUSH2 0x159B JUMPI JUMPDEST POP POP DUP2 PUSH1 0x1 SHL SWAP2 PUSH1 0x0 NOT SWAP1 PUSH1 0x3 SHL SHR NOT AND OR PUSH1 0x5 DUP11 ADD SSTORE JUMPDEST PUSH2 0x1300 PUSH1 0xC0 DUP3 ADD MLOAD ISZERO ISZERO PUSH1 0x6 DUP12 ADD SWAP1 PUSH1 0xFF DUP1 NOT DUP4 SLOAD AND SWAP2 ISZERO ISZERO AND OR SWAP1 SSTORE JUMP JUMPDEST PUSH1 0xE0 DUP2 ADD MLOAD SWAP9 DUP10 MLOAD PUSH1 0x1 PUSH1 0x1 PUSH1 0x40 SHL SUB DUP2 GT PUSH2 0x1587 JUMPI PUSH2 0x1323 PUSH1 0x7 DUP4 ADD SLOAD PUSH2 0x1A73 JUMP JUMPDEST SWAP11 PUSH1 0x1F DUP13 GT PUSH2 0x153F JUMPI JUMPDEST DUP11 DUP1 SWAP13 POP SWAP10 SWAP11 POP PUSH1 0x20 SWAP1 PUSH1 0x1F DUP4 GT PUSH1 0x1 EQ PUSH2 0x149B JUMPI SWAP3 DUP3 PUSH32 0xB4440038C142868B0DA63940EECD1357B34466D841959A844BE50D7AE83A2A08 SWAP10 SWAP9 SWAP8 SWAP6 SWAP4 PUSH1 0x9 SWAP4 PUSH2 0x141B SWAP9 SWAP7 DUP15 SWAP3 PUSH2 0x1490 JUMPI JUMPDEST POP POP DUP2 PUSH1 0x1 SHL SWAP2 PUSH1 0x0 NOT SWAP1 PUSH1 0x3 SHL SHR NOT AND OR PUSH1 0x7 DUP3 ADD SSTORE JUMPDEST PUSH2 0x100 DUP4 ADD MLOAD PUSH1 0x8 DUP3 ADD SSTORE ADD SWAP1 PUSH2 0x120 PUSH1 0x1 DUP1 PUSH1 0xA0 SHL SUB SWAP2 ADD MLOAD AND PUSH12 0xFFFFFFFFFFFFFFFFFFFFFFFF PUSH1 0xA0 SHL DUP3 SLOAD AND OR SWAP1 SSTORE PUSH1 0x40 MLOAD DUP8 DUP11 DUP3 CALLDATACOPY PUSH1 0x20 DUP2 DUP10 DUP2 ADD PUSH1 0x5 DUP2 MSTORE SUB ADD SWAP1 KECCAK256 PUSH1 0x1 PUSH1 0xFF NOT DUP3 SLOAD AND OR SWAP1 SSTORE PUSH2 0x13FE PUSH1 0x40 MLOAD SWAP6 DUP7 SWAP6 PUSH1 0x80 DUP8 MSTORE PUSH2 0x38B DUP13 DUP12 PUSH1 0x80 DUP11 ADD SWAP2 PUSH2 0x1AC5 JUMP JUMPDEST SWAP2 PUSH2 0x140E PUSH1 0x40 DUP7 ADD PUSH1 0x84 CALLDATALOAD PUSH2 0x1950 JUMP JUMPDEST DUP5 DUP4 SUB PUSH1 0x60 DUP7 ADD MSTORE PUSH2 0x1AC5 JUMP JUMPDEST SUB SWAP1 LOG1 PUSH1 0x1 SLOAD PUSH1 0x1 PUSH1 0x1 PUSH1 0xA0 SHL SUB AND SWAP3 DUP4 EXTCODESIZE ISZERO PUSH2 0xFC8 JUMPI PUSH2 0x145D SWAP4 DUP4 SWAP3 DUP4 PUSH1 0x40 MLOAD DUP1 SWAP8 DUP2 SWAP6 DUP3 SWAP5 PUSH4 0xB50A3C87 PUSH1 0xE0 SHL DUP5 MSTORE PUSH1 0x40 PUSH1 0x4 DUP6 ADD MSTORE PUSH1 0x44 DUP5 ADD SWAP2 PUSH2 0x1AC5 JUMP JUMPDEST PUSH1 0x1 PUSH1 0x24 DUP4 ADD MSTORE SUB SWAP3 GAS CALL DUP1 ISZERO PUSH2 0x1483 JUMPI PUSH2 0x1475 JUMPI DUP1 RETURN JUMPDEST PUSH2 0x147E SWAP2 PUSH2 0x1A00 JUMP JUMPDEST CODESIZE DUP2 DUP1 RETURN JUMPDEST POP PUSH1 0x40 MLOAD SWAP1 RETURNDATASIZE SWAP1 DUP3 RETURNDATACOPY RETURNDATASIZE SWAP1 REVERT JUMPDEST ADD MLOAD SWAP1 POP CODESIZE DUP1 PUSH2 0x1379 JUMP JUMPDEST SWAP10 SWAP9 SWAP8 SWAP7 SWAP6 SWAP5 SWAP4 SWAP3 SWAP2 SWAP1 PUSH1 0x7 DUP4 ADD DUP11 MSTORE DUP1 DUP11 KECCAK256 SWAP11 DUP11 JUMPDEST PUSH1 0x1F NOT DUP5 AND DUP2 LT PUSH2 0x1524 JUMPI POP DUP3 PUSH32 0xB4440038C142868B0DA63940EECD1357B34466D841959A844BE50D7AE83A2A08 SWAP11 SWAP12 SWAP13 PUSH2 0x141B SWAP9 SWAP8 SWAP7 SWAP6 SWAP4 PUSH1 0x1 SWAP4 PUSH1 0x9 SWAP7 PUSH1 0x1F NOT DUP2 AND LT PUSH2 0x150B JUMPI JUMPDEST POP POP POP DUP2 SHL ADD PUSH1 0x7 DUP3 ADD SSTORE PUSH2 0x1391 JUMP JUMPDEST ADD MLOAD PUSH1 0x0 NOT PUSH1 0xF8 DUP5 PUSH1 0x3 SHL AND SHR NOT AND SWAP1 SSTORE CODESIZE DUP1 DUP1 PUSH2 0x14FB JUMP JUMPDEST DUP3 DUP3 ADD MLOAD DUP14 SSTORE PUSH1 0x1 SWAP1 SWAP13 ADD SWAP12 DUP15 SWAP12 POP PUSH1 0x20 SWAP3 DUP4 ADD SWAP3 ADD PUSH2 0x14B1 JUMP JUMPDEST PUSH1 0x7 DUP4 ADD DUP12 MSTORE PUSH1 0x20 DUP12 KECCAK256 PUSH1 0x1F DUP4 ADD PUSH1 0x5 SHR DUP2 ADD SWAP13 PUSH1 0x20 DUP5 LT PUSH2 0x157D JUMPI JUMPDEST PUSH1 0x1F ADD PUSH1 0x5 SHR ADD SWAP12 JUMPDEST DUP13 DUP2 LT PUSH2 0x1572 JUMPI POP PUSH2 0x132D JUMP JUMPDEST DUP12 DUP2 SSTORE PUSH1 0x1 ADD PUSH2 0x1565 JUMP JUMPDEST SWAP1 SWAP13 POP DUP13 SWAP1 PUSH2 0x155C JUMP JUMPDEST PUSH4 0x4E487B71 PUSH1 0xE0 SHL DUP11 MSTORE PUSH1 0x41 PUSH1 0x4 MSTORE PUSH1 0x24 DUP11 REVERT JUMPDEST ADD MLOAD SWAP1 POP CODESIZE DUP1 PUSH2 0x12C9 JUMP JUMPDEST SWAP3 POP PUSH1 0x5 DUP13 ADD DUP12 MSTORE DUP1 DUP12 KECCAK256 SWAP1 DUP12 SWAP4 JUMPDEST PUSH1 0x1F NOT DUP5 AND DUP6 LT PUSH2 0x15F9 JUMPI PUSH1 0x1 SWAP5 POP DUP4 PUSH1 0x1F NOT DUP2 AND LT PUSH2 0x15E0 JUMPI JUMPDEST POP POP POP DUP2 SHL ADD PUSH1 0x5 DUP11 ADD SSTORE PUSH2 0x12E1 JUMP JUMPDEST ADD MLOAD PUSH1 0x0 NOT PUSH1 0xF8 DUP5 PUSH1 0x3 SHL AND SHR NOT AND SWAP1 SSTORE CODESIZE DUP1 DUP1 PUSH2 0x15D0 JUMP JUMPDEST DUP2 DUP2 ADD MLOAD DUP4 SSTORE PUSH1 0x20 SWAP5 DUP6 ADD SWAP5 PUSH1 0x1 SWAP1 SWAP4 ADD SWAP3 SWAP1 SWAP2 ADD SWAP1 PUSH2 0x15B5 JUMP JUMPDEST SWAP1 SWAP2 POP PUSH1 0x5 DUP13 ADD DUP12 MSTORE PUSH1 0x20 DUP12 KECCAK256 PUSH1 0x1F DUP5 ADD PUSH1 0x5 SHR DUP2 ADD PUSH1 0x20 DUP6 LT PUSH2 0x165E JUMPI JUMPDEST SWAP1 DUP5 SWAP4 SWAP3 SWAP2 JUMPDEST DUP14 PUSH1 0x1F DUP5 ADD PUSH1 0x5 SHR DUP4 ADD DUP3 LT PUSH2 0x1651 JUMPI POP POP POP PUSH2 0x12B3 JUMP JUMPDEST DUP2 SSTORE DUP6 SWAP5 POP PUSH1 0x1 ADD PUSH2 0x1639 JUMP JUMPDEST POP DUP1 PUSH2 0x1633 JUMP JUMPDEST PUSH4 0x4E487B71 PUSH1 0xE0 SHL DUP10 MSTORE PUSH1 0x21 PUSH1 0x4 MSTORE PUSH1 0x24 DUP10 REVERT JUMPDEST ADD MLOAD SWAP1 POP CODESIZE DUP1 PUSH2 0x1252 JUMP JUMPDEST PUSH1 0x3 DUP14 ADD DUP13 MSTORE DUP2 DUP13 KECCAK256 SWAP3 POP PUSH1 0x1F NOT DUP5 AND DUP13 JUMPDEST DUP2 DUP2 LT PUSH2 0x16D5 JUMPI POP SWAP1 DUP5 PUSH1 0x1 SWAP6 SWAP5 SWAP4 SWAP3 LT PUSH2 0x16BC JUMPI JUMPDEST POP POP POP DUP2 SHL ADD PUSH1 0x3 DUP11 ADD SSTORE PUSH2 0x126A JUMP JUMPDEST ADD MLOAD PUSH1 0x0 NOT PUSH1 0xF8 DUP5 PUSH1 0x3 SHL AND SHR NOT AND SWAP1 SSTORE CODESIZE DUP1 DUP1 PUSH2 0x16AC JUMP JUMPDEST SWAP3 SWAP4 PUSH1 0x20 PUSH1 0x1 DUP2 SWAP3 DUP8 DUP7 ADD MLOAD DUP2 SSTORE ADD SWAP6 ADD SWAP4 ADD PUSH2 0x1696 JUMP JUMPDEST SWAP1 SWAP2 POP PUSH1 0x3 DUP13 ADD DUP12 MSTORE PUSH1 0x20 DUP12 KECCAK256 PUSH1 0x1F DUP5 ADD PUSH1 0x5 SHR DUP2 ADD PUSH1 0x20 DUP6 LT PUSH2 0x1737 JUMPI JUMPDEST SWAP1 DUP5 SWAP4 SWAP3 SWAP2 JUMPDEST DUP14 PUSH1 0x1F DUP5 ADD PUSH1 0x5 SHR DUP4 ADD DUP3 LT PUSH2 0x172A JUMPI POP POP POP PUSH2 0x123C JUMP JUMPDEST DUP2 SSTORE DUP6 SWAP5 POP PUSH1 0x1 ADD PUSH2 0x1712 JUMP JUMPDEST POP DUP1 PUSH2 0x170C JUMP JUMPDEST ADD MLOAD SWAP1 POP CODESIZE DUP1 PUSH2 0x11EC JUMP JUMPDEST SWAP3 POP PUSH1 0x1 DUP13 ADD DUP12 MSTORE DUP1 DUP12 KECCAK256 SWAP1 DUP12 SWAP4 JUMPDEST PUSH1 0x1F NOT DUP5 AND DUP6 LT PUSH2 0x179C JUMPI PUSH1 0x1 SWAP5 POP DUP4 PUSH1 0x1F NOT DUP2 AND LT PUSH2 0x1783 JUMPI JUMPDEST POP POP POP DUP2 SHL ADD PUSH1 0x1 DUP11 ADD SSTORE PUSH2 0x1204 JUMP JUMPDEST ADD MLOAD PUSH1 0x0 NOT PUSH1 0xF8 DUP5 PUSH1 0x3 SHL AND SHR NOT AND SWAP1 SSTORE CODESIZE DUP1 DUP1 PUSH2 0x1773 JUMP JUMPDEST DUP2 DUP2 ADD MLOAD DUP4 SSTORE PUSH1 0x20 SWAP5 DUP6 ADD SWAP5 PUSH1 0x1 SWAP1 SWAP4 ADD SWAP3 SWAP1 SWAP2 ADD SWAP1 PUSH2 0x1758 JUMP JUMPDEST SWAP1 SWAP2 POP PUSH1 0x1 DUP13 ADD DUP12 MSTORE PUSH1 0x20 DUP12 KECCAK256 PUSH1 0x1F DUP5 ADD PUSH1 0x5 SHR DUP2 ADD PUSH1 0x20 DUP6 LT PUSH2 0x1801 JUMPI JUMPDEST SWAP1 DUP5 SWAP4 SWAP3 SWAP2 JUMPDEST DUP14 PUSH1 0x1F DUP5 ADD PUSH1 0x5 SHR DUP4 ADD DUP3 LT PUSH2 0x17F4 JUMPI POP POP POP PUSH2 0x11D6 JUMP JUMPDEST DUP2 SSTORE DUP6 SWAP5 POP PUSH1 0x1 ADD PUSH2 0x17DC JUMP JUMPDEST POP DUP1 PUSH2 0x17D6 JUMP JUMPDEST ADD MLOAD SWAP1 POP CODESIZE DUP1 PUSH2 0x1193 JUMP JUMPDEST SWAP3 POP DUP12 DUP12 MSTORE DUP1 DUP12 KECCAK256 SWAP1 DUP12 SWAP4 JUMPDEST PUSH1 0x1F NOT DUP5 AND DUP6 LT PUSH2 0x1860 JUMPI PUSH1 0x1 SWAP5 POP DUP4 PUSH1 0x1F NOT DUP2 AND LT PUSH2 0x1847 JUMPI JUMPDEST POP POP POP DUP2 SHL ADD DUP10 SSTORE PUSH2 0x11A8 JUMP JUMPDEST ADD MLOAD PUSH1 0x0 NOT PUSH1 0xF8 DUP5 PUSH1 0x3 SHL AND SHR NOT AND SWAP1 SSTORE CODESIZE DUP1 DUP1 PUSH2 0x183A JUMP JUMPDEST DUP2 DUP2 ADD MLOAD DUP4 SSTORE PUSH1 0x20 SWAP5 DUP6 ADD SWAP5 PUSH1 0x1 SWAP1 SWAP4 ADD SWAP3 SWAP1 SWAP2 ADD SWAP1 PUSH2 0x181F JUMP JUMPDEST SWAP1 SWAP2 POP DUP12 DUP12 MSTORE PUSH1 0x20 DUP12 KECCAK256 PUSH1 0x1F DUP5 ADD PUSH1 0x5 SHR DUP2 ADD PUSH1 0x20 DUP6 LT PUSH2 0x18C2 JUMPI JUMPDEST SWAP1 DUP5 SWAP4 SWAP3 SWAP2 JUMPDEST DUP14 PUSH1 0x1F DUP5 ADD PUSH1 0x5 SHR DUP4 ADD DUP3 LT PUSH2 0x18B5 JUMPI POP POP POP PUSH2 0x117D JUMP JUMPDEST DUP2 SSTORE DUP6 SWAP5 POP PUSH1 0x1 ADD PUSH2 0x189D JUMP JUMPDEST POP DUP1 PUSH2 0x1897 JUMP JUMPDEST DUP10 DUP1 REVERT JUMPDEST DUP9 DUP1 REVERT JUMPDEST DUP7 DUP1 REVERT JUMPDEST DUP6 DUP1 REVERT JUMPDEST DUP5 DUP1 REVERT JUMPDEST SWAP2 DUP2 PUSH1 0x1F DUP5 ADD SLT ISZERO PUSH2 0x190A JUMPI DUP3 CALLDATALOAD SWAP2 PUSH1 0x1 PUSH1 0x1 PUSH1 0x40 SHL SUB DUP4 GT PUSH2 0x190A JUMPI PUSH1 0x20 DUP4 DUP2 DUP7 ADD SWAP6 ADD ADD GT PUSH2 0x190A JUMPI JUMP JUMPDEST PUSH1 0x0 DUP1 REVERT JUMPDEST SWAP2 SWAP1 DUP3 MLOAD SWAP3 DUP4 DUP3 MSTORE PUSH1 0x0 JUMPDEST DUP5 DUP2 LT PUSH2 0x193B JUMPI POP POP DUP3 PUSH1 0x0 PUSH1 0x20 DUP1 SWAP5 SWAP6 DUP5 ADD ADD MSTORE PUSH1 0x1F DUP1 NOT SWAP2 ADD AND ADD ADD SWAP1 JUMP JUMPDEST DUP1 PUSH1 0x20 DUP1 SWAP3 DUP5 ADD ADD MLOAD DUP3 DUP3 DUP7 ADD ADD MSTORE ADD PUSH2 0x191A JUMP JUMPDEST SWAP1 PUSH1 0x3 DUP3 LT ISZERO PUSH2 0x195D JUMPI MSTORE JUMP JUMPDEST PUSH4 0x4E487B71 PUSH1 0xE0 SHL PUSH1 0x0 MSTORE PUSH1 0x21 PUSH1 0x4 MSTORE PUSH1 0x24 PUSH1 0x0 REVERT JUMPDEST ISZERO PUSH2 0x197A JUMPI JUMP JUMPDEST PUSH1 0x40 MLOAD PUSH3 0x461BCD PUSH1 0xE5 SHL DUP2 MSTORE PUSH1 0x20 PUSH1 0x4 DUP3 ADD MSTORE PUSH1 0x10 PUSH1 0x24 DUP3 ADD MSTORE PUSH16 0x2737BA1030B71034B739B832B1BA37B9 PUSH1 0x81 SHL PUSH1 0x44 DUP3 ADD MSTORE PUSH1 0x64 SWAP1 REVERT JUMPDEST PUSH2 0x140 DUP2 ADD SWAP1 DUP2 LT PUSH1 0x1 PUSH1 0x1 PUSH1 0x40 SHL SUB DUP3 GT OR PUSH2 0x19CE JUMPI PUSH1 0x40 MSTORE JUMP JUMPDEST PUSH4 0x4E487B71 PUSH1 0xE0 SHL PUSH1 0x0 MSTORE PUSH1 0x41 PUSH1 0x4 MSTORE PUSH1 0x24 PUSH1 0x0 REVERT JUMPDEST PUSH2 0x120 DUP2 ADD SWAP1 DUP2 LT PUSH1 0x1 PUSH1 0x1 PUSH1 0x40 SHL SUB DUP3 GT OR PUSH2 0x19CE JUMPI PUSH1 0x40 MSTORE JUMP JUMPDEST SWAP1 PUSH1 0x1F DUP1 NOT SWAP2 ADD AND DUP2 ADD SWAP1 DUP2 LT PUSH1 0x1 PUSH1 0x1 PUSH1 0x40 SHL SUB DUP3 GT OR PUSH2 0x19CE JUMPI PUSH1 0x40 MSTORE JUMP JUMPDEST SWAP3 SWAP2 SWAP3 PUSH1 0x1 PUSH1 0x1 PUSH1 0x40 SHL SUB DUP3 GT PUSH2 0x19CE JUMPI PUSH1 0x40 MLOAD SWAP2 PUSH2 0x1A4A PUSH1 0x1F DUP3 ADD PUSH1 0x1F NOT AND PUSH1 0x20 ADD DUP5 PUSH2 0x1A00 JUMP JUMPDEST DUP3 SWAP5 DUP2 DUP5 MSTORE DUP2 DUP4 ADD GT PUSH2 0x190A JUMPI DUP3 DUP2 PUSH1 0x20 SWAP4 DUP5 PUSH1 0x0 SWAP7 ADD CALLDATACOPY ADD ADD MSTORE JUMP JUMPDEST PUSH1 0x3 DUP3 LT ISZERO PUSH2 0x195D JUMPI MSTORE JUMP JUMPDEST SWAP1 PUSH1 0x1 DUP3 DUP2 SHR SWAP3 AND DUP1 ISZERO PUSH2 0x1AA3 JUMPI JUMPDEST PUSH1 0x20 DUP4 LT EQ PUSH2 0x1A8D JUMPI JUMP JUMPDEST PUSH4 0x4E487B71 PUSH1 0xE0 SHL PUSH1 0x0 MSTORE PUSH1 0x22 PUSH1 0x4 MSTORE PUSH1 0x24 PUSH1 0x0 REVERT JUMPDEST SWAP2 PUSH1 0x7F AND SWAP2 PUSH2 0x1A82 JUMP JUMPDEST SWAP1 PUSH1 0x3 DUP2 LT ISZERO PUSH2 0x195D JUMPI PUSH1 0xFF DUP1 NOT DUP4 SLOAD AND SWAP2 AND OR SWAP1 SSTORE JUMP JUMPDEST SWAP1 DUP1 PUSH1 0x20 SWAP4 SWAP3 DUP2 DUP5 MSTORE DUP5 DUP5 ADD CALLDATACOPY PUSH1 0x0 DUP3 DUP3 ADD DUP5 ADD MSTORE PUSH1 0x1F ADD PUSH1 0x1F NOT AND ADD ADD SWAP1 JUMP JUMPDEST PUSH1 0x0 SWAP3 SWAP2 DUP2 SLOAD SWAP2 PUSH2 0x1AF6 DUP4 PUSH2 0x1A73 JUMP JUMPDEST DUP1 DUP4 MSTORE SWAP3 PUSH1 0x1 DUP2 AND SWAP1 DUP2 ISZERO PUSH2 0x1B4C JUMPI POP PUSH1 0x1 EQ PUSH2 0x1B12 JUMPI POP POP POP JUMP JUMPDEST PUSH1 0x0 SWAP1 DUP2 MSTORE PUSH1 0x20 DUP2 KECCAK256 SWAP4 SWAP5 POP SWAP2 SWAP3 JUMPDEST DUP4 DUP4 LT PUSH2 0x1B32 JUMPI POP PUSH1 0x20 SWAP3 POP ADD ADD SWAP1 JUMP JUMPDEST PUSH1 0x1 DUP2 PUSH1 0x20 SWAP3 SWAP5 SWAP4 SWAP5 SLOAD DUP4 DUP6 DUP8 ADD ADD MSTORE ADD SWAP2 ADD SWAP2 SWAP1 PUSH2 0x1B21 JUMP JUMPDEST SWAP2 POP POP PUSH1 0x20 SWAP4 SWAP5 POP PUSH1 0xFF SWAP3 SWAP2 SWAP3 NOT AND DUP4 DUP4 ADD MSTORE ISZERO ISZERO PUSH1 0x5 SHL ADD ADD SWAP1 JUMP JUMPDEST ISZERO PUSH2 0x1B70 JUMPI JUMP JUMPDEST PUSH1 0x40 MLOAD PUSH3 0x461BCD PUSH1 0xE5 SHL DUP2 MSTORE PUSH1 0x20 PUSH1 0x4 DUP3 ADD MSTORE PUSH1 0x12 PUSH1 0x24 DUP3 ADD MSTORE PUSH18 0x2737BA1031B7B73A3930B1BA1037BBB732B9 PUSH1 0x71 SHL PUSH1 0x44 DUP3 ADD MSTORE PUSH1 0x64 SWAP1 REVERT JUMPDEST ISZERO PUSH2 0x1BB1 JUMPI JUMP JUMPDEST PUSH1 0x40 MLOAD PUSH3 0x461BCD PUSH1 0xE5 SHL DUP2 MSTORE PUSH1 0x20 PUSH1 0x4 DUP3 ADD MSTORE PUSH1 0x15 PUSH1 0x24 DUP3 ADD MSTORE PUSH21 0x10D95C9D1A599A58D85D19481B9BDD08199BDD5B99 PUSH1 0x5A SHL PUSH1 0x44 DUP3 ADD MSTORE PUSH1 0x64 SWAP1 REVERT INVALID LOG2 PUSH5 0x6970667358 0x22 SLT KECCAK256 0x27 ORIGIN CALLDATALOAD ADDRESS SELFDESTRUCT CALLDATACOPY LOG0 GASLIMIT 0xD7 SWAP16 SWAP16 0xDC PUSH21 0x63D28D95DAA1697FA0CC6A35D23A193EC86FD96473 PUSH16 0x6C634300081B00330000000000000000 "
        },
        "methodIdentifiers": {
          "addInspector(address)": "7e458492",
          "addRegulator(address)": "ac63f3c7",
          "getCertificate(string)": "ed0f2e75",
          "getInspection(string)": "657e2834",
          "issueCertificate(string,string,uint256,uint256)": "15b06da3",
          "owner()": "8da5cb5b",
          "produceRegistry()": "8b2650b3",
          "recordInspection(string,string,uint256,string,uint8,string,bool,string)": "059599ef",
          "revokeCertificate(string,string)": "bc4f5bad"
        }
      }
    }
  }
}