{
  "contracts/ProduceRegistry.sol": {
    "ProduceRegistry": {
      "abi": [
        {
          "inputs": [],
          "stateMutability": "nonpayable",
          "type": "constructor"
        },
        {
          "anonymous": false,
          "inputs": [
            {
              "indexed": false,
              "internalType": "string",
              "name": "batchId",
              "type": "string"
            },
            {
              "indexed": false,
              "internalType": "string",
              "name": "reason",
              "type": "string"
            }
          ],
          "name": "BatchFlagged",
          "type": "event"
        },
        {
          "anonymous": false,
          "inputs": [
            {
              "indexed": false,
              "internalType": "string",
              "name": "batchId",
              "type": "string"
            },
            {
              "indexed": false,
              "internalType": "string",
              "name": "farmId",
              "type": "string"
            },
            {
              "indexed": false,
              "internalType": "address",
              "name": "registeredBy",
              "type": "address"
            },
            {
              "indexed": false,
              "internalType": "uint256",
              "name": "registeredAt",
              "type": "uint256"
            }
          ],
          "name": "BatchRegistered",
          "type": "event"
        },
        {
          "anonymous": false,
          "inputs": [
            {
              "indexed": false,
              "internalType": "string",
              "name": "batchId",
              "type": "string"
            },
            {
              "indexed": false,
              "internalType": "enum ProduceRegistry.BatchStatus",
              "name": "newStatus",
              "type": "uint8"
            }
          ],
          "name": "BatchStatusChanged",
          "type": "event"
        },
        {
          "inputs": [
            {
              "internalType": "address",
              "name": "account",
              "type": "address"
            }
          ],
          "name": "addRegulator",
          "outputs": [],
          "stateMutability": "nonpayable",
          "type": "function"
        },
        {
          "inputs": [],
          "name": "complianceRegistry",
          "outputs": [
            {
              "internalType": "address",
              "name": "",
              "type": "address"
            }
          ],
          "stateMutability": "view",
          "type": "function"
        },
        {
          "inputs": [
            {
              "internalType": "string",
              "name": "batchId",
              "type": "string"
            },
            {
              "internalType": "string",
              "name": "reason",
              "type": "string"
            }
          ],
          "name": "flagBatch",
          "outputs": [],
          "stateMutability": "nonpayable",
          "type": "function"
        },
        {
          "inputs": [
            {
              "internalType": "string",
              "name": "batchId",
              "type": "string"
            }
          ],
          "name": "getBatch",
          "outputs": [
            {
              "components": [
                {
                  "internalType": "string",
                  "name": "batchId",
                  "type": "string"
                },
                {
                  "internalType": "string",
                  "name": "farmId",
                  "type": "string"
                },
                {
                  "internalType": "string",
                  "name": "cropType",
                  "type": "string"
                },
                {
                  "internalType": "uint256",
                  "name": "quantityKg",
                  "type": "uint256"
                },
                {
                  "internalType": "string",
                  "name": "seedVariety",
                  "type": "string"
                },
                {
                  "internalType": "bool",
                  "name": "isGMOFree",
                  "type": "bool"
                },
                {
                  "internalType": "uint256",
                  "name": "registeredAt",
                  "type": "uint256"
                },
                {
                  "internalType": "enum ProduceRegistry.BatchStatus",
                  "name": "status",
                  "type": "uint8"
                },
                {
                  "internalType": "address",
                  "name": "registeredBy",
                  "type": "address"
                }
              ],
              "internalType": "struct ProduceRegistry.Batch",
              "name": "",
              "type": "tuple"
            }
          ],
          "stateMutability": "view",
          "type": "function"
        },
        {
          "inputs": [
            {
              "internalType": "string",
              "name": "farmId",
              "type": "string"
            }
          ],
          "name": "getBatchesByFarm",
          "outputs": [
            {
              "internalType": "string[]",
              "name": "",
              "type": "string[]"
            }
          ],
          "stateMutability": "view",
          "type": "function"
        },
        {
          "inputs": [],
          "name": "owner",
          "outputs": [
            {
              "internalType": "address",
              "name": "",
              "type": "address"
            }
          ],
          "stateMutability": "view",
          "type": "function"
        },
        {
          "inputs": [
            {
              "internalType": "string",
              "name": "batchId",
              "type": "string"
            },
            {
              "internalType": "string",
              "name": "cropType",
              "type": "string"
            },
            {
              "internalType": "uint256",
              "name": "quantityKg",
              "type": "uint256"
            },
            {
              "internalType": "string",
              "name": "seedVariety",
              "type": "string"
            },
            {
              "internalType": "bool",
              "name": "isGMOFree",
              "type": "bool"
            },
            {
              "internalType": "string",
              "name": "farmId",
              "type": "string"
            }
          ],
          "name": "registerBatch",
          "outputs": [],
          "stateMutability": "nonpayable",
          "type": "function"
        },
        {
          "inputs": [
            {
              "internalType": "address",
              "name": "_complianceRegistry",
              "type": "address"
            }
          ],
          "name": "setComplianceRegistry",
          "outputs": [],
          "stateMutability": "nonpayable",
          "type": "function"
        },
        {
          "inputs": [
            {
              "internalType": "address",
              "name": "_supplyChainLedger",
              "type": "address"
            }
          ],
          "name": "setSupplyChainLedger",
          "outputs": [],
          "stateMutability": "nonpayable",
          "type": "function"
        },
        {
          "inputs": [],
          "name": "supplyChainLedger",
          "outputs": [
            {
              "internalType": "address",
              "name": "",
              "type": "address"
            }
          ],
          "stateMutability": "view",
          "type": "function"
        },
        {
          "inputs": [
            {
              "internalType": "string",
              "name": "batchId",
              "type": "string"
            },
            {
              "internalType": "enum ProduceRegistry.BatchStatus",
              "name": "newStatus",
              "type": "uint8"
            }
          ],
          "name": "updateBatchStatus",
          "outputs": [],
          "stateMutability": "nonpayable",
          "type": "function"
        }
      ],
      "evm": {
        "bytecode": {
          "linkReferences": {},
          "object": "60808060405234602757600080546001600160a01b0319163317905561129b908161002d8239f35b600080fdfe6080604052600436101561001257600080fd5b6000803560e01c806324ccbf7f14610f0e57806353f7d66814610828578063582d3cbb146107ff5780638cf764d1146106f85780638da5cb5b146106d1578063ac63f3c7146105f1578063b50a3c87146104a4578063cac89c5c1461047b578063ef9ea43914610425578063f78e2ff7146102a95763f9ca42741461009657600080fd5b346102a65760203660031901126102a6576004356001600160401b0381116102a4576100c86020913690600401610f64565b9190836101006040516100da8161103b565b6060815260608582015260606040820152826060820152606060808201528260a08201528260c08201528260e0820152015261012c60ff60405185848237848187810160048152030190205416611227565b826040519384928337810160038152030190206040519061014c8261103b565b61015581611183565b825261016360018201611183565b6020830190815261017660028301611183565b916040840192835260038101546060850190815261019660048301611183565b6080860190815260ff6005840154169460a087019515158652600760068501549460c0890195865201549460ff861660e08901996005821015610290575092610248610261936102358c97946101008d9e9d61027c9b996101409f52019a60018060a01b039060081c168b526102226040519e8f9e8f9160208352519161012060208201520190610f96565b90518d8203601f190160408f0152610f96565b90518b8203601f190160608d0152610f96565b915160808a015251888203601f190160a08a0152610f96565b9451151560c08701525160e086015251610100850190610fd7565b516001600160a01b03166101208301520390f35b634e487b7160e01b81526021600452602490fd5b505b80fd5b50346102a65760403660031901126102a6576004356001600160401b0381116102a4576102da903690600401610f64565b906024356001600160401b038111610421576102fa903690600401610f64565b929092338552600760205260ff604086205416156103ea577f91d04e4ae4835b3958e4daab4681aaaecc941a93a266bb0a6e086468253a0034937f12aa50631904eddc2dfd54dee0419e9cda0b0b0a73fc97998932da9864d712209161037760ff6040518688823760208188810160048152030190205416611227565b600760405185878237602081878101600381520301902001600460ff198254161790556103c3604051928392604084526103b560408501888a611162565b918483036020860152611162565b0390a16103dd604051928392604084526040840191611162565b600460208301520390a180f35b60405162461bcd60e51b815260206004820152600f60248201526e2737ba1030903932b3bab630ba37b960891b6044820152606490fd5b8380fd5b50346102a65760203660031901126102a6576004356001600160a01b038116908190036102a45761046060018060a01b038354163314610ffa565b6bffffffffffffffffffffffff60a01b600254161760025580f35b50346102a657806003193601126102a6576001546040516001600160a01b039091168152602090f35b50346102a65760403660031901126102a6576004356001600160401b0381116102a4576104d5903690600401610f64565b90602435916005831015610421576001546001600160a01b0316331480156105dd575b1561058c577f91d04e4ae4835b3958e4daab4681aaaecc941a93a266bb0a6e086468253a00349261054060ff6040518486823760208186810160048152030190205416611227565b6105618160076040518587823760208187810160038152030190200161114a565b61058661057b604051948594604086526040860191611162565b916020840190610fd7565b0390a180f35b60405162461bcd60e51b8152602060048201526024808201527f43616c6c6572206973206e6f7420616e20617574686f72697a656420636f6e746044820152631c9858dd60e21b6064820152608490fd5b506002546001600160a01b031633146104f8565b50346102a65760203660031901126102a6576004356001600160a01b038116908190036102a45761062c60018060a01b038354163314610ffa565b808252600760205260408220805460ff19166001179055600654600160401b8110156106bd57600181016006556006548110156106a957600683527ff652222313e28459528d920b65115c16c04f3efc82aaedc97be59f3f377c0d3f018054600384901b92831b6001600160a01b0390931b191691909117905580f35b634e487b7160e01b83526032600452602483fd5b634e487b7160e01b83526041600452602483fd5b50346102a657806003193601126102a657546040516001600160a01b039091168152602090f35b50346102a65760203660031901126102a6576004356001600160401b0381116102a45761072b6020913690600401610f64565b91908260405193849283378101600581520301902080546001600160401b0381116106bd576040519061076460208260051b0183611057565b80825260208201809385526020852085915b8383106107e257868587604051928392602084019060208552518091526040840160408260051b8601019392905b8282106107b357505050500390f35b919360019193955060206107d28192603f198a82030186528851610f96565b96019201920185949391926107a4565b6001602081926107f185611183565b815201920192019190610776565b50346102a657806003193601126102a6576002546040516001600160a01b039091168152602090f35b50346102a65760c03660031901126102a6576004356001600160401b0381116102a457610859903690600401610f64565b6024356001600160401b03811161042157610878903690600401610f64565b90936064356001600160401b0381116102a457610899903690600401610f64565b608493919335968715158098036104215760a4356001600160401b038111610f0a576108c9903690600401610f64565b95909860ff604051898b82376020818b810160048152030190205416610ece5788936109416109288a956109198e61090f604051996109078b61103b565b36908c611078565b89528c3691611078565b9860208801998a523691611078565b9360408601948552606086019260443584523691611078565b906080850191825260a0850192835260c085019342855260e08601978989528b6020610100890199338b5282604051938492833781016003815203019020965180516001600160401b038111610e57576109a58161099f8b546110be565b8b6110f8565b60208c601f8311600114610e6b57906109d39383610cf5575b50508160011b916000199060031b1c19161790565b87555b60018701905180516001600160401b038111610e5757610a00816109fa85546110be565b856110f8565b60208c601f8311600114610df45790610a2d9383610cf55750508160011b916000199060031b1c19161790565b90555b51805160028701916001600160401b038211610de057610a54826109fa85546110be565b602090601f8311600114610d7d57610a8392918c9183610cf55750508160011b916000199060031b1c19161790565b90555b51600385015551805160048501916001600160401b038211610d6957610ab0826109fa85546110be565b602090601f8311600114610d00579180610ae692600798979695948c92610cf55750508160011b916000199060031b1c19161790565b90555b600583019051151560ff801983541691161790555160068201550191516005811015610ce157610b19908361114a565b518154610100600160a81b03191660089190911b610100600160a81b0316179055604051838582376020818581016004815203019020600160ff19825416179055604051828682376020818481016005815203019020805490600160401b8210156106bd57600182018082558210156106a95782526020909120016001600160401b038311610ccb57610bb683610bb083546110be565b836110f8565b6000601f8411600114610c4257917f8d52bff518e9a98aea88486838babc0cf8c92bc88ad871a6a520df31912a0ba59591610c0c8580610c2696600091610c37575b508160011b916000199060031b1c19161790565b90555b6103b5604051958695608087526080870191611162565b3360408301524260608301520390a1005b905088013538610bf8565b8181526020812090601f198516815b818110610cb35750917f8d52bff518e9a98aea88486838babc0cf8c92bc88ad871a6a520df31912a0ba597939186610c26969410610c99575b5050600185811b019055610c0f565b870135600019600388901b60f8161c191690553880610c8a565b9192602060018192868b013581550194019201610c51565b634e487b7160e01b600052604160045260246000fd5b634e487b7160e01b84526021600452602484fd5b0151905038806109be565b838a52818a209190601f1984168b5b818110610d51575091600193918560079a999897969410610d38575b505050811b019055610ae9565b015160001960f88460031b161c19169055388080610d2b565b92936020600181928786015181550195019301610d0f565b634e487b7160e01b89526041600452602489fd5b838c52818c209190601f1984168d5b818110610dc85750908460019594939210610daf575b505050811b019055610a86565b015160001960f88460031b161c19169055388080610da2565b92936020600181928786015181550195019301610d8c565b634e487b7160e01b8b52604160045260248bfd5b9192601f198416858452828420935b818110610e3f5750908460019594939210610e26575b505050811b019055610a30565b015160001960f88460031b161c19169055388080610e19565b92936020600181928786015181550195019301610e03565b634e487b7160e01b8c52604160045260248cfd5b9192601f1984168b8452828420935b818110610eb65750908460019594939210610e9d575b505050811b0187556109d6565b015160001960f88460031b161c19169055388080610e90565b92936020600181928786015181550195019301610e7a565b60405162461bcd60e51b8152602060048201526014602482015273426174636820616c72656164792065786973747360601b6044820152606490fd5b8480fd5b50346102a65760203660031901126102a6576004356001600160a01b038116908190036102a457610f4960018060a01b038354163314610ffa565b6bffffffffffffffffffffffff60a01b600154161760015580f35b9181601f84011215610f91578235916001600160401b038311610f915760208381860195010111610f9157565b600080fd5b919082519283825260005b848110610fc2575050826000602080949584010152601f8019910116010190565b80602080928401015182828601015201610fa1565b906005821015610fe45752565b634e487b7160e01b600052602160045260246000fd5b1561100157565b60405162461bcd60e51b81526020600482015260126024820152712737ba1031b7b73a3930b1ba1037bbb732b960711b6044820152606490fd5b61012081019081106001600160401b03821117610ccb57604052565b90601f801991011681019081106001600160401b03821117610ccb57604052565b9291926001600160401b038211610ccb57604051916110a1601f8201601f191660200184611057565b829481845281830111610f91578281602093846000960137010152565b90600182811c921680156110ee575b60208310146110d857565b634e487b7160e01b600052602260045260246000fd5b91607f16916110cd565b601f821161110557505050565b6000526020600020906020601f840160051c83019310611140575b601f0160051c01905b818110611134575050565b60008155600101611129565b9091508190611120565b906005811015610fe45760ff80198354169116179055565b908060209392818452848401376000828201840152601f01601f1916010190565b9060405191826000825492611197846110be565b808452936001811690811561120557506001146111be575b506111bc92500383611057565b565b90506000929192526020600020906000915b8183106111e95750509060206111bc92820101386111af565b60209193508060019154838589010152019101909184926111d0565b9050602092506111bc94915060ff191682840152151560051b820101386111af565b1561122e57565b60405162461bcd60e51b815260206004820152600f60248201526e10985d18da081b9bdd08199bdd5b99608a1b6044820152606490fdfea264697066735822122072e9f60d3a209232f6fe1a3fd293271ebde43eae78d9a906b3b940bb118f534064736f6c634300081b0033",
          "opcodes": "PUSH1 0x80 DUP1 PUSH1 0x40 MSTORE CALLVALUE PUSH1 0x27 JUMPI PUSH1 0x0 DUP1 SLOAD PUSH1 0x1 PUSH1 0x1 PUSH1 0xA0 SHL SUB NOT AND CALLER OR SWAP1 SSTORE PUSH2 0x129B SWAP1 DUP2 PUSH2 0x2D DUP3 CODECOPY RETURN JUMPDEST PUSH1 0x0 DUP1 REVERT INVALID PUSH1 0x80 PUSH1 0x40 MSTORE PUSH1 0x4 CALLDATASIZE LT ISZERO PUSH2 0x12 JUMPI PUSH1 0x0 DUP1 REVERT JUMPDEST PUSH1 0x0 DUP1 CALLDATALOAD PUSH1 0xE0 SHR DUP1 PUSH4 0x24CCBF7F EQ PUSH2 0xF0E JUMPI DUP1 PUSH4 0x53F7D668 EQ PUSH2 0x828 JUMPI DUP1 PUSH4 0x582D3CBB EQ PUSH2 0x7FF JUMPI DUP1 PUSH4 0x8CF764D1 EQ PUSH2 0x6F8 JUMPI DUP1 PUSH4 0x8DA5CB5B EQ PUSH2 0x6D1 JUMPI DUP1 PUSH4 0xAC63F3C7 EQ PUSH2 0x5F1 JUMPI DUP1 PUSH4 0xB50A3C87 EQ PUSH2 0x4A4 JUMPI DUP1 PUSH4 0xCAC89C5C EQ PUSH2 0x47B JUMPI DUP1 PUSH4 0xEF9EA439 EQ PUSH2 0x425 JUMPI DUP1 PUSH4 0xF78E2FF7 EQ PUSH2 0x2A9 JUMPI PUSH4 0xF9CA4274 EQ PUSH2 0x96 JUMPI PUSH1 0x0 DUP1 REVERT JUMPDEST CALLVALUE PUSH2 0x2A6 JUMPI PUSH1 0x20 CALLDATASIZE PUSH1 0x3 NOT ADD SLT PUSH2 0x2A6 JUMPI PUSH1 0x4 CALLDATALOAD PUSH1 0x1 PUSH1 0x1 PUSH1 0x40 SHL SUB DUP2 GT PUSH2 0x2A4 JUMPI PUSH2 0xC8 PUSH1 0x20 SWAP2 CALLDATASIZE SWAP1 PUSH1 0x4 ADD PUSH2 0xF64 JUMP JUMPDEST SWAP2 SWAP1 DUP4 PUSH2 0x100 PUSH1 0x40 MLOAD PUSH2 0xDA DUP2 PUSH2 0x103B JUMP JUMPDEST PUSH1 0x60 DUP2 MSTORE PUSH1 0x60 DUP6 DUP3 ADD MSTORE PUSH1 0x60 PUSH1 0x40 DUP3 ADD MSTORE DUP3 PUSH1 0x60 DUP3 ADD MSTORE PUSH1 0x60 PUSH1 0x80 DUP3 ADD MSTORE DUP3 PUSH1 0xA0 DUP3 ADD MSTORE DUP3 PUSH1 0xC0 DUP3 ADD MSTORE DUP3 PUSH1 0xE0 DUP3 ADD MSTORE ADD MSTORE PUSH2 0x12C PUSH1 0xFF PUSH1 0x40 MLOAD DUP6 DUP5 DUP3 CALLDATACOPY DUP5 DUP2 DUP8 DUP2 ADD PUSH1 0x4 DUP2 MSTORE SUB ADD SWAP1 KECCAK256 SLOAD AND PUSH2 0x1227 JUMP JUMPDEST DUP3 PUSH1 0x40 MLOAD SWAP4 DUP5 SWAP3 DUP4 CALLDATACOPY DUP2 ADD PUSH1 0x3 DUP2 MSTORE SUB ADD SWAP1 KECCAK256 PUSH1 0x40 MLOAD SWAP1 PUSH2 0x14C DUP3 PUSH2 0x103B JUMP JUMPDEST PUSH2 0x155 DUP2 PUSH2 0x1183 JUMP JUMPDEST DUP3 MSTORE PUSH2 0x163 PUSH1 0x1 DUP3 ADD PUSH2 0x1183 JUMP JUMPDEST PUSH1 0x20 DUP4 ADD SWAP1 DUP2 MSTORE PUSH2 0x176 PUSH1 0x2 DUP4 ADD PUSH2 0x1183 JUMP JUMPDEST SWAP2 PUSH1 0x40 DUP5 ADD SWAP3 DUP4 MSTORE PUSH1 0x3 DUP2 ADD SLOAD PUSH1 0x60 DUP6 ADD SWAP1 DUP2 MSTORE PUSH2 0x196 PUSH1 0x4 DUP4 ADD PUSH2 0x1183 JUMP JUMPDEST PUSH1 0x80 DUP7 ADD SWAP1 DUP2 MSTORE PUSH1 0xFF PUSH1 0x5 DUP5 ADD SLOAD AND SWAP5 PUSH1 0xA0 DUP8 ADD SWAP6 ISZERO ISZERO DUP7 MSTORE PUSH1 0x7 PUSH1 0x6 DUP6 ADD SLOAD SWAP5 PUSH1 0xC0 DUP10 ADD SWAP6 DUP7 MSTORE ADD SLOAD SWAP5 PUSH1 0xFF DUP7 AND PUSH1 0xE0 DUP10 ADD SWAP10 PUSH1 0x5 DUP3 LT ISZERO PUSH2 0x290 JUMPI POP SWAP3 PUSH2 0x248 PUSH2 0x261 SWAP4 PUSH2 0x235 DUP13 SWAP8 SWAP5 PUSH2 0x100 DUP14 SWAP15 SWAP14 PUSH2 0x27C SWAP12 SWAP10 PUSH2 0x140 SWAP16 MSTORE ADD SWAP11 PUSH1 0x1 DUP1 PUSH1 0xA0 SHL SUB SWAP1 PUSH1 0x8 SHR AND DUP12 MSTORE PUSH2 0x222 PUSH1 0x40 MLOAD SWAP15 DUP16 SWAP15 DUP16 SWAP2 PUSH1 0x20 DUP4 MSTORE MLOAD SWAP2 PUSH2 0x120 PUSH1 0x20 DUP3 ADD MSTORE ADD SWAP1 PUSH2 0xF96 JUMP JUMPDEST SWAP1 MLOAD DUP14 DUP3 SUB PUSH1 0x1F NOT ADD PUSH1 0x40 DUP16 ADD MSTORE PUSH2 0xF96 JUMP JUMPDEST SWAP1 MLOAD DUP12 DUP3 SUB PUSH1 0x1F NOT ADD PUSH1 0x60 DUP14 ADD MSTORE PUSH2 0xF96 JUMP JUMPDEST SWAP2 MLOAD PUSH1 0x80 DUP11 ADD MSTORE MLOAD DUP9 DUP3 SUB PUSH1 0x1F NOT ADD PUSH1 0xA0 DUP11 ADD MSTORE PUSH2 0xF96 JUMP JUMPDEST SWAP5 MLOAD ISZERO ISZERO PUSH1 0xC0 DUP8 ADD MSTORE MLOAD PUSH1 0xE0 DUP7 ADD MSTORE MLOAD PUSH2 0x100 DUP6 ADD SWAP1 PUSH2 0xFD7 JUMP JUMPDEST MLOAD PUSH1 0x1 PUSH1 0x1 PUSH1 0xA0 SHL SUB AND PUSH2 0x120 DUP4 ADD MSTORE SUB SWAP1 RETURN JUMPDEST PUSH4 0x4E487B71 PUSH1 0xE0 SHL DUP2 MSTORE PUSH1 0x21 PUSH1 0x4 MSTORE PUSH1 0x24 SWAP1 REVERT JUMPDEST POP JUMPDEST DUP1 REVERT JUMPDEST POP CALLVALUE PUSH2 0x2A6 JUMPI PUSH1 0x40 CALLDATASIZE PUSH1 0x3 NOT ADD SLT PUSH2 0x2A6 JUMPI PUSH1 0x4 CALLDATALOAD PUSH1 0x1 PUSH1 0x1 PUSH1 0x40 SHL SUB DUP2 GT PUSH2 0x2A4 JUMPI PUSH2 0x2DA SWAP1 CALLDATASIZE SWAP1 PUSH1 0x4 ADD PUSH2 0xF64 JUMP JUMPDEST SWAP1 PUSH1 0x24 CALLDATALOAD PUSH1 0x1 PUSH1 0x1 PUSH1 0x40 SHL SUB DUP2 GT PUSH2 0x421 JUMPI PUSH2 0x2FA SWAP1 CALLDATASIZE SWAP1 PUSH1 0x4 ADD PUSH2 0xF64 JUMP JUMPDEST SWAP3 SWAP1 SWAP3 CALLER DUP6 MSTORE PUSH1 0x7 PUSH1 0x20 MSTORE PUSH1 0xFF PUSH1 0x40 DUP7 KECCAK256 SLOAD AND ISZERO PUSH2 0x3EA JUMPI PUSH32 0x91D04E4AE4835B3958E4DAAB4681AAAECC941A93A266BB0A6E086468253A0034 SWAP4 PUSH32 0x12AA50631904EDDC2DFD54DEE0419E9CDA0B0B0A73FC97998932DA9864D71220 SWAP2 PUSH2 0x377 PUSH1 0xFF PUSH1 0x40 MLOAD DUP7 DUP9 DUP3 CALLDATACOPY PUSH1 0x20 DUP2 DUP9 DUP2 ADD PUSH1 0x4 DUP2 MSTORE SUB ADD SWAP1 KECCAK256 SLOAD AND PUSH2 0x1227 JUMP JUMPDEST PUSH1 0x7 PUSH1 0x40 MLOAD DUP6 DUP8 DUP3 CALLDATACOPY PUSH1 0x20 DUP2 DUP8 DUP2 ADD PUSH1 0x3 DUP2 MSTORE SUB ADD SWAP1 KECCAK256 ADD PUSH1 0x4 PUSH1 0xFF NOT DUP3 SLOAD AND OR SWAP1 SSTORE PUSH2 0x3C3 PUSH1 0x40 MLOAD SWAP3 DUP4 SWAP3 PUSH1 0x40 DUP5 MSTORE PUSH2 0x3B5 PUSH1 0x40 DUP6 ADD DUP9 DUP11 PUSH2 0x1162 JUMP JUMPDEST SWAP2 DUP5 DUP4 SUB PUSH1 0x20 DUP7 ADD MSTORE PUSH2 0x1162 JUMP JUMPDEST SUB SWAP1 LOG1 PUSH2 0x3DD PUSH1 0x40 MLOAD SWAP3 DUP4 SWAP3 PUSH1 0x40 DUP5 MSTORE PUSH1 0x40 DUP5 ADD SWAP2 PUSH2 0x1162 JUMP JUMPDEST PUSH1 0x4 PUSH1 0x20 DUP4 ADD MSTORE SUB SWAP1 LOG1 DUP1 RETURN JUMPDEST PUSH1 0x40 MLOAD PUSH3 0x461BCD PUSH1 0xE5 SHL DUP2 MSTORE PUSH1 0x20 PUSH1 0x4 DUP3 ADD MSTORE PUSH1 0xF PUSH1 0x24 DUP3 ADD MSTORE PUSH15 0x2737BA1030903932B3BAB630BA37B9 PUSH1 0x89 SHL PUSH1 0x44 DUP3 ADD MSTORE PUSH1 0x64 SWAP1 REVERT JUMPDEST DUP4 DUP1 REVERT JUMPDEST POP CALLVALUE PUSH2 0x2A6 JUMPI PUSH1 0x20 CALLDATASIZE PUSH1 0x3 NOT ADD SLT PUSH2 0x2A6 JUMPI PUSH1 0x4 CALLDATALOAD PUSH1 0x1 PUSH1 0x1 PUSH1 0xA0 SHL SUB DUP2 AND SWAP1 DUP2 SWAP1 SUB PUSH2 0x2A4 JUMPI PUSH2 0x460 PUSH1 0x1 DUP1 PUSH1 0xA0 SHL SUB DUP4 SLOAD AND CALLER EQ PUSH2 0xFFA JUMP JUMPDEST PUSH12 0xFFFFFFFFFFFFFFFFFFFFFFFF PUSH1 0xA0 SHL PUSH1 0x2 SLOAD AND OR PUSH1 0x2 SSTORE DUP1 RETURN JUMPDEST POP CALLVALUE PUSH2 0x2A6 JUMPI DUP1 PUSH1 0x3 NOT CALLDATASIZE ADD SLT PUSH2 0x2A6 JUMPI PUSH1 0x1 SLOAD PUSH1 0x40 MLOAD PUSH1 0x1 PUSH1 0x1 PUSH1 0xA0 SHL SUB SWAP1 SWAP2 AND DUP2 MSTORE PUSH1 0x20 SWAP1 RETURN JUMPDEST POP CALLVALUE PUSH2 0x2A6 JUMPI PUSH1 0x40 CALLDATASIZE PUSH1 0x3 NOT ADD SLT PUSH2 0x2A6 JUMPI PUSH1 0x4 CALLDATALOAD PUSH1 0x1 PUSH1 0x1 PUSH1 0x40 SHL SUB DUP2 GT PUSH2 0x2A4 JUMPI PUSH2 0x4D5 SWAP1 CALLDATASIZE SWAP1 PUSH1 0x4 ADD PUSH2 0xF64 JUMP JUMPDEST SWAP1 PUSH1 0x24 CALLDATALOAD SWAP2 PUSH1 0x5 DUP4 LT ISZERO PUSH2 0x421 JUMPI PUSH1 0x1 SLOAD PUSH1 0x1 PUSH1 0x1 PUSH1 0xA0 SHL SUB AND CALLER EQ DUP1 ISZERO PUSH2 0x5DD JUMPI JUMPDEST ISZERO PUSH2 0x58C JUMPI PUSH32 0x91D04E4AE4835B3958E4DAAB4681AAAECC941A93A266BB0A6E086468253A0034 SWAP3 PUSH2 0x540 PUSH1 0xFF PUSH1 0x40 MLOAD DUP5 DUP7 DUP3 CALLDATACOPY PUSH1 0x20 DUP2 DUP7 DUP2 ADD PUSH1 0x4 DUP2 MSTORE SUB ADD SWAP1 KECCAK256 SLOAD AND PUSH2 0x1227 JUMP JUMPDEST PUSH2 0x561 DUP2 PUSH1 0x7 PUSH1 0x40 MLOAD DUP6 DUP8 DUP3 CALLDATACOPY PUSH1 0x20 DUP2 DUP8 DUP2 ADD PUSH1 0x3 DUP2 MSTORE SUB ADD SWAP1 KECCAK256 ADD PUSH2 0x114A JUMP JUMPDEST PUSH2 0x586 PUSH2 0x57B PUSH1 0x40 MLOAD SWAP5 DUP6 SWAP5 PUSH1 0x40 DUP7 MSTORE PUSH1 0x40 DUP7 ADD SWAP2 PUSH2 0x1162 JUMP JUMPDEST SWAP2 PUSH1 0x20 DUP5 ADD SWAP1 PUSH2 0xFD7 JUMP JUMPDEST SUB SWAP1 LOG1 DUP1 RETURN JUMPDEST PUSH1 0x40 MLOAD PUSH3 0x461BCD PUSH1 0xE5 SHL DUP2 MSTORE PUSH1 0x20 PUSH1 0x4 DUP3 ADD MSTORE PUSH1 0x24 DUP1 DUP3 ADD MSTORE PUSH32 0x43616C6C6572206973206E6F7420616E20617574686F72697A656420636F6E74 PUSH1 0x44 DUP3 ADD MSTORE PUSH4 0x1C9858DD PUSH1 0xE2 SHL PUSH1 0x64 DUP3 ADD MSTORE PUSH1 0x84 SWAP1 REVERT JUMPDEST POP PUSH1 0x2 SLOAD PUSH1 0x1 PUSH1 0x1 PUSH1 0xA0 SHL SUB AND CALLER EQ PUSH2 0x4F8 JUMP JUMPDEST POP CALLVALUE PUSH2 0x2A6 JUMPI PUSH1 0x20 CALLDATASIZE PUSH1 0x3 NOT ADD SLT PUSH2 0x2A6 JUMPI PUSH1 0x4 CALLDATALOAD PUSH1 0x1 PUSH1 0x1 PUSH1 0xA0 SHL SUB DUP2 AND SWAP1 DUP2 SWAP1 SUB PUSH2 0x2A4 JUMPI PUSH2 0x62C PUSH1 0x1 DUP1 PUSH1 0xA0 SHL SUB DUP4 SLOAD AND CALLER EQ PUSH2 0xFFA JUMP JUMPDEST DUP1 DUP3 MSTORE PUSH1 0x7 PUSH1 0x20 MSTORE PUSH1 0x40 DUP3 KECCAK256 DUP1 SLOAD PUSH1 0xFF NOT AND PUSH1 0x1 OR SWAP1 SSTORE PUSH1 0x6 SLOAD PUSH1 0x1 PUSH1 0x40 SHL DUP2 LT ISZERO PUSH2 0x6BD JUMPI PUSH1 0x1 DUP2 ADD PUSH1 0x6 SSTORE PUSH1 0x6 SLOAD DUP2 LT ISZERO PUSH2 0x6A9 JUMPI PUSH1 0x6 DUP4 MSTORE PUSH32 0xF652222313E28459528D920B65115C16C04F3EFC82AAEDC97BE59F3F377C0D3F ADD DUP1 SLOAD PUSH1 0x3 DUP5 SWAP1 SHL SWAP3 DUP4 SHL PUSH1 0x1 PUSH1 0x1 PUSH1 0xA0 SHL SUB SWAP1 SWAP4 SHL NOT AND SWAP2 SWAP1 SWAP2 OR SWAP1 SSTORE DUP1 RETURN JUMPDEST PUSH4 0x4E487B71 PUSH1 0xE0 SHL DUP4 MSTORE PUSH1 0x32 PUSH1 0x4 MSTORE PUSH1 0x24 DUP4 REVERT JUMPDEST PUSH4 0x4E487B71 PUSH1 0xE0 SHL DUP4 MSTORE PUSH1 0x41 PUSH1 0x4 MSTORE PUSH1 0x24 DUP4 REVERT JUMPDEST POP CALLVALUE PUSH2 0x2A6 JUMPI DUP1 PUSH1 0x3 NOT CALLDATASIZE ADD SLT PUSH2 0x2A6 JUMPI SLOAD PUSH1 0x40 MLOAD PUSH1 0x1 PUSH1 0x1 PUSH1 0xA0 SHL SUB SWAP1 SWAP2 AND DUP2 MSTORE PUSH1 0x20 SWAP1 RETURN JUMPDEST POP CALLVALUE PUSH2 0x2A6 JUMPI PUSH1 0x20 CALLDATASIZE PUSH1 0x3 NOT ADD SLT PUSH2 0x2A6 JUMPI PUSH1 0x4 CALLDATALOAD PUSH1 0x1 PUSH1 0x1 PUSH1 0x40 SHL SUB DUP2 GT PUSH2 0x2A4 JUMPI PUSH2 0x72B PUSH1 0x20 SWAP2 CALLDATASIZE SWAP1 PUSH1 0x4 ADD PUSH2 0xF64 JUMP JUMPDEST SWAP2 SWAP1 DUP3 PUSH1 0x40 MLOAD SWAP4 DUP5 SWAP3 DUP4 CALLDATACOPY DUP2 ADD PUSH1 0x5 DUP2 MSTORE SUB ADD SWAP1 KECCAK256 DUP1 SLOAD PUSH1 0x1 PUSH1 0x1 PUSH1 0x40 SHL SUB DUP2 GT PUSH2 0x6BD JUMPI PUSH1 0x40 MLOAD SWAP1 PUSH2 0x764 PUSH1 0x20 DUP3 PUSH1 0x5 SHL ADD DUP4 PUSH2 0x1057 JUMP JUMPDEST DUP1 DUP3 MSTORE PUSH1 0x20 DUP3 ADD DUP1 SWAP4 DUP6 MSTORE PUSH1 0x20 DUP6 KECCAK256 DUP6 SWAP2 JUMPDEST DUP4 DUP4 LT PUSH2 0x7E2 JUMPI DUP7 DUP6 DUP8 PUSH1 0x40 MLOAD SWAP3 DUP4 SWAP3 PUSH1 0x20 DUP5 ADD SWAP1 PUSH1 0x20 DUP6 MSTORE MLOAD DUP1 SWAP2 MSTORE PUSH1 0x40 DUP5 ADD PUSH1 0x40 DUP3 PUSH1 0x5 SHL DUP7 ADD ADD SWAP4 SWAP3 SWAP1 JUMPDEST DUP3 DUP3 LT PUSH2 0x7B3 JUMPI POP POP POP POP SUB SWAP1 RETURN JUMPDEST SWAP2 SWAP4 PUSH1 0x1 SWAP2 SWAP4 SWAP6 POP PUSH1 0x20 PUSH2 0x7D2 DUP2 SWAP3 PUSH1 0x3F NOT DUP11 DUP3 SUB ADD DUP7 MSTORE DUP9 MLOAD PUSH2 0xF96 JUMP JUMPDEST SWAP7 ADD SWAP3 ADD SWAP3 ADD DUP6 SWAP5 SWAP4 SWAP2 SWAP3 PUSH2 0x7A4 JUMP JUMPDEST PUSH1 0x1 PUSH1 0x20 DUP2 SWAP3 PUSH2 0x7F1 DUP6 PUSH2 0x1183 JUMP JUMPDEST DUP2 MSTORE ADD SWAP3 ADD SWAP3 ADD SWAP2 SWAP1 PUSH2 0x776 JUMP JUMPDEST POP CALLVALUE PUSH2 0x2A6 JUMPI DUP1 PUSH1 0x3 NOT CALLDATASIZE ADD SLT PUSH2 0x2A6 JUMPI PUSH1 0x2 SLOAD PUSH1 0x40 MLOAD PUSH1 0x1 PUSH1 0x1 PUSH1 0xA0 SHL SUB SWAP1 SWAP2 AND DUP2 MSTORE PUSH1 0x20 SWAP1 RETURN JUMPDEST POP CALLVALUE PUSH2 0x2A6 JUMPI PUSH1 0xC0 CALLDATASIZE PUSH1 0x3 NOT ADD SLT PUSH2 0x2A6 JUMPI PUSH1 0x4 CALLDATALOAD PUSH1 0x1 PUSH1 0x1 PUSH1 0x40 SHL SUB DUP2 GT PUSH2 0x2A4 JUMPI PUSH2 0x859 SWAP1 CALLDATASIZE SWAP1 PUSH1 0x4 ADD PUSH2 0xF64 JUMP JUMPDEST PUSH1 0x24 CALLDATALOAD PUSH1 0x1 PUSH1 0x1 PUSH1 0x40 SHL SUB DUP2 GT PUSH2 0x421 JUMPI PUSH2 0x878 SWAP1 CALLDATASIZE SWAP1 PUSH1 0x4 ADD PUSH2 0xF64 JUMP JUMPDEST SWAP1 SWAP4 PUSH1 0x64 CALLDATALOAD PUSH1 0x1 PUSH1 0x1 PUSH1 0x40 SHL SUB DUP2 GT PUSH2 0x2A4 JUMPI PUSH2 0x899 SWAP1 CALLDATASIZE SWAP1 PUSH1 0x4 ADD PUSH2 0xF64 JUMP JUMPDEST PUSH1 0x84 SWAP4 SWAP2 SWAP4 CALLDATALOAD SWAP7 DUP8 ISZERO ISZERO DUP1 SWAP9 SUB PUSH2 0x421 JUMPI PUSH1 0xA4 CALLDATALOAD PUSH1 0x1 PUSH1 0x1 PUSH1 0x40 SHL SUB DUP2 GT PUSH2 0xF0A JUMPI PUSH2 0x8C9 SWAP1 CALLDATASIZE SWAP1 PUSH1 0x4 ADD PUSH2 0xF64 JUMP JUMPDEST SWAP6 SWAP1 SWAP9 PUSH1 0xFF PUSH1 0x40 MLOAD DUP10 DUP12 DUP3 CALLDATACOPY PUSH1 0x20 DUP2 DUP12 DUP2 ADD PUSH1 0x4 DUP2 MSTORE SUB ADD SWAP1 KECCAK256 SLOAD AND PUSH2 0xECE JUMPI DUP9 SWAP4 PUSH2 0x941 PUSH2 0x928 DUP11 SWAP6 PUSH2 0x919 DUP15 PUSH2 0x90F PUSH1 0x40 MLOAD SWAP10 PUSH2 0x907 DUP12 PUSH2 0x103B JUMP JUMPDEST CALLDATASIZE SWAP1 DUP13 PUSH2 0x1078 JUMP JUMPDEST DUP10 MSTORE DUP13 CALLDATASIZE SWAP2 PUSH2 0x1078 JUMP JUMPDEST SWAP9 PUSH1 0x20 DUP9 ADD SWAP10 DUP11 MSTORE CALLDATASIZE SWAP2 PUSH2 0x1078 JUMP JUMPDEST SWAP4 PUSH1 0x40 DUP7 ADD SWAP5 DUP6 MSTORE PUSH1 0x60 DUP7 ADD SWAP3 PUSH1 0x44 CALLDATALOAD DUP5 MSTORE CALLDATASIZE SWAP2 PUSH2 0x1078 JUMP JUMPDEST SWAP1 PUSH1 0x80 DUP6 ADD SWAP2 DUP3 MSTORE PUSH1 0xA0 DUP6 ADD SWAP3 DUP4 MSTORE PUSH1 0xC0 DUP6 ADD SWAP4 TIMESTAMP DUP6 MSTORE PUSH1 0xE0 DUP7 ADD SWAP8 DUP10 DUP10 MSTORE DUP12 PUSH1 0x20 PUSH2 0x100 DUP10 ADD SWAP10 CALLER DUP12 MSTORE DUP3 PUSH1 0x40 MLOAD SWAP4 DUP5 SWAP3 DUP4 CALLDATACOPY DUP2 ADD PUSH1 0x3 DUP2 MSTORE SUB ADD SWAP1 KECCAK256 SWAP7 MLOAD DUP1 MLOAD PUSH1 0x1 PUSH1 0x1 PUSH1 0x40 SHL SUB DUP2 GT PUSH2 0xE57 JUMPI PUSH2 0x9A5 DUP2 PUSH2 0x99F DUP12 SLOAD PUSH2 0x10BE JUMP JUMPDEST DUP12 PUSH2 0x10F8 JUMP JUMPDEST PUSH1 0x20 DUP13 PUSH1 0x1F DUP4 GT PUSH1 0x1 EQ PUSH2 0xE6B JUMPI SWAP1 PUSH2 0x9D3 SWAP4 DUP4 PUSH2 0xCF5 JUMPI JUMPDEST POP POP DUP2 PUSH1 0x1 SHL SWAP2 PUSH1 0x0 NOT SWAP1 PUSH1 0x3 SHL SHR NOT AND OR SWAP1 JUMP JUMPDEST DUP8 SSTORE JUMPDEST PUSH1 0x1 DUP8 ADD SWAP1 MLOAD DUP1 MLOAD PUSH1 0x1 PUSH1 0x1 PUSH1 0x40 SHL SUB DUP2 GT PUSH2 0xE57 JUMPI PUSH2 0xA00 DUP2 PUSH2 0x9FA DUP6 SLOAD PUSH2 0x10BE JUMP JUMPDEST DUP6 PUSH2 0x10F8 JUMP JUMPDEST PUSH1 0x20 DUP13 PUSH1 0x1F DUP4 GT PUSH1 0x1 EQ PUSH2 0xDF4 JUMPI SWAP1 PUSH2 0xA2D SWAP4 DUP4 PUSH2 0xCF5 JUMPI POP POP DUP2 PUSH1 0x1 SHL SWAP2 PUSH1 0x0 NOT SWAP1 PUSH1 0x3 SHL SHR NOT AND OR SWAP1 JUMP JUMPDEST SWAP1 SSTORE JUMPDEST MLOAD DUP1 MLOAD PUSH1 0x2 DUP8 ADD SWAP2 PUSH1 0x1 PUSH1 0x1 PUSH1 0x40 SHL SUB DUP3 GT PUSH2 0xDE0 JUMPI PUSH2 0xA54 DUP3 PUSH2 0x9FA DUP6 SLOAD PUSH2 0x10BE JUMP JUMPDEST PUSH1 0x20 SWAP1 PUSH1 0x1F DUP4 GT PUSH1 0x1 EQ PUSH2 0xD7D JUMPI PUSH2 0xA83 SWAP3 SWAP2 DUP13 SWAP2 DUP4 PUSH2 0xCF5 JUMPI POP POP DUP2 PUSH1 0x1 SHL SWAP2 PUSH1 0x0 NOT SWAP1 PUSH1 0x3 SHL SHR NOT AND OR SWAP1 JUMP JUMPDEST SWAP1 SSTORE JUMPDEST MLOAD PUSH1 0x3 DUP6 ADD SSTORE MLOAD DUP1 MLOAD PUSH1 0x4 DUP6 ADD SWAP2 PUSH1 0x1 PUSH1 0x1 PUSH1 0x40 SHL SUB DUP3 GT PUSH2 0xD69 JUMPI PUSH2 0xAB0 DUP3 PUSH2 0x9FA DUP6 SLOAD PUSH2 0x10BE JUMP JUMPDEST PUSH1 0x20 SWAP1 PUSH1 0x1F DUP4 GT PUSH1 0x1 EQ PUSH2 0xD00 JUMPI SWAP2 DUP1 PUSH2 0xAE6 SWAP3 PUSH1 0x7 SWAP9 SWAP8 SWAP7 SWAP6 SWAP5 DUP13 SWAP3 PUSH2 0xCF5 JUMPI POP POP DUP2 PUSH1 0x1 SHL SWAP2 PUSH1 0x0 NOT SWAP1 PUSH1 0x3 SHL SHR NOT AND OR SWAP1 JUMP JUMPDEST SWAP1 SSTORE JUMPDEST PUSH1 0x5 DUP4 ADD SWAP1 MLOAD ISZERO ISZERO PUSH1 0xFF DUP1 NOT DUP4 SLOAD AND SWAP2 AND OR SWAP1 SSTORE MLOAD PUSH1 0x6 DUP3 ADD SSTORE ADD SWAP2 MLOAD PUSH1 0x5 DUP2 LT ISZERO PUSH2 0xCE1 JUMPI PUSH2 0xB19 SWAP1 DUP4 PUSH2 0x114A JUMP JUMPDEST MLOAD DUP2 SLOAD PUSH2 0x100 PUSH1 0x1 PUSH1 0xA8 SHL SUB NOT AND PUSH1 0x8 SWAP2 SWAP1 SWAP2 SHL PUSH2 0x100 PUSH1 0x1 PUSH1 0xA8 SHL SUB AND OR SWAP1 SSTORE PUSH1 0x40 MLOAD DUP4 DUP6 DUP3 CALLDATACOPY PUSH1 0x20 DUP2 DUP6 DUP2 ADD PUSH1 0x4 DUP2 MSTORE SUB ADD SWAP1 KECCAK256 PUSH1 0x1 PUSH1 0xFF NOT DUP3 SLOAD AND OR SWAP1 SSTORE PUSH1 0x40 MLOAD DUP3 DUP7 DUP3 CALLDATACOPY PUSH1 0x20 DUP2 DUP5 DUP2 ADD PUSH1 0x5 DUP2 MSTORE SUB ADD SWAP1 KECCAK256 DUP1 SLOAD SWAP1 PUSH1 0x1 PUSH1 0x40 SHL DUP3 LT ISZERO PUSH2 0x6BD JUMPI PUSH1 0x1 DUP3 ADD DUP1 DUP3 SSTORE DUP3 LT ISZERO PUSH2 0x6A9 JUMPI DUP3 MSTORE PUSH1 0x20 SWAP1 SWAP2 KECCAK256 ADD PUSH1 0x1 PUSH1 0x1 PUSH1 0x40 SHL SUB DUP4 GT PUSH2 0xCCB JUMPI PUSH2 0xBB6 DUP4 PUSH2 0xBB0 DUP4 SLOAD PUSH2 0x10BE JUMP JUMPDEST DUP4 PUSH2 0x10F8 JUMP JUMPDEST PUSH1 0x0 PUSH1 0x1F DUP5 GT PUSH1 0x1 EQ PUSH2 0xC42 JUMPI SWAP2 PUSH32 0x8D52BFF518E9A98AEA88486838BABC0CF8C92BC88AD871A6A520DF31912A0BA5 SWAP6 SWAP2 PUSH2 0xC0C DUP6 DUP1 PUSH2 0xC26 SWAP7 PUSH1 0x0 SWAP2 PUSH2 0xC37 JUMPI JUMPDEST POP DUP2 PUSH1 0x1 SHL SWAP2 PUSH1 0x0 NOT SWAP1 PUSH1 0x3 SHL SHR NOT AND OR SWAP1 JUMP JUMPDEST SWAP1 SSTORE JUMPDEST PUSH2 0x3B5 PUSH1 0x40 MLOAD SWAP6 DUP7 SWAP6 PUSH1 0x80 DUP8 MSTORE PUSH1 0x80 DUP8 ADD SWAP2 PUSH2 0x1162 JUMP JUMPDEST CALLER PUSH1 0x40 DUP4 ADD MSTORE TIMESTAMP PUSH1 0x60 DUP4 ADD MSTORE SUB SWAP1 LOG1 STOP JUMPDEST SWAP1 POP DUP9 ADD CALLDATALOAD CODESIZE PUSH2 0xBF8 JUMP JUMPDEST DUP2 DUP2 MSTORE PUSH1 0x20 DUP2 KECCAK256 SWAP1 PUSH1 0x1F NOT DUP6 AND DUP2 JUMPDEST DUP2 DUP2 LT PUSH2 0xCB3 JUMPI POP SWAP2 PUSH32 0x8D52BFF518E9A98AEA88486838BABC0CF8C92BC88AD871A6A520DF31912A0BA5 SWAP8 SWAP4 SWAP2 DUP7 PUSH2 0xC26 SWAP7 SWAP5 LT PUSH2 0xC99 JUMPI JUMPDEST POP POP PUSH1 0x1 DUP6 DUP2 SHL ADD SWAP1 SSTORE PUSH2 0xC0F JUMP JUMPDEST DUP8 ADD CALLDATALOAD PUSH1 0x0 NOT PUSH1 0x3 DUP9 SWAP1 SHL PUSH1 0xF8 AND SHR NOT AND SWAP1 SSTORE CODESIZE DUP1 PUSH2 0xC8A JUMP JUMPDEST SWAP2 SWAP3 PUSH1 0x20 PUSH1 0x1 DUP2 SWAP3 DUP7 DUP12 ADD CALLDATALOAD DUP2 SSTORE ADD SWAP5 ADD SWAP3 ADD PUSH2 0xC51 JUMP JUMPDEST PUSH4 0x4E487B71 PUSH1 0xE0 SHL PUSH1 0x0 MSTORE PUSH1 0x41 PUSH1 0x4 MSTORE PUSH1 0x24 PUSH1 0x0 REVERT JUMPDEST PUSH4 0x4E487B71 PUSH1 0xE0 SHL DUP5 MSTORE PUSH1 0x21 PUSH1 0x4 MSTORE PUSH1 0x24 DUP5 REVERT JUMPDEST ADD MLOAD SWAP1 POP CODESIZE DUP1 PUSH2 0x9BE JUMP JUMPDEST DUP4 DUP11 MSTORE DUP2 DUP11 KECCAK256 SWAP2 SWAP1 PUSH1 0x1F NOT DUP5 AND DUP12 JUMPDEST DUP2 DUP2 LT PUSH2 0xD51 JUMPI POP SWAP2 PUSH1 0x1 SWAP4 SWAP2 DUP6 PUSH1 0x7 SWAP11 SWAP10 SWAP9 SWAP8 SWAP7 SWAP5 LT PUSH2 0xD38 JUMPI JUMPDEST POP POP POP DUP2 SHL ADD SWAP1 SSTORE PUSH2 0xAE9 JUMP JUMPDEST ADD MLOAD PUSH1 0x0 NOT PUSH1 0xF8 DUP5 PUSH1 0x3 SHL AND SHR NOT AND SWAP1 SSTORE CODESIZE DUP1 DUP1 PUSH2 0xD2B JUMP JUMPDEST SWAP3 SWAP4 PUSH1 0x20 PUSH1 0x1 DUP2 SWAP3 DUP8 DUP7 ADD MLOAD DUP2 SSTORE ADD SWAP6 ADD SWAP4 ADD PUSH2 0xD0F JUMP JUMPDEST PUSH4 0x4E487B71 PUSH1 0xE0 SHL DUP10 MSTORE PUSH1 0x41 PUSH1 0x4 MSTORE PUSH1 0x24 DUP10 REVERT JUMPDEST DUP4 DUP13 MSTORE DUP2 DUP13 KECCAK256 SWAP2 SWAP1 PUSH1 0x1F NOT DUP5 AND DUP14 JUMPDEST DUP2 DUP2 LT PUSH2 0xDC8 JUMPI POP SWAP1 DUP5 PUSH1 0x1 SWAP6 SWAP5 SWAP4 SWAP3 LT PUSH2 0xDAF JUMPI JUMPDEST POP POP POP DUP2 SHL ADD SWAP1 SSTORE PUSH2 0xA86 JUMP JUMPDEST ADD MLOAD PUSH1 0x0 NOT PUSH1 0xF8 DUP5 PUSH1 0x3 SHL AND SHR NOT AND SWAP1 SSTORE CODESIZE DUP1 DUP1 PUSH2 0xDA2 JUMP JUMPDEST SWAP3 SWAP4 PUSH1 0x20 PUSH1 0x1 DUP2 SWAP3 DUP8 DUP7 ADD MLOAD DUP2 SSTORE ADD SWAP6 ADD SWAP4 ADD PUSH2 0xD8C JUMP JUMPDEST PUSH4 0x4E487B71 PUSH1 0xE0 SHL DUP12 MSTORE PUSH1 0x41 PUSH1 0x4 MSTORE PUSH1 0x24 DUP12 REVERT JUMPDEST SWAP2 SWAP3 PUSH1 0x1F NOT DUP5 AND DUP6 DUP5 MSTORE DUP3 DUP5 KECCAK256 SWAP4 JUMPDEST DUP2 DUP2 LT PUSH2 0xE3F JUMPI POP SWAP1 DUP5 PUSH1 0x1 SWAP6 SWAP5 SWAP4 SWAP3 LT PUSH2 0xE26 JUMPI JUMPDEST POP POP POP DUP2 SHL ADD SWAP1 SSTORE PUSH2 0xA30 JUMP JUMPDEST ADD MLOAD PUSH1 0x0 NOT PUSH1 0xF8 DUP5 PUSH1 0x3 SHL AND SHR NOT AND SWAP1 SSTORE CODESIZE DUP1 DUP1 PUSH2 0xE19 JUMP JUMPDEST SWAP3 SWAP4 PUSH1 0x20 PUSH1 0x1 DUP2 SWAP3 DUP8 DUP7 ADD MLOAD DUP2 SSTORE ADD SWAP6 ADD SWAP4 ADD PUSH2 0xE03 JUMP JUMPDEST PUSH4 0x4E487B71 PUSH1 0xE0 SHL DUP13 MSTORE PUSH1 0x41 PUSH1 0x4 MSTORE PUSH1 0x24 DUP13 REVERT JUMPDEST SWAP2 SWAP3 PUSH1 0x1F NOT DUP5 AND DUP12 DUP5 MSTORE DUP3 DUP5 KECCAK256 SWAP4 JUMPDEST DUP2 DUP2 LT PUSH2 0xEB6 JUMPI POP SWAP1 DUP5 PUSH1 0x1 SWAP6 SWAP5 SWAP4 SWAP3 LT PUSH2 0xE9D JUMPI JUMPDEST POP POP POP DUP2 SHL ADD DUP8 SSTORE PUSH2 0x9D6 JUMP JUMPDEST ADD MLOAD PUSH1 0x0 NOT PUSH1 0xF8 DUP5 PUSH1 0x3 SHL AND SHR NOT AND SWAP1 SSTORE CODESIZE DUP1 DUP1 PUSH2 0xE90 JUMP JUMPDEST SWAP3 SWAP4 PUSH1 0x20 PUSH1 0x1 DUP2 SWAP3 DUP8 DUP7 ADD MLOAD DUP2 SSTORE ADD SWAP6 ADD SWAP4 ADD PUSH2 0xE7A JUMP JUMPDEST PUSH1 0x40 MLOAD PUSH3 0x461BCD PUSH1 0xE5 SHL DUP2 MSTORE PUSH1 0x20 PUSH1 0x4 DUP3 ADD MSTORE PUSH1 0x14 PUSH1 0x24 DUP3 ADD MSTORE PUSH20 0x426174636820616C726561647920657869737473 PUSH1 0x60 SHL PUSH1 0x44 DUP3 ADD MSTORE PUSH1 0x64 SWAP1 REVERT JUMPDEST DUP5 DUP1 REVERT JUMPDEST POP CALLVALUE PUSH2 0x2A6 JUMPI PUSH1 0x20 CALLDATASIZE PUSH1 0x3 NOT ADD SLT PUSH2 0x2A6 JUMPI PUSH1 0x4 CALLDATALOAD PUSH1 0x1 PUSH1 0x1 PUSH1 0xA0 SHL SUB DUP2 AND SWAP1 DUP2 SWAP1 SUB PUSH2 0x2A4 JUMPI PUSH2 0xF49 PUSH1 0x1 DUP1 PUSH1 0xA0 SHL SUB DUP4 SLOAD AND CALLER EQ PUSH2 0xFFA JUMP JUMPDEST PUSH12 0xFFFFFFFFFFFFFFFFFFFFFFFF PUSH1 0xA0 SHL PUSH1 0x1 SLOAD AND OR PUSH1 0x1 SSTORE DUP1 RETURN JUMPDEST SWAP2 DUP2 PUSH1 0x1F DUP5 ADD SLT ISZERO PUSH2 0xF91 JUMPI DUP3 CALLDATALOAD SWAP2 PUSH1 0x1 PUSH1 0x1 PUSH1 0x40 SHL SUB DUP4 GT PUSH2 0xF91 JUMPI PUSH1 0x20 DUP4 DUP2 DUP7 ADD SWAP6 ADD ADD GT PUSH2 0xF91 JUMPI JUMP JUMPDEST PUSH1 0x0 DUP1 REVERT JUMPDEST SWAP2 SWAP1 DUP3 MLOAD SWAP3 DUP4 DUP3 MSTORE PUSH1 0x0 JUMPDEST DUP5 DUP2 LT PUSH2 0xFC2 JUMPI POP POP DUP3 PUSH1 0x0 PUSH1 0x20 DUP1 SWAP5 SWAP6 DUP5 ADD ADD MSTORE PUSH1 0x1F DUP1 NOT SWAP2 ADD AND ADD ADD SWAP1 JUMP JUMPDEST DUP1 PUSH1 0x20 DUP1 SWAP3 DUP5 ADD ADD MLOAD DUP3 DUP3 DUP7 ADD ADD MSTORE ADD PUSH2 0xFA1 JUMP JUMPDEST SWAP1 PUSH1 0x5 DUP3 LT ISZERO PUSH2 0xFE4 JUMPI MSTORE JUMP JUMPDEST PUSH4 0x4E487B71 PUSH1 0xE0 SHL PUSH1 0x0 MSTORE PUSH1 0x21 PUSH1 0x4 MSTORE PUSH1 0x24 PUSH1 0x0 REVERT JUMPDEST ISZERO PUSH2 0x1001 JUMPI JUMP JUMPDEST PUSH1 0x40 MLOAD PUSH3 0x461BCD PUSH1 0xE5 SHL DUP2 MSTORE PUSH1 0x20 PUSH1 0x4 DUP3 ADD MSTORE PUSH1 0x12 PUSH1 0x24 DUP3 ADD MSTORE PUSH18 0x2737BA1031B7B73A3930B1BA1037BBB732B9 PUSH1 0x71 SHL PUSH1 0x44 DUP3 ADD MSTORE PUSH1 0x64 SWAP1 REVERT JUMPDEST PUSH2 0x120 DUP2 ADD SWAP1 DUP2 LT PUSH1 0x1 PUSH1 0x1 PUSH1 0x40 SHL SUB DUP3 GT OR PUSH2 0xCCB JUMPI PUSH1 0x40 MSTORE JUMP JUMPDEST SWAP1 PUSH1 0x1F DUP1 NOT SWAP2 ADD AND DUP2 ADD SWAP1 DUP2 LT PUSH1 0x1 PUSH1 0x1 PUSH1 0x40 SHL SUB DUP3 GT OR PUSH2 0xCCB JUMPI PUSH1 0x40 MSTORE JUMP JUMPDEST SWAP3 SWAP2 SWAP3 PUSH1 0x1 PUSH1 0x1 PUSH1 0x40 SHL SUB DUP3 GT PUSH2 0xCCB JUMPI PUSH1 0x40 MLOAD SWAP2 PUSH2 0x10A1 PUSH1 0x1F DUP3 ADD PUSH1 0x1F NOT AND PUSH1 0x20 ADD DUP5 PUSH2 0x1057 JUMP JUMPDEST DUP3 SWAP5 DUP2 DUP5 MSTORE DUP2 DUP4 ADD GT PUSH2 0xF91 JUMPI DUP3 DUP2 PUSH1 0x20 SWAP4 DUP5 PUSH1 0x0 SWAP7 ADD CALLDATACOPY ADD ADD MSTORE JUMP JUMPDEST SWAP1 PUSH1 0x1 DUP3 DUP2 SHR SWAP3 AND DUP1 ISZERO PUSH2 0x10EE JUMPI JUMPDEST PUSH1 0x20 DUP4 LT EQ PUSH2 0x10D8 JUMPI JUMP JUMPDEST PUSH4 0x4E487B71 PUSH1 0xE0 SHL PUSH1 0x0 MSTORE PUSH1 0x22 PUSH1 0x4 MSTORE PUSH1 0x24 PUSH1 0x0 REVERT JUMPDEST SWAP2 PUSH1 0x7F AND SWAP2 PUSH2 0x10CD JUMP JUMPDEST PUSH1 0x1F DUP3 GT PUSH2 0x1105 JUMPI POP POP POP JUMP JUMPDEST PUSH1 0x0 MSTORE PUSH1 0x20 PUSH1 0x0 KECCAK256 SWAP1 PUSH1 0x20 PUSH1 0x1F DUP5 ADD PUSH1 0x5 SHR DUP4 ADD SWAP4 LT PUSH2 0x1140 JUMPI JUMPDEST PUSH1 0x1F ADD PUSH1 0x5 SHR ADD SWAP1 JUMPDEST DUP2 DUP2 LT PUSH2 0x1134 JUMPI POP POP JUMP JUMPDEST PUSH1 0x0 DUP2 SSTORE PUSH1 0x1 ADD PUSH2 0x1129 JUMP JUMPDEST SWAP1 SWAP2 POP DUP2 SWAP1 PUSH2 0x1120 JUMP JUMPDEST SWAP1 PUSH1 0x5 DUP2 LT ISZERO PUSH2 0xFE4 JUMPI PUSH1 0xFF DUP1 NOT DUP4 SLOAD AND SWAP2 AND OR SWAP1 SSTORE JUMP JUMPDEST SWAP1 DUP1 PUSH1 0x20 SWAP4 SWAP3 DUP2 DUP5 MSTORE DUP5 DUP5 ADD CALLDATACOPY PUSH1 0x0 DUP3 DUP3 ADD DUP5 ADD MSTORE PUSH1 0x1F ADD PUSH1 0x1F NOT AND ADD ADD SWAP1 JUMP JUMPDEST SWAP1 PUSH1 0x40 MLOAD SWAP2 DUP3 PUSH1 0x0 DUP3 SLOAD SWAP3 PUSH2 0x1197 DUP5 PUSH2 0x10BE JUMP JUMPDEST DUP1 DUP5 MSTORE SWAP4 PUSH1 0x1 DUP2 AND SWAP1 DUP2 ISZERO PUSH2 0x1205 JUMPI POP PUSH1 0x1 EQ PUSH2 0x11BE JUMPI JUMPDEST POP PUSH2 0x11BC SWAP3 POP SUB DUP4 PUSH2 0x1057 JUMP JUMPDEST JUMP JUMPDEST SWAP1 POP PUSH1 0x0 SWAP3 SWAP2 SWAP3 MSTORE PUSH1 0x20 PUSH1 0x0 KECCAK256 SWAP1 PUSH1 0x0 SWAP2 JUMPDEST DUP2 DUP4 LT PUSH2 0x11E9 JUMPI POP POP SWAP1 PUSH1 0x20 PUSH2 0x11BC SWAP3 DUP3 ADD ADD CODESIZE PUSH2 0x11AF JUMP JUMPDEST PUSH1 0x20 SWAP2 SWAP4 POP DUP1 PUSH1 0x1 SWAP2 SLOAD DUP4 DUP6 DUP10 ADD ADD MSTORE ADD SWAP2 ADD SWAP1 SWAP2 DUP5 SWAP3 PUSH2 0x11D0 JUMP JUMPDEST SWAP1 POP PUSH1 0x20 SWAP3 POP PUSH2 0x11BC SWAP5 SWAP2 POP PUSH1 0xFF NOT AND DUP3 DUP5 ADD MSTORE ISZERO ISZERO PUSH1 0x5 SHL DUP3 ADD ADD CODESIZE PUSH2 0x11AF JUMP JUMPDEST ISZERO PUSH2 0x122E JUMPI JUMP JUMPDEST PUSH1 0x40 MLOAD PUSH3 0x461BCD PUSH1 0xE5 SHL DUP2 MSTORE PUSH1 0x20 PUSH1 0x4 DUP3 ADD MSTORE PUSH1 0xF PUSH1 0x24 DUP3 ADD MSTORE PUSH15 0x10985D18DA081B9BDD08199BDD5B99 PUSH1 0x8A SHL PUSH1 0x44 DUP3 ADD MSTORE PUSH1 0x64 SWAP1 REVERT INVALID LOG2 PUSH5 0x6970667358 0x22 SLT KECCAK256 PUSH19 0xE9F60D3A209232F6FE1A3FD293271EBDE43EAE PUSH25 0xD9A906B3B940BB118F534064736F6C634300081B0033000000 "
        },
        "methodIdentifiers": {
          "addRegulator(address)": "ac63f3c7",
          "complianceRegistry()": "cac89c5c",
          "flagBatch(string,string)": "f78e2ff7",
          "getBatch(string)": "f9ca4274",
          "getBatchesByFarm(string)": "8cf764d1",
          "owner()": "8da5cb5b",
          "registerBatch(string,string,uint256,string,bool,string)": "53f7d668",
          "setComplianceRegistry(address)": "24ccbf7f",
          "setSupplyChainLedger(address)": "ef9ea439",
          "supplyChainLedger()": "582d3cbb",
          "updateBatchStatus(string,uint8)": "b50a3c87"
        }
      }
    }
  }
}