{
  "contracts/SupplyChainLedger.sol": {
    "SupplyChainLedger": {
      "abi": [
        {
          "inputs": [
            {
              "internalType": "address",
              "name": "_produceRegistry",
              "type": "address"
            }
          ],
          "stateMutability": "nonpayable",
          "type": "constructor"
        },
        {
          "anonymous": false,
          "inputs": [
            {
              "indexed": false,
              "internalType": "string",
              "name": "batchId",
              "type": "string"
            },
            {
              "indexed": false,
              "internalType": "string",
              "name": "location",
              "type": "string"
            },
            {
              "indexed": false,
              "internalType": "uint256",
              "name": "timestamp",
              "type": "uint256"
            }
          ],
          "name": "BatchDelivered",
          "type": "event"
        },
        {
          "anonymous": false,
          "inputs": [
            {
              "indexed": false,
              "internalType": "string",
              "name": "batchId",
              "type": "string"
            },
            {
              "indexed": false,
              "internalType": "string",
              "name": "fromParty",
              "type": "string"
            },
            {
              "indexed": false,
              "internalType": "string",
              "name": "toParty",
              "type": "string"
            },
            {
              "indexed": false,
              "internalType": "uint256",
              "name": "timestamp",
              "type": "uint256"
            }
          ],
          "name": "HandoffRecorded",
          "type": "event"
        },
        {
          "inputs": [
            {
              "internalType": "string",
              "name": "batchId",
              "type": "string"
            }
          ],
          "name": "getCurrentCustodian",
          "outputs": [
            {
              "internalType": "address",
              "name": "",
              "type": "address"
            }
          ],
          "stateMutability": "view",
          "type": "function"
        },
        {
          "inputs": [
            {
              "internalType": "string",
              "name": "batchId",
              "type": "string"
            }
          ],
          "name": "getHandoffHistory",
          "outputs": [
            {
              "components": [
                {
                  "internalType": "string",
                  "name": "batchId",
                  "type": "string"
                },
                {
                  "internalType": "string",
                  "name": "fromParty",
                  "type": "string"
                },
                {
                  "internalType": "string",
                  "name": "toParty",
                  "type": "string"
                },
                {
                  "internalType": "address",
                  "name": "fromWallet",
                  "type": "address"
                },
                {
                  "internalType": "address",
                  "name": "toWallet",
                  "type": "address"
                },
                {
                  "internalType": "string",
                  "name": "location",
                  "type": "string"
                },
                {
                  "internalType": "string",
                  "name": "conditionOnHandoff",
                  "type": "string"
                },
                {
                  "internalType": "string",
                  "name": "transportMethod",
                  "type": "string"
                },
                {
                  "internalType": "uint256",
                  "name": "quantityKg",
                  "type": "uint256"
                },
                {
                  "internalType": "uint256",
                  "name": "timestamp",
                  "type": "uint256"
                }
              ],
              "internalType": "struct SupplyChainLedger.Handoff[]",
              "name": "",
              "type": "tuple[]"
            }
          ],
          "stateMutability": "view",
          "type": "function"
        },
        {
          "inputs": [],
          "name": "owner",
          "outputs": [
            {
              "internalType": "address",
              "name": "",
              "type": "address"
            }
          ],
          "stateMutability": "view",
          "type": "function"
        },
        {
          "inputs": [],
          "name": "produceRegistry",
          "outputs": [
            {
              "internalType": "contract IProduceRegistry",
              "name": "",
              "type": "address"
            }
          ],
          "stateMutability": "view",
          "type": "function"
        },
        {
          "inputs": [
            {
              "internalType": "string",
              "name": "batchId",
              "type": "string"
            },
            {
              "internalType": "string",
              "name": "location",
              "type": "string"
            }
          ],
          "name": "recordDelivery",
          "outputs": [],
          "stateMutability": "nonpayable",
          "type": "function"
        },
        {
          "inputs": [
            {
              "internalType": "string",
              "name": "batchId",
              "type": "string"
            },
            {
              "internalType": "string",
              "name": "fromParty",
              "type": "string"
            },
            {
              "internalType": "string",
              "name": "toParty",
              "type": "string"
            },
            {
              "internalType": "string",
              "name": "location",
              "type": "string"
            },
            {
              "internalType": "string",
              "name": "condition",
              "type": "string"
            },
            {
              "internalType": "string",
              "name": "transportMethod",
              "type": "string"
            },
            {
              "internalType": "uint256",
              "name": "quantityKg",
              "type": "uint256"
            }
          ],
          "name": "recordHandoff",
          "outputs": [],
          "stateMutability": "nonpayable",
          "type": "function"
        }
      ],
      "evm": {
        "bytecode": {
          "linkReferences": {},
          "object": "608034607e57601f6112fe38819003918201601f19168301916001600160401b03831184841017608357808492602094604052833981010312607e57516001600160a01b03811690819003607e57600080546001600160a01b0319908116331790915560018054909116919091179055604051611264908161009a8239f35b600080fd5b634e487b7160e01b600052604160045260246000fdfe60e0604052600436101561001257600080fd5b60006080526080513560e01c80630e0668c214610fc5578063125825431461045857806326bf36ce1461032d5780638b2650b3146103035780638da5cb5b146102d85763f2a7a4d41461006457600080fd5b346102d25760203660031901126102d2576004356001600160401b0381116102d2576100966020913690600401611023565b604051929183919081908337810160028152030190208054906001600160401b0382116102ba57604051916100d160208260051b01846110c8565b80835260208301809260805152602060805120608051915b83831061020557848660405191829160208301906020845251809152604083019060408160051b8501019291608051905b82821061012957505050500390f35b919360019193955060208091603f19898203018552875190610120806101e36101d16101bf61018b61017961016989516101408a526101408a0190611055565b8a8a01518982038c8b0152611055565b604089015188820360408a0152611055565b8a8060a01b0360608901511660608801528a8060a01b03608089015116608088015260a088015187820360a0890152611055565b60c087015186820360c0880152611055565b60e086015185820360e0870152611055565b936101008101516101008501520151910152960192019201859493919261011a565b600a602060019260405161021881611096565b6102218661118a565b815261022e85870161118a565b8382015261023e6002870161118a565b6040820152600386015460a086901b8690039081166060830152600487015416608082015261026f6005870161118a565b60a08201526102806006870161118a565b60c08201526102916007870161118a565b60e0820152600886015461010082015260098601546101208201528152019201920191906100e9565b634e487b7160e01b6080515260416004526024608051fd5b60805180fd5b346102d2576080513660031901126102d257608051546040516001600160a01b039091168152602090f35b346102d2576080513660031901126102d2576001546040516001600160a01b039091168152602090f35b346102d25760403660031901126102d2576004356001600160401b0381116102d25761035d903690600401611023565b6024356001600160401b0381116102d25761039d7f77a50dd6a92c01b59edfcbde3c8f49a6d8e83bf82f0064674cd52ed15026d712913690600401611023565b6103c6604051928392606084526103b860608501888a611169565b918483036020860152611169565b4260408301520390a16001546001600160a01b031690813b156102d2576040805163b50a3c8760e01b8152600481019190915292839161040b91604484019190611169565b60036024830152608051929082900390829084905af1801561044b57610432575b60805180f35b60805161043e916110c8565b6080516102d2578061042c565b6040513d608051823e3d90fd5b346102d25760e03660031901126102d2576004356001600160401b0381116102d257610488903690600401611023565b9060c0526024356001600160401b0381116102d2576104ab903690600401611023565b91906044356001600160401b0381116102d2576104cc903690600401611023565b93906064356001600160401b0381116102d2576104ed903690600401611023565b95906084356001600160401b0381116102d25761050e903690600401611023565b9060a4356001600160401b0381116102d25761052e903690600401611023565b92909360ff6040518b60c051823760048c82019081528190036020019020541615610fbe576040518a60c05182376003818c019081528190036020019020546001600160a01b03169a5b6040518b60c0518237808c8101600281520360200190209b60405160a05260a0516105a290611096565b8b3660c051916105b1926110e9565b60a051526105c0368b8d6110e9565b60a051602001526105d236898b6110e9565b60a05160400152600160a01b600190031660a051606001523360a0516080015236906105fd926110e9565b60a05160a00152369061060f926110e9565b60a05160c001523690610621926110e9565b60a05160e0015260c43560a05161010001524260a0516101200152855495680100000000000000008710156102ba5760018701808255871015610fa657608051526020608051209560a051518051906001600160401b0382116102ba57819061068f600a85028b015461112f565b601f8111610f4e575b506020906001601f841114610edc5760805192610ed1575b50508160011b916000199060031b1c191617600a82028801555b602060a05101518051906001600160401b0382116102ba5781906106f66001600a86028c01015461112f565b601f8111610e76575b506020906001601f841114610dfe5760805192610df3575b50508160011b916000199060031b1c1916176001600a8302890101555b604060a05101518051906001600160401b0382116102ba5781906107606002600a86028c01015461112f565b601f8111610d98575b506020906001601f841114610d205760805192610d15575b50508160011b916000199060031b1c1916176002600a8302890101555b60a080516060810151600a84028a016003810180546001600160a01b03199081166001600160a01b03948516179091556080840151600490920180549091169190921617905501518051906001600160401b0382116102ba57819061080b6005600a86028c01015461112f565b601f8111610cb7575b506020906001601f841114610c3f5760805192610c34575b50508160011b916000199060031b1c1916176005600a8302890101555b6006600a820288010160c060a05101518051906001600160401b0382116102ba578190610876845461112f565b601f8111610bde575b506020906001601f841114610b765760805192610b6b575b50508160011b916000199060031b1c19161790555b60e060a05101519687516001600160401b0381116102ba576108d66007600a85028401015461112f565b601f8111610b18575b5060206001601f831114610a725791816009926109e8979695947f0356be0c24896f5f7babeb9dd0607ccb661be414dca816c5746f1afd2a0ea5cc9b9c60805192610a67575b50508160011b916000199060031b1c1916176007600a8502830101555b61010060a05101516008600a850283010155600a61012060a051015193020101556040518760c05182376003888201908152819003602001902080546001600160a01b0319163317905560405160c051889082376020818981016004815203019020600160ff198254161790556109da604051958695608087526109cc608088018b60c051611169565b918783036020890152611169565b918483036040860152611169565b4260608301520390a16001546001600160a01b0316803b156102d2576040805163b50a3c8760e01b8152600481019190915260c05190928391610a2f916044840191611169565b60026024830152608051929082900390829084905af1801561044b57610a555760805180f35b608051610a61916110c8565b8061042c565b015190508c80610925565b6007600a8502840101608051528060805120996080515b601f1984168110610b005750827f0356be0c24896f5f7babeb9dd0607ccb661be414dca816c5746f1afd2a0ea5cc9a9b6109e89897969593600193600996601f19811610610ae7575b505050811b016007600a850283010155610942565b015160001960f88460031b161c191690558c8080610ad2565b828201518c556001909b019a60209283019201610a89565b6007600a850284010160805152602060805120601f830160051c81019160208410610b61575b601f0160051c01905b818110610b5457506108df565b6080518155600101610b47565b9091508190610b3e565b015190508a80610897565b60808051869052518281209350601f198516905b818110610bc65750908460019594939210610bad575b505050811b0190556108ac565b015160001960f88460031b161c191690558a8080610ba0565b92936020600181928786015181550195019301610b8a565b9091508360805152602060805120601f840160051c81019160208510610c2a575b90601f859493920160051c01905b818110610c1a575061087f565b6080518155849350600101610c0d565b9091508190610bff565b01519050898061082c565b60808051600a87028d016005019052518281209350601f198516905b818110610c9f5750908460019594939210610c86575b505050811b016005600a830289010155610849565b015160001960f88460031b161c19169055898080610c71565b92936020600181928786015181550195019301610c5b565b9091506005600a85028b010160805152602060805120601f840160051c81019160208510610d0b575b90601f859493920160051c01905b818110610cfb5750610814565b6080518155849350600101610cee565b9091508190610ce0565b015190508980610781565b60808051600a87028d016002019052518281209350601f198516905b818110610d805750908460019594939210610d67575b505050811b016002600a83028901015561079e565b015160001960f88460031b161c19169055898080610d52565b92936020600181928786015181550195019301610d3c565b9091506002600a85028b010160805152602060805120601f840160051c810160208510610dec575b90849392915b601f830160051c82018110610ddc575050610769565b6080518155859450600101610dc6565b5080610dc0565b015190508980610717565b60808051600a87028d016001019052518281209350601f198516905b818110610e5e5750908460019594939210610e45575b505050811b016001600a830289010155610734565b015160001960f88460031b161c19169055898080610e30565b92936020600181928786015181550195019301610e1a565b9091506001600a85028b010160805152602060805120601f840160051c810160208510610eca575b90849392915b601f830160051c82018110610eba5750506106ff565b6080518155859450600101610ea4565b5080610e9e565b0151905089806106b0565b60808051600a87028d019052518281209350601f198516905b818110610f365750908460019594939210610f1d575b505050811b01600a82028801556106ca565b015160001960f88460031b161c19169055898080610f0b565b92936020600181928786015181550195019301610ef5565b909150600a84028a0160805152602060805120601f840160051c810160208510610f9f575b90849392915b601f830160051c82018110610f8f575050610698565b6080518155859450600101610f79565b5080610f73565b634e487b7160e01b6080515260326004526024608051fd5b339a610578565b346102d25760203660031901126102d2576004356001600160401b0381116102d2576020610ff881923690600401611023565b604051929183919081908337600390820190815203019020546040516001600160a01b039091168152f35b9181601f84011215611050578235916001600160401b038311611050576020838186019501011161105057565b600080fd5b919082519283825260005b848110611081575050826000602080949584010152601f8019910116010190565b80602080928401015182828601015201611060565b61014081019081106001600160401b038211176110b257604052565b634e487b7160e01b600052604160045260246000fd5b90601f801991011681019081106001600160401b038211176110b257604052565b9291926001600160401b0382116110b25760405191611112601f8201601f1916602001846110c8565b829481845281830111611050578281602093846000960137010152565b90600182811c9216801561115f575b602083101461114957565b634e487b7160e01b600052602260045260246000fd5b91607f169161113e565b908060209392818452848401376000828201840152601f01601f1916010190565b906040519182600082549261119e8461112f565b808452936001811690811561120c57506001146111c5575b506111c3925003836110c8565b565b90506000929192526020600020906000915b8183106111f05750509060206111c392820101386111b6565b60209193508060019154838589010152019101909184926111d7565b9050602092506111c394915060ff191682840152151560051b820101386111b656fea2646970667358221220152a405d0e9ce404b39b9cae7ada3b08e796b13eca67b95e926aabc8e1c2b8d464736f6c634300081b0033",
          "opcodes": "PUSH1 0x80 CALLVALUE PUSH1 0x7E JUMPI PUSH1 0x1F PUSH2 0x12FE CODESIZE DUP2 SWAP1 SUB SWAP2 DUP3 ADD PUSH1 0x1F NOT AND DUP4 ADD SWAP2 PUSH1 0x1 PUSH1 0x1 PUSH1 0x40 SHL SUB DUP4 GT DUP5 DUP5 LT OR PUSH1 0x83 JUMPI DUP1 DUP5 SWAP3 PUSH1 0x20 SWAP5 PUSH1 0x40 MSTORE DUP4 CODECOPY DUP2 ADD SUB SLT PUSH1 0x7E JUMPI MLOAD PUSH1 0x1 PUSH1 0x1 PUSH1 0xA0 SHL SUB DUP2 AND SWAP1 DUP2 SWAP1 SUB PUSH1 0x7E JUMPI PUSH1 0x0 DUP1 SLOAD PUSH1 0x1 PUSH1 0x1 PUSH1 0xA0 SHL SUB NOT SWAP1 DUP2 AND CALLER OR SWAP1 SWAP2 SSTORE PUSH1 0x1 DUP1 SLOAD SWAP1 SWAP2 AND SWAP2 SWAP1 SWAP2 OR SWAP1 SSTORE PUSH1 0x40 MLOAD PUSH2 0x1264 SWAP1 DUP2 PUSH2 0x9A DUP3 CODECOPY RETURN JUMPDEST PUSH1 0x0 DUP1 REVERT JUMPDEST PUSH4 0x4E487B71 PUSH1 0xE0 SHL PUSH1 0x0 MSTORE PUSH1 0x41 PUSH1 0x4 MSTORE PUSH1 0x24 PUSH1 0x0 REVERT INVALID PUSH1 0xE0 PUSH1 0x40 MSTORE PUSH1 0x4 CALLDATASIZE LT ISZERO PUSH2 0x12 JUMPI PUSH1 0x0 DUP1 REVERT JUMPDEST PUSH1 0x0 PUSH1 0x80 MSTORE PUSH1 0x80 MLOAD CALLDATALOAD PUSH1 0xE0 SHR DUP1 PUSH4 0xE0668C2 EQ PUSH2 0xFC5 JUMPI DUP1 PUSH4 0x12582543 EQ PUSH2 0x458 JUMPI DUP1 PUSH4 0x26BF36CE EQ PUSH2 0x32D JUMPI DUP1 PUSH4 0x8B2650B3 EQ PUSH2 0x303 JUMPI DUP1 PUSH4 0x8DA5CB5B EQ PUSH2 0x2D8 JUMPI PUSH4 0xF2A7A4D4 EQ PUSH2 0x64 JUMPI PUSH1 0x0 DUP1 REVERT JUMPDEST CALLVALUE PUSH2 0x2D2 JUMPI PUSH1 0x20 CALLDATASIZE PUSH1 0x3 NOT ADD SLT PUSH2 0x2D2 JUMPI PUSH1 0x4 CALLDATALOAD PUSH1 0x1 PUSH1 0x1 PUSH1 0x40 SHL SUB DUP2 GT PUSH2 0x2D2 JUMPI PUSH2 0x96 PUSH1 0x20 SWAP2 CALLDATASIZE SWAP1 PUSH1 0x4 ADD PUSH2 0x1023 JUMP JUMPDEST PUSH1 0x40 MLOAD SWAP3 SWAP2 DUP4 SWAP2 SWAP1 DUP2 SWAP1 DUP4 CALLDATACOPY DUP2 ADD PUSH1 0x2 DUP2 MSTORE SUB ADD SWAP1 KECCAK256 DUP1 SLOAD SWAP1 PUSH1 0x1 PUSH1 0x1 PUSH1 0x40 SHL SUB DUP3 GT PUSH2 0x2BA JUMPI PUSH1 0x40 MLOAD SWAP2 PUSH2 0xD1 PUSH1 0x20 DUP3 PUSH1 0x5 SHL ADD DUP5 PUSH2 0x10C8 JUMP JUMPDEST DUP1 DUP4 MSTORE PUSH1 0x20 DUP4 ADD DUP1 SWAP3 PUSH1 0x80 MLOAD MSTORE PUSH1 0x20 PUSH1 0x80 MLOAD KECCAK256 PUSH1 0x80 MLOAD SWAP2 JUMPDEST DUP4 DUP4 LT PUSH2 0x205 JUMPI DUP5 DUP7 PUSH1 0x40 MLOAD SWAP2 DUP3 SWAP2 PUSH1 0x20 DUP4 ADD SWAP1 PUSH1 0x20 DUP5 MSTORE MLOAD DUP1 SWAP2 MSTORE PUSH1 0x40 DUP4 ADD SWAP1 PUSH1 0x40 DUP2 PUSH1 0x5 SHL DUP6 ADD ADD SWAP3 SWAP2 PUSH1 0x80 MLOAD SWAP1 JUMPDEST DUP3 DUP3 LT PUSH2 0x129 JUMPI POP POP POP POP SUB SWAP1 RETURN JUMPDEST SWAP2 SWAP4 PUSH1 0x1 SWAP2 SWAP4 SWAP6 POP PUSH1 0x20 DUP1 SWAP2 PUSH1 0x3F NOT DUP10 DUP3 SUB ADD DUP6 MSTORE DUP8 MLOAD SWAP1 PUSH2 0x120 DUP1 PUSH2 0x1E3 PUSH2 0x1D1 PUSH2 0x1BF PUSH2 0x18B PUSH2 0x179 PUSH2 0x169 DUP10 MLOAD PUSH2 0x140 DUP11 MSTORE PUSH2 0x140 DUP11 ADD SWAP1 PUSH2 0x1055 JUMP JUMPDEST DUP11 DUP11 ADD MLOAD DUP10 DUP3 SUB DUP13 DUP12 ADD MSTORE PUSH2 0x1055 JUMP JUMPDEST PUSH1 0x40 DUP10 ADD MLOAD DUP9 DUP3 SUB PUSH1 0x40 DUP11 ADD MSTORE PUSH2 0x1055 JUMP JUMPDEST DUP11 DUP1 PUSH1 0xA0 SHL SUB PUSH1 0x60 DUP10 ADD MLOAD AND PUSH1 0x60 DUP9 ADD MSTORE DUP11 DUP1 PUSH1 0xA0 SHL SUB PUSH1 0x80 DUP10 ADD MLOAD AND PUSH1 0x80 DUP9 ADD MSTORE PUSH1 0xA0 DUP9 ADD MLOAD DUP8 DUP3 SUB PUSH1 0xA0 DUP10 ADD MSTORE PUSH2 0x1055 JUMP JUMPDEST PUSH1 0xC0 DUP8 ADD MLOAD DUP7 DUP3 SUB PUSH1 0xC0 DUP9 ADD MSTORE PUSH2 0x1055 JUMP JUMPDEST PUSH1 0xE0 DUP7 ADD MLOAD DUP6 DUP3 SUB PUSH1 0xE0 DUP8 ADD MSTORE PUSH2 0x1055 JUMP JUMPDEST SWAP4 PUSH2 0x100 DUP2 ADD MLOAD PUSH2 0x100 DUP6 ADD MSTORE ADD MLOAD SWAP2 ADD MSTORE SWAP7 ADD SWAP3 ADD SWAP3 ADD DUP6 SWAP5 SWAP4 SWAP2 SWAP3 PUSH2 0x11A JUMP JUMPDEST PUSH1 0xA PUSH1 0x20 PUSH1 0x1 SWAP3 PUSH1 0x40 MLOAD PUSH2 0x218 DUP2 PUSH2 0x1096 JUMP JUMPDEST PUSH2 0x221 DUP7 PUSH2 0x118A JUMP JUMPDEST DUP2 MSTORE PUSH2 0x22E DUP6 DUP8 ADD PUSH2 0x118A JUMP JUMPDEST DUP4 DUP3 ADD MSTORE PUSH2 0x23E PUSH1 0x2 DUP8 ADD PUSH2 0x118A JUMP JUMPDEST PUSH1 0x40 DUP3 ADD MSTORE PUSH1 0x3 DUP7 ADD SLOAD PUSH1 0xA0 DUP7 SWAP1 SHL DUP7 SWAP1 SUB SWAP1 DUP2 AND PUSH1 0x60 DUP4 ADD MSTORE PUSH1 0x4 DUP8 ADD SLOAD AND PUSH1 0x80 DUP3 ADD MSTORE PUSH2 0x26F PUSH1 0x5 DUP8 ADD PUSH2 0x118A JUMP JUMPDEST PUSH1 0xA0 DUP3 ADD MSTORE PUSH2 0x280 PUSH1 0x6 DUP8 ADD PUSH2 0x118A JUMP JUMPDEST PUSH1 0xC0 DUP3 ADD MSTORE PUSH2 0x291 PUSH1 0x7 DUP8 ADD PUSH2 0x118A JUMP JUMPDEST PUSH1 0xE0 DUP3 ADD MSTORE PUSH1 0x8 DUP7 ADD SLOAD PUSH2 0x100 DUP3 ADD MSTORE PUSH1 0x9 DUP7 ADD SLOAD PUSH2 0x120 DUP3 ADD MSTORE DUP2 MSTORE ADD SWAP3 ADD SWAP3 ADD SWAP2 SWAP1 PUSH2 0xE9 JUMP JUMPDEST PUSH4 0x4E487B71 PUSH1 0xE0 SHL PUSH1 0x80 MLOAD MSTORE PUSH1 0x41 PUSH1 0x4 MSTORE PUSH1 0x24 PUSH1 0x80 MLOAD REVERT JUMPDEST PUSH1 0x80 MLOAD DUP1 REVERT JUMPDEST CALLVALUE PUSH2 0x2D2 JUMPI PUSH1 0x80 MLOAD CALLDATASIZE PUSH1 0x3 NOT ADD SLT PUSH2 0x2D2 JUMPI PUSH1 0x80 MLOAD SLOAD PUSH1 0x40 MLOAD PUSH1 0x1 PUSH1 0x1 PUSH1 0xA0 SHL SUB SWAP1 SWAP2 AND DUP2 MSTORE PUSH1 0x20 SWAP1 RETURN JUMPDEST CALLVALUE PUSH2 0x2D2 JUMPI PUSH1 0x80 MLOAD CALLDATASIZE PUSH1 0x3 NOT ADD SLT PUSH2 0x2D2 JUMPI PUSH1 0x1 SLOAD PUSH1 0x40 MLOAD PUSH1 0x1 PUSH1 0x1 PUSH1 0xA0 SHL SUB SWAP1 SWAP2 AND DUP2 MSTORE PUSH1 0x20 SWAP1 RETURN JUMPDEST CALLVALUE PUSH2 0x2D2 JUMPI PUSH1 0x40 CALLDATASIZE PUSH1 0x3 NOT ADD SLT PUSH2 0x2D2 JUMPI PUSH1 0x4 CALLDATALOAD PUSH1 0x1 PUSH1 0x1 PUSH1 0x40 SHL SUB DUP2 GT PUSH2 0x2D2 JUMPI PUSH2 0x35D SWAP1 CALLDATASIZE SWAP1 PUSH1 0x4 ADD PUSH2 0x1023 JUMP JUMPDEST PUSH1 0x24 CALLDATALOAD PUSH1 0x1 PUSH1 0x1 PUSH1 0x40 SHL SUB DUP2 GT PUSH2 0x2D2 JUMPI PUSH2 0x39D PUSH32 0x77A50DD6A92C01B59EDFCBDE3C8F49A6D8E83BF82F0064674CD52ED15026D712 SWAP2 CALLDATASIZE SWAP1 PUSH1 0x4 ADD PUSH2 0x1023 JUMP JUMPDEST PUSH2 0x3C6 PUSH1 0x40 MLOAD SWAP3 DUP4 SWAP3 PUSH1 0x60 DUP5 MSTORE PUSH2 0x3B8 PUSH1 0x60 DUP6 ADD DUP9 DUP11 PUSH2 0x1169 JUMP JUMPDEST SWAP2 DUP5 DUP4 SUB PUSH1 0x20 DUP7 ADD MSTORE PUSH2 0x1169 JUMP JUMPDEST TIMESTAMP PUSH1 0x40 DUP4 ADD MSTORE SUB SWAP1 LOG1 PUSH1 0x1 SLOAD PUSH1 0x1 PUSH1 0x1 PUSH1 0xA0 SHL SUB AND SWAP1 DUP2 EXTCODESIZE ISZERO PUSH2 0x2D2 JUMPI PUSH1 0x40 DUP1 MLOAD PUSH4 0xB50A3C87 PUSH1 0xE0 SHL DUP2 MSTORE PUSH1 0x4 DUP2 ADD SWAP2 SWAP1 SWAP2 MSTORE SWAP3 DUP4 SWAP2 PUSH2 0x40B SWAP2 PUSH1 0x44 DUP5 ADD SWAP2 SWAP1 PUSH2 0x1169 JUMP JUMPDEST PUSH1 0x3 PUSH1 0x24 DUP4 ADD MSTORE PUSH1 0x80 MLOAD SWAP3 SWAP1 DUP3 SWAP1 SUB SWAP1 DUP3 SWAP1 DUP5 SWAP1 GAS CALL DUP1 ISZERO PUSH2 0x44B JUMPI PUSH2 0x432 JUMPI JUMPDEST PUSH1 0x80 MLOAD DUP1 RETURN JUMPDEST PUSH1 0x80 MLOAD PUSH2 0x43E SWAP2 PUSH2 0x10C8 JUMP JUMPDEST PUSH1 0x80 MLOAD PUSH2 0x2D2 JUMPI DUP1 PUSH2 0x42C JUMP JUMPDEST PUSH1 0x40 MLOAD RETURNDATASIZE PUSH1 0x80 MLOAD DUP3 RETURNDATACOPY RETURNDATASIZE SWAP1 REVERT JUMPDEST CALLVALUE PUSH2 0x2D2 JUMPI PUSH1 0xE0 CALLDATASIZE PUSH1 0x3 NOT ADD SLT PUSH2 0x2D2 JUMPI PUSH1 0x4 CALLDATALOAD PUSH1 0x1 PUSH1 0x1 PUSH1 0x40 SHL SUB DUP2 GT PUSH2 0x2D2 JUMPI PUSH2 0x488 SWAP1 CALLDATASIZE SWAP1 PUSH1 0x4 ADD PUSH2 0x1023 JUMP JUMPDEST SWAP1 PUSH1 0xC0 MSTORE PUSH1 0x24 CALLDATALOAD PUSH1 0x1 PUSH1 0x1 PUSH1 0x40 SHL SUB DUP2 GT PUSH2 0x2D2 JUMPI PUSH2 0x4AB SWAP1 CALLDATASIZE SWAP1 PUSH1 0x4 ADD PUSH2 0x1023 JUMP JUMPDEST SWAP2 SWAP1 PUSH1 0x44 CALLDATALOAD PUSH1 0x1 PUSH1 0x1 PUSH1 0x40 SHL SUB DUP2 GT PUSH2 0x2D2 JUMPI PUSH2 0x4CC SWAP1 CALLDATASIZE SWAP1 PUSH1 0x4 ADD PUSH2 0x1023 JUMP JUMPDEST SWAP4 SWAP1 PUSH1 0x64 CALLDATALOAD PUSH1 0x1 PUSH1 0x1 PUSH1 0x40 SHL SUB DUP2 GT PUSH2 0x2D2 JUMPI PUSH2 0x4ED SWAP1 CALLDATASIZE SWAP1 PUSH1 0x4 ADD PUSH2 0x1023 JUMP JUMPDEST SWAP6 SWAP1 PUSH1 0x84 CALLDATALOAD PUSH1 0x1 PUSH1 0x1 PUSH1 0x40 SHL SUB DUP2 GT PUSH2 0x2D2 JUMPI PUSH2 0x50E SWAP1 CALLDATASIZE SWAP1 PUSH1 0x4 ADD PUSH2 0x1023 JUMP JUMPDEST SWAP1 PUSH1 0xA4 CALLDATALOAD PUSH1 0x1 PUSH1 0x1 PUSH1 0x40 SHL SUB DUP2 GT PUSH2 0x2D2 JUMPI PUSH2 0x52E SWAP1 CALLDATASIZE SWAP1 PUSH1 0x4 ADD PUSH2 0x1023 JUMP JUMPDEST SWAP3 SWAP1 SWAP4 PUSH1 0xFF PUSH1 0x40 MLOAD DUP12 PUSH1 0xC0 MLOAD DUP3 CALLDATACOPY PUSH1 0x4 DUP13 DUP3 ADD SWAP1 DUP2 MSTORE DUP2 SWAP1 SUB PUSH1 0x20 ADD SWAP1 KECCAK256 SLOAD AND ISZERO PUSH2 0xFBE JUMPI PUSH1 0x40 MLOAD DUP11 PUSH1 0xC0 MLOAD DUP3 CALLDATACOPY PUSH1 0x3 DUP2 DUP13 ADD SWAP1 DUP2 MSTORE DUP2 SWAP1 SUB PUSH1 0x20 ADD SWAP1 KECCAK256 SLOAD PUSH1 0x1 PUSH1 0x1 PUSH1 0xA0 SHL SUB AND SWAP11 JUMPDEST PUSH1 0x40 MLOAD DUP12 PUSH1 0xC0 MLOAD DUP3 CALLDATACOPY DUP1 DUP13 DUP2 ADD PUSH1 0x2 DUP2 MSTORE SUB PUSH1 0x20 ADD SWAP1 KECCAK256 SWAP12 PUSH1 0x40 MLOAD PUSH1 0xA0 MSTORE PUSH1 0xA0 MLOAD PUSH2 0x5A2 SWAP1 PUSH2 0x1096 JUMP JUMPDEST DUP12 CALLDATASIZE PUSH1 0xC0 MLOAD SWAP2 PUSH2 0x5B1 SWAP3 PUSH2 0x10E9 JUMP JUMPDEST PUSH1 0xA0 MLOAD MSTORE PUSH2 0x5C0 CALLDATASIZE DUP12 DUP14 PUSH2 0x10E9 JUMP JUMPDEST PUSH1 0xA0 MLOAD PUSH1 0x20 ADD MSTORE PUSH2 0x5D2 CALLDATASIZE DUP10 DUP12 PUSH2 0x10E9 JUMP JUMPDEST PUSH1 0xA0 MLOAD PUSH1 0x40 ADD MSTORE PUSH1 0x1 PUSH1 0xA0 SHL PUSH1 0x1 SWAP1 SUB AND PUSH1 0xA0 MLOAD PUSH1 0x60 ADD MSTORE CALLER PUSH1 0xA0 MLOAD PUSH1 0x80 ADD MSTORE CALLDATASIZE SWAP1 PUSH2 0x5FD SWAP3 PUSH2 0x10E9 JUMP JUMPDEST PUSH1 0xA0 MLOAD PUSH1 0xA0 ADD MSTORE CALLDATASIZE SWAP1 PUSH2 0x60F SWAP3 PUSH2 0x10E9 JUMP JUMPDEST PUSH1 0xA0 MLOAD PUSH1 0xC0 ADD MSTORE CALLDATASIZE SWAP1 PUSH2 0x621 SWAP3 PUSH2 0x10E9 JUMP JUMPDEST PUSH1 0xA0 MLOAD PUSH1 0xE0 ADD MSTORE PUSH1 0xC4 CALLDATALOAD PUSH1 0xA0 MLOAD PUSH2 0x100 ADD MSTORE TIMESTAMP PUSH1 0xA0 MLOAD PUSH2 0x120 ADD MSTORE DUP6 SLOAD SWAP6 PUSH9 0x10000000000000000 DUP8 LT ISZERO PUSH2 0x2BA JUMPI PUSH1 0x1 DUP8 ADD DUP1 DUP3 SSTORE DUP8 LT ISZERO PUSH2 0xFA6 JUMPI PUSH1 0x80 MLOAD MSTORE PUSH1 0x20 PUSH1 0x80 MLOAD KECCAK256 SWAP6 PUSH1 0xA0 MLOAD MLOAD DUP1 MLOAD SWAP1 PUSH1 0x1 PUSH1 0x1 PUSH1 0x40 SHL SUB DUP3 GT PUSH2 0x2BA JUMPI DUP2 SWAP1 PUSH2 0x68F PUSH1 0xA DUP6 MUL DUP12 ADD SLOAD PUSH2 0x112F JUMP JUMPDEST PUSH1 0x1F DUP2 GT PUSH2 0xF4E JUMPI JUMPDEST POP PUSH1 0x20 SWAP1 PUSH1 0x1 PUSH1 0x1F DUP5 GT EQ PUSH2 0xEDC JUMPI PUSH1 0x80 MLOAD SWAP3 PUSH2 0xED1 JUMPI JUMPDEST POP POP DUP2 PUSH1 0x1 SHL SWAP2 PUSH1 0x0 NOT SWAP1 PUSH1 0x3 SHL SHR NOT AND OR PUSH1 0xA DUP3 MUL DUP9 ADD SSTORE JUMPDEST PUSH1 0x20 PUSH1 0xA0 MLOAD ADD MLOAD DUP1 MLOAD SWAP1 PUSH1 0x1 PUSH1 0x1 PUSH1 0x40 SHL SUB DUP3 GT PUSH2 0x2BA JUMPI DUP2 SWAP1 PUSH2 0x6F6 PUSH1 0x1 PUSH1 0xA DUP7 MUL DUP13 ADD ADD SLOAD PUSH2 0x112F JUMP JUMPDEST PUSH1 0x1F DUP2 GT PUSH2 0xE76 JUMPI JUMPDEST POP PUSH1 0x20 SWAP1 PUSH1 0x1 PUSH1 0x1F DUP5 GT EQ PUSH2 0xDFE JUMPI PUSH1 0x80 MLOAD SWAP3 PUSH2 0xDF3 JUMPI JUMPDEST POP POP DUP2 PUSH1 0x1 SHL SWAP2 PUSH1 0x0 NOT SWAP1 PUSH1 0x3 SHL SHR NOT AND OR PUSH1 0x1 PUSH1 0xA DUP4 MUL DUP10 ADD ADD SSTORE JUMPDEST PUSH1 0x40 PUSH1 0xA0 MLOAD ADD MLOAD DUP1 MLOAD SWAP1 PUSH1 0x1 PUSH1 0x1 PUSH1 0x40 SHL SUB DUP3 GT PUSH2 0x2BA JUMPI DUP2 SWAP1 PUSH2 0x760 PUSH1 0x2 PUSH1 0xA DUP7 MUL DUP13 ADD ADD SLOAD PUSH2 0x112F JUMP JUMPDEST PUSH1 0x1F DUP2 GT PUSH2 0xD98 JUMPI JUMPDEST POP PUSH1 0x20 SWAP1 PUSH1 0x1 PUSH1 0x1F DUP5 GT EQ PUSH2 0xD20 JUMPI PUSH1 0x80 MLOAD SWAP3 PUSH2 0xD15 JUMPI JUMPDEST POP POP DUP2 PUSH1 0x1 SHL SWAP2 PUSH1 0x0 NOT SWAP1 PUSH1 0x3 SHL SHR NOT AND OR PUSH1 0x2 PUSH1 0xA DUP4 MUL DUP10 ADD ADD SSTORE JUMPDEST PUSH1 0xA0 DUP1 MLOAD PUSH1 0x60 DUP2 ADD MLOAD PUSH1 0xA DUP5 MUL DUP11 ADD PUSH1 0x3 DUP2 ADD DUP1 SLOAD PUSH1 0x1 PUSH1 0x1 PUSH1 0xA0 SHL SUB NOT SWAP1 DUP2 AND PUSH1 0x1 PUSH1 0x1 PUSH1 0xA0 SHL SUB SWAP5 DUP6 AND OR SWAP1 SWAP2 SSTORE PUSH1 0x80 DUP5 ADD MLOAD PUSH1 0x4 SWAP1 SWAP3 ADD DUP1 SLOAD SWAP1 SWAP2 AND SWAP2 SWAP1 SWAP3 AND OR SWAP1 SSTORE ADD MLOAD DUP1 MLOAD SWAP1 PUSH1 0x1 PUSH1 0x1 PUSH1 0x40 SHL SUB DUP3 GT PUSH2 0x2BA JUMPI DUP2 SWAP1 PUSH2 0x80B PUSH1 0x5 PUSH1 0xA DUP7 MUL DUP13 ADD ADD SLOAD PUSH2 0x112F JUMP JUMPDEST PUSH1 0x1F DUP2 GT PUSH2 0xCB7 JUMPI JUMPDEST POP PUSH1 0x20 SWAP1 PUSH1 0x1 PUSH1 0x1F DUP5 GT EQ PUSH2 0xC3F JUMPI PUSH1 0x80 MLOAD SWAP3 PUSH2 0xC34 JUMPI JUMPDEST POP POP DUP2 PUSH1 0x1 SHL SWAP2 PUSH1 0x0 NOT SWAP1 PUSH1 0x3 SHL SHR NOT AND OR PUSH1 0x5 PUSH1 0xA DUP4 MUL DUP10 ADD ADD SSTORE JUMPDEST PUSH1 0x6 PUSH1 0xA DUP3 MUL DUP9 ADD ADD PUSH1 0xC0 PUSH1 0xA0 MLOAD ADD MLOAD DUP1 MLOAD SWAP1 PUSH1 0x1 PUSH1 0x1 PUSH1 0x40 SHL SUB DUP3 GT PUSH2 0x2BA JUMPI DUP2 SWAP1 PUSH2 0x876 DUP5 SLOAD PUSH2 0x112F JUMP JUMPDEST PUSH1 0x1F DUP2 GT PUSH2 0xBDE JUMPI JUMPDEST POP PUSH1 0x20 SWAP1 PUSH1 0x1 PUSH1 0x1F DUP5 GT EQ PUSH2 0xB76 JUMPI PUSH1 0x80 MLOAD SWAP3 PUSH2 0xB6B JUMPI JUMPDEST POP POP DUP2 PUSH1 0x1 SHL SWAP2 PUSH1 0x0 NOT SWAP1 PUSH1 0x3 SHL SHR NOT AND OR SWAP1 SSTORE JUMPDEST PUSH1 0xE0 PUSH1 0xA0 MLOAD ADD MLOAD SWAP7 DUP8 MLOAD PUSH1 0x1 PUSH1 0x1 PUSH1 0x40 SHL SUB DUP2 GT PUSH2 0x2BA JUMPI PUSH2 0x8D6 PUSH1 0x7 PUSH1 0xA DUP6 MUL DUP5 ADD ADD SLOAD PUSH2 0x112F JUMP JUMPDEST PUSH1 0x1F DUP2 GT PUSH2 0xB18 JUMPI JUMPDEST POP PUSH1 0x20 PUSH1 0x1 PUSH1 0x1F DUP4 GT EQ PUSH2 0xA72 JUMPI SWAP2 DUP2 PUSH1 0x9 SWAP3 PUSH2 0x9E8 SWAP8 SWAP7 SWAP6 SWAP5 PUSH32 0x356BE0C24896F5F7BABEB9DD0607CCB661BE414DCA816C5746F1AFD2A0EA5CC SWAP12 SWAP13 PUSH1 0x80 MLOAD SWAP3 PUSH2 0xA67 JUMPI JUMPDEST POP POP DUP2 PUSH1 0x1 SHL SWAP2 PUSH1 0x0 NOT SWAP1 PUSH1 0x3 SHL SHR NOT AND OR PUSH1 0x7 PUSH1 0xA DUP6 MUL DUP4 ADD ADD SSTORE JUMPDEST PUSH2 0x100 PUSH1 0xA0 MLOAD ADD MLOAD PUSH1 0x8 PUSH1 0xA DUP6 MUL DUP4 ADD ADD SSTORE PUSH1 0xA PUSH2 0x120 PUSH1 0xA0 MLOAD ADD MLOAD SWAP4 MUL ADD ADD SSTORE PUSH1 0x40 MLOAD DUP8 PUSH1 0xC0 MLOAD DUP3 CALLDATACOPY PUSH1 0x3 DUP9 DUP3 ADD SWAP1 DUP2 MSTORE DUP2 SWAP1 SUB PUSH1 0x20 ADD SWAP1 KECCAK256 DUP1 SLOAD PUSH1 0x1 PUSH1 0x1 PUSH1 0xA0 SHL SUB NOT AND CALLER OR SWAP1 SSTORE PUSH1 0x40 MLOAD PUSH1 0xC0 MLOAD DUP9 SWAP1 DUP3 CALLDATACOPY PUSH1 0x20 DUP2 DUP10 DUP2 ADD PUSH1 0x4 DUP2 MSTORE SUB ADD SWAP1 KECCAK256 PUSH1 0x1 PUSH1 0xFF NOT DUP3 SLOAD AND OR SWAP1 SSTORE PUSH2 0x9DA PUSH1 0x40 MLOAD SWAP6 DUP7 SWAP6 PUSH1 0x80 DUP8 MSTORE PUSH2 0x9CC PUSH1 0x80 DUP9 ADD DUP12 PUSH1 0xC0 MLOAD PUSH2 0x1169 JUMP JUMPDEST SWAP2 DUP8 DUP4 SUB PUSH1 0x20 DUP10 ADD MSTORE PUSH2 0x1169 JUMP JUMPDEST SWAP2 DUP5 DUP4 SUB PUSH1 0x40 DUP7 ADD MSTORE PUSH2 0x1169 JUMP JUMPDEST TIMESTAMP PUSH1 0x60 DUP4 ADD MSTORE SUB SWAP1 LOG1 PUSH1 0x1 SLOAD PUSH1 0x1 PUSH1 0x1 PUSH1 0xA0 SHL SUB AND DUP1 EXTCODESIZE ISZERO PUSH2 0x2D2 JUMPI PUSH1 0x40 DUP1 MLOAD PUSH4 0xB50A3C87 PUSH1 0xE0 SHL DUP2 MSTORE PUSH1 0x4 DUP2 ADD SWAP2 SWAP1 SWAP2 MSTORE PUSH1 0xC0 MLOAD SWAP1 SWAP3 DUP4 SWAP2 PUSH2 0xA2F SWAP2 PUSH1 0x44 DUP5 ADD SWAP2 PUSH2 0x1169 JUMP JUMPDEST PUSH1 0x2 PUSH1 0x24 DUP4 ADD MSTORE PUSH1 0x80 MLOAD SWAP3 SWAP1 DUP3 SWAP1 SUB SWAP1 DUP3 SWAP1 DUP5 SWAP1 GAS CALL DUP1 ISZERO PUSH2 0x44B JUMPI PUSH2 0xA55 JUMPI PUSH1 0x80 MLOAD DUP1 RETURN JUMPDEST PUSH1 0x80 MLOAD PUSH2 0xA61 SWAP2 PUSH2 0x10C8 JUMP JUMPDEST DUP1 PUSH2 0x42C JUMP JUMPDEST ADD MLOAD SWAP1 POP DUP13 DUP1 PUSH2 0x925 JUMP JUMPDEST PUSH1 0x7 PUSH1 0xA DUP6 MUL DUP5 ADD ADD PUSH1 0x80 MLOAD MSTORE DUP1 PUSH1 0x80 MLOAD KECCAK256 SWAP10 PUSH1 0x80 MLOAD JUMPDEST PUSH1 0x1F NOT DUP5 AND DUP2 LT PUSH2 0xB00 JUMPI POP DUP3 PUSH32 0x356BE0C24896F5F7BABEB9DD0607CCB661BE414DCA816C5746F1AFD2A0EA5CC SWAP11 SWAP12 PUSH2 0x9E8 SWAP9 SWAP8 SWAP7 SWAP6 SWAP4 PUSH1 0x1 SWAP4 PUSH1 0x9 SWAP7 PUSH1 0x1F NOT DUP2 AND LT PUSH2 0xAE7 JUMPI JUMPDEST POP POP POP DUP2 SHL ADD PUSH1 0x7 PUSH1 0xA DUP6 MUL DUP4 ADD ADD SSTORE PUSH2 0x942 JUMP JUMPDEST ADD MLOAD PUSH1 0x0 NOT PUSH1 0xF8 DUP5 PUSH1 0x3 SHL AND SHR NOT AND SWAP1 SSTORE DUP13 DUP1 DUP1 PUSH2 0xAD2 JUMP JUMPDEST DUP3 DUP3 ADD MLOAD DUP13 SSTORE PUSH1 0x1 SWAP1 SWAP12 ADD SWAP11 PUSH1 0x20 SWAP3 DUP4 ADD SWAP3 ADD PUSH2 0xA89 JUMP JUMPDEST PUSH1 0x7 PUSH1 0xA DUP6 MUL DUP5 ADD ADD PUSH1 0x80 MLOAD MSTORE PUSH1 0x20 PUSH1 0x80 MLOAD KECCAK256 PUSH1 0x1F DUP4 ADD PUSH1 0x5 SHR DUP2 ADD SWAP2 PUSH1 0x20 DUP5 LT PUSH2 0xB61 JUMPI JUMPDEST PUSH1 0x1F ADD PUSH1 0x5 SHR ADD SWAP1 JUMPDEST DUP2 DUP2 LT PUSH2 0xB54 JUMPI POP PUSH2 0x8DF JUMP JUMPDEST PUSH1 0x80 MLOAD DUP2 SSTORE PUSH1 0x1 ADD PUSH2 0xB47 JUMP JUMPDEST SWAP1 SWAP2 POP DUP2 SWAP1 PUSH2 0xB3E JUMP JUMPDEST ADD MLOAD SWAP1 POP DUP11 DUP1 PUSH2 0x897 JUMP JUMPDEST PUSH1 0x80 DUP1 MLOAD DUP7 SWAP1 MSTORE MLOAD DUP3 DUP2 KECCAK256 SWAP4 POP PUSH1 0x1F NOT DUP6 AND SWAP1 JUMPDEST DUP2 DUP2 LT PUSH2 0xBC6 JUMPI POP SWAP1 DUP5 PUSH1 0x1 SWAP6 SWAP5 SWAP4 SWAP3 LT PUSH2 0xBAD JUMPI JUMPDEST POP POP POP DUP2 SHL ADD SWAP1 SSTORE PUSH2 0x8AC JUMP JUMPDEST ADD MLOAD PUSH1 0x0 NOT PUSH1 0xF8 DUP5 PUSH1 0x3 SHL AND SHR NOT AND SWAP1 SSTORE DUP11 DUP1 DUP1 PUSH2 0xBA0 JUMP JUMPDEST SWAP3 SWAP4 PUSH1 0x20 PUSH1 0x1 DUP2 SWAP3 DUP8 DUP7 ADD MLOAD DUP2 SSTORE ADD SWAP6 ADD SWAP4 ADD PUSH2 0xB8A JUMP JUMPDEST SWAP1 SWAP2 POP DUP4 PUSH1 0x80 MLOAD MSTORE PUSH1 0x20 PUSH1 0x80 MLOAD KECCAK256 PUSH1 0x1F DUP5 ADD PUSH1 0x5 SHR DUP2 ADD SWAP2 PUSH1 0x20 DUP6 LT PUSH2 0xC2A JUMPI JUMPDEST SWAP1 PUSH1 0x1F DUP6 SWAP5 SWAP4 SWAP3 ADD PUSH1 0x5 SHR ADD SWAP1 JUMPDEST DUP2 DUP2 LT PUSH2 0xC1A JUMPI POP PUSH2 0x87F JUMP JUMPDEST PUSH1 0x80 MLOAD DUP2 SSTORE DUP5 SWAP4 POP PUSH1 0x1 ADD PUSH2 0xC0D JUMP JUMPDEST SWAP1 SWAP2 POP DUP2 SWAP1 PUSH2 0xBFF JUMP JUMPDEST ADD MLOAD SWAP1 POP DUP10 DUP1 PUSH2 0x82C JUMP JUMPDEST PUSH1 0x80 DUP1 MLOAD PUSH1 0xA DUP8 MUL DUP14 ADD PUSH1 0x5 ADD SWAP1 MSTORE MLOAD DUP3 DUP2 KECCAK256 SWAP4 POP PUSH1 0x1F NOT DUP6 AND SWAP1 JUMPDEST DUP2 DUP2 LT PUSH2 0xC9F JUMPI POP SWAP1 DUP5 PUSH1 0x1 SWAP6 SWAP5 SWAP4 SWAP3 LT PUSH2 0xC86 JUMPI JUMPDEST POP POP POP DUP2 SHL ADD PUSH1 0x5 PUSH1 0xA DUP4 MUL DUP10 ADD ADD SSTORE PUSH2 0x849 JUMP JUMPDEST ADD MLOAD PUSH1 0x0 NOT PUSH1 0xF8 DUP5 PUSH1 0x3 SHL AND SHR NOT AND SWAP1 SSTORE DUP10 DUP1 DUP1 PUSH2 0xC71 JUMP JUMPDEST SWAP3 SWAP4 PUSH1 0x20 PUSH1 0x1 DUP2 SWAP3 DUP8 DUP7 ADD MLOAD DUP2 SSTORE ADD SWAP6 ADD SWAP4 ADD PUSH2 0xC5B JUMP JUMPDEST SWAP1 SWAP2 POP PUSH1 0x5 PUSH1 0xA DUP6 MUL DUP12 ADD ADD PUSH1 0x80 MLOAD MSTORE PUSH1 0x20 PUSH1 0x80 MLOAD KECCAK256 PUSH1 0x1F DUP5 ADD PUSH1 0x5 SHR DUP2 ADD SWAP2 PUSH1 0x20 DUP6 LT PUSH2 0xD0B JUMPI JUMPDEST SWAP1 PUSH1 0x1F DUP6 SWAP5 SWAP4 SWAP3 ADD PUSH1 0x5 SHR ADD SWAP1 JUMPDEST DUP2 DUP2 LT PUSH2 0xCFB JUMPI POP PUSH2 0x814 JUMP JUMPDEST PUSH1 0x80 MLOAD DUP2 SSTORE DUP5 SWAP4 POP PUSH1 0x1 ADD PUSH2 0xCEE JUMP JUMPDEST SWAP1 SWAP2 POP DUP2 SWAP1 PUSH2 0xCE0 JUMP JUMPDEST ADD MLOAD SWAP1 POP DUP10 DUP1 PUSH2 0x781 JUMP JUMPDEST PUSH1 0x80 DUP1 MLOAD PUSH1 0xA DUP8 MUL DUP14 ADD PUSH1 0x2 ADD SWAP1 MSTORE MLOAD DUP3 DUP2 KECCAK256 SWAP4 POP PUSH1 0x1F NOT DUP6 AND SWAP1 JUMPDEST DUP2 DUP2 LT PUSH2 0xD80 JUMPI POP SWAP1 DUP5 PUSH1 0x1 SWAP6 SWAP5 SWAP4 SWAP3 LT PUSH2 0xD67 JUMPI JUMPDEST POP POP POP DUP2 SHL ADD PUSH1 0x2 PUSH1 0xA DUP4 MUL DUP10 ADD ADD SSTORE PUSH2 0x79E JUMP JUMPDEST ADD MLOAD PUSH1 0x0 NOT PUSH1 0xF8 DUP5 PUSH1 0x3 SHL AND SHR NOT AND SWAP1 SSTORE DUP10 DUP1 DUP1 PUSH2 0xD52 JUMP JUMPDEST SWAP3 SWAP4 PUSH1 0x20 PUSH1 0x1 DUP2 SWAP3 DUP8 DUP7 ADD MLOAD DUP2 SSTORE ADD SWAP6 ADD SWAP4 ADD PUSH2 0xD3C JUMP JUMPDEST SWAP1 SWAP2 POP PUSH1 0x2 PUSH1 0xA DUP6 MUL DUP12 ADD ADD PUSH1 0x80 MLOAD MSTORE PUSH1 0x20 PUSH1 0x80 MLOAD KECCAK256 PUSH1 0x1F DUP5 ADD PUSH1 0x5 SHR DUP2 ADD PUSH1 0x20 DUP6 LT PUSH2 0xDEC JUMPI JUMPDEST SWAP1 DUP5 SWAP4 SWAP3 SWAP2 JUMPDEST PUSH1 0x1F DUP4 ADD PUSH1 0x5 SHR DUP3 ADD DUP2 LT PUSH2 0xDDC JUMPI POP POP PUSH2 0x769 JUMP JUMPDEST PUSH1 0x80 MLOAD DUP2 SSTORE DUP6 SWAP5 POP PUSH1 0x1 ADD PUSH2 0xDC6 JUMP JUMPDEST POP DUP1 PUSH2 0xDC0 JUMP JUMPDEST ADD MLOAD SWAP1 POP DUP10 DUP1 PUSH2 0x717 JUMP JUMPDEST PUSH1 0x80 DUP1 MLOAD PUSH1 0xA DUP8 MUL DUP14 ADD PUSH1 0x1 ADD SWAP1 MSTORE MLOAD DUP3 DUP2 KECCAK256 SWAP4 POP PUSH1 0x1F NOT DUP6 AND SWAP1 JUMPDEST DUP2 DUP2 LT PUSH2 0xE5E JUMPI POP SWAP1 DUP5 PUSH1 0x1 SWAP6 SWAP5 SWAP4 SWAP3 LT PUSH2 0xE45 JUMPI JUMPDEST POP POP POP DUP2 SHL ADD PUSH1 0x1 PUSH1 0xA DUP4 MUL DUP10 ADD ADD SSTORE PUSH2 0x734 JUMP JUMPDEST ADD MLOAD PUSH1 0x0 NOT PUSH1 0xF8 DUP5 PUSH1 0x3 SHL AND SHR NOT AND SWAP1 SSTORE DUP10 DUP1 DUP1 PUSH2 0xE30 JUMP JUMPDEST SWAP3 SWAP4 PUSH1 0x20 PUSH1 0x1 DUP2 SWAP3 DUP8 DUP7 ADD MLOAD DUP2 SSTORE ADD SWAP6 ADD SWAP4 ADD PUSH2 0xE1A JUMP JUMPDEST SWAP1 SWAP2 POP PUSH1 0x1 PUSH1 0xA DUP6 MUL DUP12 ADD ADD PUSH1 0x80 MLOAD MSTORE PUSH1 0x20 PUSH1 0x80 MLOAD KECCAK256 PUSH1 0x1F DUP5 ADD PUSH1 0x5 SHR DUP2 ADD PUSH1 0x20 DUP6 LT PUSH2 0xECA JUMPI JUMPDEST SWAP1 DUP5 SWAP4 SWAP3 SWAP2 JUMPDEST PUSH1 0x1F DUP4 ADD PUSH1 0x5 SHR DUP3 ADD DUP2 LT PUSH2 0xEBA JUMPI POP POP PUSH2 0x6FF JUMP JUMPDEST PUSH1 0x80 MLOAD DUP2 SSTORE DUP6 SWAP5 POP PUSH1 0x1 ADD PUSH2 0xEA4 JUMP JUMPDEST POP DUP1 PUSH2 0xE9E JUMP JUMPDEST ADD MLOAD SWAP1 POP DUP10 DUP1 PUSH2 0x6B0 JUMP JUMPDEST PUSH1 0x80 DUP1 MLOAD PUSH1 0xA DUP8 MUL DUP14 ADD SWAP1 MSTORE MLOAD DUP3 DUP2 KECCAK256 SWAP4 POP PUSH1 0x1F NOT DUP6 AND SWAP1 JUMPDEST DUP2 DUP2 LT PUSH2 0xF36 JUMPI POP SWAP1 DUP5 PUSH1 0x1 SWAP6 SWAP5 SWAP4 SWAP3 LT PUSH2 0xF1D JUMPI JUMPDEST POP POP POP DUP2 SHL ADD PUSH1 0xA DUP3 MUL DUP9 ADD SSTORE PUSH2 0x6CA JUMP JUMPDEST ADD MLOAD PUSH1 0x0 NOT PUSH1 0xF8 DUP5 PUSH1 0x3 SHL AND SHR NOT AND SWAP1 SSTORE DUP10 DUP1 DUP1 PUSH2 0xF0B JUMP JUMPDEST SWAP3 SWAP4 PUSH1 0x20 PUSH1 0x1 DUP2 SWAP3 DUP8 DUP7 ADD MLOAD DUP2 SSTORE ADD SWAP6 ADD SWAP4 ADD PUSH2 0xEF5 JUMP JUMPDEST SWAP1 SWAP2 POP PUSH1 0xA DUP5 MUL DUP11 ADD PUSH1 0x80 MLOAD MSTORE PUSH1 0x20 PUSH1 0x80 MLOAD KECCAK256 PUSH1 0x1F DUP5 ADD PUSH1 0x5 SHR DUP2 ADD PUSH1 0x20 DUP6 LT PUSH2 0xF9F JUMPI JUMPDEST SWAP1 DUP5 SWAP4 SWAP3 SWAP2 JUMPDEST PUSH1 0x1F DUP4 ADD PUSH1 0x5 SHR DUP3 ADD DUP2 LT PUSH2 0xF8F JUMPI POP POP PUSH2 0x698 JUMP JUMPDEST PUSH1 0x80 MLOAD DUP2 SSTORE DUP6 SWAP5 POP PUSH1 0x1 ADD PUSH2 0xF79 JUMP JUMPDEST POP DUP1 PUSH2 0xF73 JUMP JUMPDEST PUSH4 0x4E487B71 PUSH1 0xE0 SHL PUSH1 0x80 MLOAD MSTORE PUSH1 0x32 PUSH1 0x4 MSTORE PUSH1 0x24 PUSH1 0x80 MLOAD REVERT JUMPDEST CALLER SWAP11 PUSH2 0x578 JUMP JUMPDEST CALLVALUE PUSH2 0x2D2 JUMPI PUSH1 0x20 CALLDATASIZE PUSH1 0x3 NOT ADD SLT PUSH2 0x2D2 JUMPI PUSH1 0x4 CALLDATALOAD PUSH1 0x1 PUSH1 0x1 PUSH1 0x40 SHL SUB DUP2 GT PUSH2 0x2D2 JUMPI PUSH1 0x20 PUSH2 0xFF8 DUP2 SWAP3 CALLDATASIZE SWAP1 PUSH1 0x4 ADD PUSH2 0x1023 JUMP JUMPDEST PUSH1 0x40 MLOAD SWAP3 SWAP2 DUP4 SWAP2 SWAP1 DUP2 SWAP1 DUP4 CALLDATACOPY PUSH1 0x3 SWAP1 DUP3 ADD SWAP1 DUP2 MSTORE SUB ADD SWAP1 KECCAK256 SLOAD PUSH1 0x40 MLOAD PUSH1 0x1 PUSH1 0x1 PUSH1 0xA0 SHL SUB SWAP1 SWAP2 AND DUP2 MSTORE RETURN JUMPDEST SWAP2 DUP2 PUSH1 0x1F DUP5 ADD SLT ISZERO PUSH2 0x1050 JUMPI DUP3 CALLDATALOAD SWAP2 PUSH1 0x1 PUSH1 0x1 PUSH1 0x40 SHL SUB DUP4 GT PUSH2 0x1050 JUMPI PUSH1 0x20 DUP4 DUP2 DUP7 ADD SWAP6 ADD ADD GT PUSH2 0x1050 JUMPI JUMP JUMPDEST PUSH1 0x0 DUP1 REVERT JUMPDEST SWAP2 SWAP1 DUP3 MLOAD SWAP3 DUP4 DUP3 MSTORE PUSH1 0x0 JUMPDEST DUP5 DUP2 LT PUSH2 0x1081 JUMPI POP POP DUP3 PUSH1 0x0 PUSH1 0x20 DUP1 SWAP5 SWAP6 DUP5 ADD ADD MSTORE PUSH1 0x1F DUP1 NOT SWAP2 ADD AND ADD ADD SWAP1 JUMP JUMPDEST DUP1 PUSH1 0x20 DUP1 SWAP3 DUP5 ADD ADD MLOAD DUP3 DUP3 DUP7 ADD ADD MSTORE ADD PUSH2 0x1060 JUMP JUMPDEST PUSH2 0x140 DUP2 ADD SWAP1 DUP2 LT PUSH1 0x1 PUSH1 0x1 PUSH1 0x40 SHL SUB DUP3 GT OR PUSH2 0x10B2 JUMPI PUSH1 0x40 MSTORE JUMP JUMPDEST PUSH4 0x4E487B71 PUSH1 0xE0 SHL PUSH1 0x0 MSTORE PUSH1 0x41 PUSH1 0x4 MSTORE PUSH1 0x24 PUSH1 0x0 REVERT JUMPDEST SWAP1 PUSH1 0x1F DUP1 NOT SWAP2 ADD AND DUP2 ADD SWAP1 DUP2 LT PUSH1 0x1 PUSH1 0x1 PUSH1 0x40 SHL SUB DUP3 GT OR PUSH2 0x10B2 JUMPI PUSH1 0x40 MSTORE JUMP JUMPDEST SWAP3 SWAP2 SWAP3 PUSH1 0x1 PUSH1 0x1 PUSH1 0x40 SHL SUB DUP3 GT PUSH2 0x10B2 JUMPI PUSH1 0x40 MLOAD SWAP2 PUSH2 0x1112 PUSH1 0x1F DUP3 ADD PUSH1 0x1F NOT AND PUSH1 0x20 ADD DUP5 PUSH2 0x10C8 JUMP JUMPDEST DUP3 SWAP5 DUP2 DUP5 MSTORE DUP2 DUP4 ADD GT PUSH2 0x1050 JUMPI DUP3 DUP2 PUSH1 0x20 SWAP4 DUP5 PUSH1 0x0 SWAP7 ADD CALLDATACOPY ADD ADD MSTORE JUMP JUMPDEST SWAP1 PUSH1 0x1 DUP3 DUP2 SHR SWAP3 AND DUP1 ISZERO PUSH2 0x115F JUMPI JUMPDEST PUSH1 0x20 DUP4 LT EQ PUSH2 0x1149 JUMPI JUMP JUMPDEST PUSH4 0x4E487B71 PUSH1 0xE0 SHL PUSH1 0x0 MSTORE PUSH1 0x22 PUSH1 0x4 MSTORE PUSH1 0x24 PUSH1 0x0 REVERT JUMPDEST SWAP2 PUSH1 0x7F AND SWAP2 PUSH2 0x113E JUMP JUMPDEST SWAP1 DUP1 PUSH1 0x20 SWAP4 SWAP3 DUP2 DUP5 MSTORE DUP5 DUP5 ADD CALLDATACOPY PUSH1 0x0 DUP3 DUP3 ADD DUP5 ADD MSTORE PUSH1 0x1F ADD PUSH1 0x1F NOT AND ADD ADD SWAP1 JUMP JUMPDEST SWAP1 PUSH1 0x40 MLOAD SWAP2 DUP3 PUSH1 0x0 DUP3 SLOAD SWAP3 PUSH2 0x119E DUP5 PUSH2 0x112F JUMP JUMPDEST DUP1 DUP5 MSTORE SWAP4 PUSH1 0x1 DUP2 AND SWAP1 DUP2 ISZERO PUSH2 0x120C JUMPI POP PUSH1 0x1 EQ PUSH2 0x11C5 JUMPI JUMPDEST POP PUSH2 0x11C3 SWAP3 POP SUB DUP4 PUSH2 0x10C8 JUMP JUMPDEST JUMP JUMPDEST SWAP1 POP PUSH1 0x0 SWAP3 SWAP2 SWAP3 MSTORE PUSH1 0x20 PUSH1 0x0 KECCAK256 SWAP1 PUSH1 0x0 SWAP2 JUMPDEST DUP2 DUP4 LT PUSH2 0x11F0 JUMPI POP POP SWAP1 PUSH1 0x20 PUSH2 0x11C3 SWAP3 DUP3 ADD ADD CODESIZE PUSH2 0x11B6 JUMP JUMPDEST PUSH1 0x20 SWAP2 SWAP4 POP DUP1 PUSH1 0x1 SWAP2 SLOAD DUP4 DUP6 DUP10 ADD ADD MSTORE ADD SWAP2 ADD SWAP1 SWAP2 DUP5 SWAP3 PUSH2 0x11D7 JUMP JUMPDEST SWAP1 POP PUSH1 0x20 SWAP3 POP PUSH2 0x11C3 SWAP5 SWAP2 POP PUSH1 0xFF NOT AND DUP3 DUP5 ADD MSTORE ISZERO ISZERO PUSH1 0x5 SHL DUP3 ADD ADD CODESIZE PUSH2 0x11B6 JUMP INVALID LOG2 PUSH5 0x6970667358 0x22 SLT KECCAK256 ISZERO 0x2A BLOCKHASH TSTORE 0xE SWAP13 0xE4 DIV 0xB3 SWAP12 SWAP13 0xAE PUSH27 0xDA3B08E796B13ECA67B95E926AABC8E1C2B8D464736F6C63430008 SHL STOP CALLER "
        },
        "methodIdentifiers": {
          "getCurrentCustodian(string)": "0e0668c2",
          "getHandoffHistory(string)": "f2a7a4d4",
          "owner()": "8da5cb5b",
          "produceRegistry()": "8b2650b3",
          "recordDelivery(string,string)": "26bf36ce",
          "recordHandoff(string,string,string,string,string,string,uint256)": "12582543"
        }
      }
    }
  }
}