{
  "_format": "hh-sol-artifact-1",
  "contractName": "SupplyChainLedger",
  "sourceName": "contracts/SupplyChainLedger.sol",
  "abi": [
    {
      "inputs": [
        {
          "internalType": "address",
          "name": "_produceRegistry",
          "type": "address"
        }
      ],
      "stateMutability": "nonpayable",
      "type": "constructor"
    },
    {
      "anonymous": false,
      "inputs": [
        {
          "indexed": false,
          "internalType": "string",
          "name": "batchId",
          "type": "string"
        },
        {
          "indexed": false,
          "internalType": "string",
          "name": "location",
          "type": "string"
        },
        {
          "indexed": false,
          "internalType": "uint256",
          "name": "timestamp",
          "type": "uint256"
        }
      ],
      "name": "BatchDelivered",
      "type": "event"
    },
    {
      "anonymous": false,
      "inputs": [
        {
          "indexed": false,
          "internalType": "string",
          "name": "batchId",
          "type": "string"
        },
        {
          "indexed": false,
          "internalType": "string",
          "name": "fromParty",
          "type": "string"
        },
        {
          "indexed": false,
          "internalType": "string",
          "name": "toParty",
          "type": "string"
        },
        {
          "indexed": false,
          "internalType": "uint256",
          "name": "timestamp",
          "type": "uint256"
        }
      ],
      "name": "HandoffRecorded",
      "type": "event"
    },
    {
      "inputs": [
        {
          "internalType": "string",
          "name": "batchId",
          "type": "string"
        }
      ],
      "name": "getCurrentCustodian",
      "outputs": [
        {
          "internalType": "address",
          "name": "",
          "type": "address"
        }
      ],
      "stateMutability": "view",
      "type": "function"
    },
    {
      "inputs": [
        {
          "internalType": "string",
          "name": "batchId",
          "type": "string"
        }
      ],
      "name": "getHandoffHistory",
      "outputs": [
        {
          "components": [
            {
              "internalType": "string",
              "name": "batchId",
              "type": "string"
            },
            {
              "internalType": "string",
              "name": "fromParty",
              "type": "string"
            },
            {
              "internalType": "string",
              "name": "toParty",
              "type": "string"
            },
            {
              "internalType": "address",
              "name": "fromWallet",
              "type": "address"
            },
            {
              "internalType": "address",
              "name": "toWallet",
              "type": "address"
            },
            {
              "internalType": "string",
              "name": "location",
              "type": "string"
            },
            {
              "internalType": "string",
              "name": "conditionOnHandoff",
              "type": "string"
            },
            {
              "internalType": "string",
              "name": "transportMethod",
              "type": "string"
            },
            {
              "internalType": "uint256",
              "name": "quantityKg",
              "type": "uint256"
            },
            {
              "internalType": "uint256",
              "name": "timestamp",
              "type": "uint256"
            }
          ],
          "internalType": "struct SupplyChainLedger.Handoff[]",
          "name": "",
          "type": "tuple[]"
        }
      ],
      "stateMutability": "view",
      "type": "function"
    },
    {
      "inputs": [],
      "name": "owner",
      "outputs": [
        {
          "internalType": "address",
          "name": "",
          "type": "address"
        }
      ],
      "stateMutability": "view",
      "type": "function"
    },
    {
      "inputs": [],
      "name": "produceRegistry",
      "outputs": [
        {
          "internalType": "contract IProduceRegistry",
          "name": "",
          "type": "address"
        }
      ],
      "stateMutability": "view",
      "type": "function"
    },
    {
      "inputs": [
        {
          "internalType": "string",
          "name": "batchId",
          "type": "string"
        },
        {
          "internalType": "string",
          "name": "location",
          "type": "string"
        }
      ],
      "name": "recordDelivery",
      "outputs": [],
      "stateMutability": "nonpayable",
      "type": "function"
    },
    {
      "inputs": [
        {
          "internalType": "string",
          "name": "batchId",
          "type": "string"
        },
        {
          "internalType": "string",
          "name": "fromParty",
          "type": "string"
        },
        {
          "internalType": "string",
          "name": "toParty",
          "type": "string"
        },
        {
          "internalType": "string",
          "name": "location",
          "type": "string"
        },
        {
          "internalType": "string",
          "name": "condition",
          "type": "string"
        },
        {
          "internalType": "string",
          "name": "transportMethod",
          "type": "string"
        },
        {
          "internalType": "uint256",
          "name": "quantityKg",
          "type": "uint256"
        }
      ],
      "name": "recordHandoff",
      "outputs": [],
      "stateMutability": "nonpayable",
      "type": "function"
    }
  ],
  "bytecode": "0x608034607e57601f6112fe38819003918201601f19168301916001600160401b03831184841017608357808492602094604052833981010312607e57516001600160a01b03811690819003607e57600080546001600160a01b0319908116331790915560018054909116919091179055604051611264908161009a8239f35b600080fd5b634e487b7160e01b600052604160045260246000fdfe60e0604052600436101561001257600080fd5b60006080526080513560e01c80630e0668c214610fc5578063125825431461045857806326bf36ce1461032d5780638b2650b3146103035780638da5cb5b146102d85763f2a7a4d41461006457600080fd5b346102d25760203660031901126102d2576004356001600160401b0381116102d2576100966020913690600401611023565b604051929183919081908337810160028152030190208054906001600160401b0382116102ba57604051916100d160208260051b01846110c8565b80835260208301809260805152602060805120608051915b83831061020557848660405191829160208301906020845251809152604083019060408160051b8501019291608051905b82821061012957505050500390f35b919360019193955060208091603f19898203018552875190610120806101e36101d16101bf61018b61017961016989516101408a526101408a0190611055565b8a8a01518982038c8b0152611055565b604089015188820360408a0152611055565b8a8060a01b0360608901511660608801528a8060a01b03608089015116608088015260a088015187820360a0890152611055565b60c087015186820360c0880152611055565b60e086015185820360e0870152611055565b936101008101516101008501520151910152960192019201859493919261011a565b600a602060019260405161021881611096565b6102218661118a565b815261022e85870161118a565b8382015261023e6002870161118a565b6040820152600386015460a086901b8690039081166060830152600487015416608082015261026f6005870161118a565b60a08201526102806006870161118a565b60c08201526102916007870161118a565b60e0820152600886015461010082015260098601546101208201528152019201920191906100e9565b634e487b7160e01b6080515260416004526024608051fd5b60805180fd5b346102d2576080513660031901126102d257608051546040516001600160a01b039091168152602090f35b346102d2576080513660031901126102d2576001546040516001600160a01b039091168152602090f35b346102d25760403660031901126102d2576004356001600160401b0381116102d25761035d903690600401611023565b6024356001600160401b0381116102d25761039d7f77a50dd6a92c01b59edfcbde3c8f49a6d8e83bf82f0064674cd52ed15026d712913690600401611023565b6103c6604051928392606084526103b860608501888a611169565b918483036020860152611169565b4260408301520390a16001546001600160a01b031690813b156102d2576040805163b50a3c8760e01b8152600481019190915292839161040b91604484019190611169565b60036024830152608051929082900390829084905af1801561044b57610432575b60805180f35b60805161043e916110c8565b6080516102d2578061042c565b6040513d608051823e3d90fd5b346102d25760e03660031901126102d2576004356001600160401b0381116102d257610488903690600401611023565b9060c0526024356001600160401b0381116102d2576104ab903690600401611023565b91906044356001600160401b0381116102d2576104cc903690600401611023565b93906064356001600160401b0381116102d2576104ed903690600401611023565b95906084356001600160401b0381116102d25761050e903690600401611023565b9060a4356001600160401b0381116102d25761052e903690600401611023565b92909360ff6040518b60c051823760048c82019081528190036020019020541615610fbe576040518a60c05182376003818c019081528190036020019020546001600160a01b03169a5b6040518b60c0518237808c8101600281520360200190209b60405160a05260a0516105a290611096565b8b3660c051916105b1926110e9565b60a051526105c0368b8d6110e9565b60a051602001526105d236898b6110e9565b60a05160400152600160a01b600190031660a051606001523360a0516080015236906105fd926110e9565b60a05160a00152369061060f926110e9565b60a05160c001523690610621926110e9565b60a05160e0015260c43560a05161010001524260a0516101200152855495680100000000000000008710156102ba5760018701808255871015610fa657608051526020608051209560a051518051906001600160401b0382116102ba57819061068f600a85028b015461112f565b601f8111610f4e575b506020906001601f841114610edc5760805192610ed1575b50508160011b916000199060031b1c191617600a82028801555b602060a05101518051906001600160401b0382116102ba5781906106f66001600a86028c01015461112f565b601f8111610e76575b506020906001601f841114610dfe5760805192610df3575b50508160011b916000199060031b1c1916176001600a8302890101555b604060a05101518051906001600160401b0382116102ba5781906107606002600a86028c01015461112f565b601f8111610d98575b506020906001601f841114610d205760805192610d15575b50508160011b916000199060031b1c1916176002600a8302890101555b60a080516060810151600a84028a016003810180546001600160a01b03199081166001600160a01b03948516179091556080840151600490920180549091169190921617905501518051906001600160401b0382116102ba57819061080b6005600a86028c01015461112f565b601f8111610cb7575b506020906001601f841114610c3f5760805192610c34575b50508160011b916000199060031b1c1916176005600a8302890101555b6006600a820288010160c060a05101518051906001600160401b0382116102ba578190610876845461112f565b601f8111610bde575b506020906001601f841114610b765760805192610b6b575b50508160011b916000199060031b1c19161790555b60e060a05101519687516001600160401b0381116102ba576108d66007600a85028401015461112f565b601f8111610b18575b5060206001601f831114610a725791816009926109e8979695947f0356be0c24896f5f7babeb9dd0607ccb661be414dca816c5746f1afd2a0ea5cc9b9c60805192610a67575b50508160011b916000199060031b1c1916176007600a8502830101555b61010060a05101516008600a850283010155600a61012060a051015193020101556040518760c05182376003888201908152819003602001902080546001600160a01b0319163317905560405160c051889082376020818981016004815203019020600160ff198254161790556109da604051958695608087526109cc608088018b60c051611169565b918783036020890152611169565b918483036040860152611169565b4260608301520390a16001546001600160a01b0316803b156102d2576040805163b50a3c8760e01b8152600481019190915260c05190928391610a2f916044840191611169565b60026024830152608051929082900390829084905af1801561044b57610a555760805180f35b608051610a61916110c8565b8061042c565b015190508c80610925565b6007600a8502840101608051528060805120996080515b601f1984168110610b005750827f0356be0c24896f5f7babeb9dd0607ccb661be414dca816c5746f1afd2a0ea5cc9a9b6109e89897969593600193600996601f19811610610ae7575b505050811b016007600a850283010155610942565b015160001960f88460031b161c191690558c8080610ad2565b828201518c556001909b019a60209283019201610a89565b6007600a850284010160805152602060805120601f830160051c81019160208410610b61575b601f0160051c01905b818110610b5457506108df565b6080518155600101610b47565b9091508190610b3e565b015190508a80610897565b60808051869052518281209350601f198516905b818110610bc65750908460019594939210610bad575b505050811b0190556108ac565b015160001960f88460031b161c191690558a8080610ba0565b92936020600181928786015181550195019301610b8a565b9091508360805152602060805120601f840160051c81019160208510610c2a575b90601f859493920160051c01905b818110610c1a575061087f565b6080518155849350600101610c0d565b9091508190610bff565b01519050898061082c565b60808051600a87028d016005019052518281209350601f198516905b818110610c9f5750908460019594939210610c86575b505050811b016005600a830289010155610849565b015160001960f88460031b161c19169055898080610c71565b92936020600181928786015181550195019301610c5b565b9091506005600a85028b010160805152602060805120601f840160051c81019160208510610d0b575b90601f859493920160051c01905b818110610cfb5750610814565b6080518155849350600101610cee565b9091508190610ce0565b015190508980610781565b60808051600a87028d016002019052518281209350601f198516905b818110610d805750908460019594939210610d67575b505050811b016002600a83028901015561079e565b015160001960f88460031b161c19169055898080610d52565b92936020600181928786015181550195019301610d3c565b9091506002600a85028b010160805152602060805120601f840160051c810160208510610dec575b90849392915b601f830160051c82018110610ddc575050610769565b6080518155859450600101610dc6565b5080610dc0565b015190508980610717565b60808051600a87028d016001019052518281209350601f198516905b818110610e5e5750908460019594939210610e45575b505050811b016001600a830289010155610734565b015160001960f88460031b161c19169055898080610e30565b92936020600181928786015181550195019301610e1a565b9091506001600a85028b010160805152602060805120601f840160051c810160208510610eca575b90849392915b601f830160051c82018110610eba5750506106ff565b6080518155859450600101610ea4565b5080610e9e565b0151905089806106b0565b60808051600a87028d019052518281209350601f198516905b818110610f365750908460019594939210610f1d575b505050811b01600a82028801556106ca565b015160001960f88460031b161c19169055898080610f0b565b92936020600181928786015181550195019301610ef5565b909150600a84028a0160805152602060805120601f840160051c810160208510610f9f575b90849392915b601f830160051c82018110610f8f575050610698565b6080518155859450600101610f79565b5080610f73565b634e487b7160e01b6080515260326004526024608051fd5b339a610578565b346102d25760203660031901126102d2576004356001600160401b0381116102d2576020610ff881923690600401611023565b604051929183919081908337600390820190815203019020546040516001600160a01b039091168152f35b9181601f84011215611050578235916001600160401b038311611050576020838186019501011161105057565b600080fd5b919082519283825260005b848110611081575050826000602080949584010152601f8019910116010190565b80602080928401015182828601015201611060565b61014081019081106001600160401b038211176110b257604052565b634e487b7160e01b600052604160045260246000fd5b90601f801991011681019081106001600160401b038211176110b257604052565b9291926001600160401b0382116110b25760405191611112601f8201601f1916602001846110c8565b829481845281830111611050578281602093846000960137010152565b90600182811c9216801561115f575b602083101461114957565b634e487b7160e01b600052602260045260246000fd5b91607f169161113e565b908060209392818452848401376000828201840152601f01601f1916010190565b906040519182600082549261119e8461112f565b808452936001811690811561120c57506001146111c5575b506111c3925003836110c8565b565b90506000929192526020600020906000915b8183106111f05750509060206111c392820101386111b6565b60209193508060019154838589010152019101909184926111d7565b9050602092506111c394915060ff191682840152151560051b820101386111b656fea2646970667358221220152a405d0e9ce404b39b9cae7ada3b08e796b13eca67b95e926aabc8e1c2b8d464736f6c634300081b0033",
  "linkReferences": {},
  "deployedLinkReferences": {}
}