{
  "_format": "hh-sol-artifact-1",
  "contractName": "ProduceRegistry",
  "sourceName": "contracts/ProduceRegistry.sol",
  "abi": [
    {
      "inputs": [],
      "stateMutability": "nonpayable",
      "type": "constructor"
    },
    {
      "anonymous": false,
      "inputs": [
        {
          "indexed": false,
          "internalType": "string",
          "name": "batchId",
          "type": "string"
        },
        {
          "indexed": false,
          "internalType": "string",
          "name": "reason",
          "type": "string"
        }
      ],
      "name": "BatchFlagged",
      "type": "event"
    },
    {
      "anonymous": false,
      "inputs": [
        {
          "indexed": false,
          "internalType": "string",
          "name": "batchId",
          "type": "string"
        },
        {
          "indexed": false,
          "internalType": "string",
          "name": "farmId",
          "type": "string"
        },
        {
          "indexed": false,
          "internalType": "address",
          "name": "registeredBy",
          "type": "address"
        },
        {
          "indexed": false,
          "internalType": "uint256",
          "name": "registeredAt",
          "type": "uint256"
        }
      ],
      "name": "BatchRegistered",
      "type": "event"
    },
    {
      "anonymous": false,
      "inputs": [
        {
          "indexed": false,
          "internalType": "string",
          "name": "batchId",
          "type": "string"
        },
        {
          "indexed": false,
          "internalType": "enum ProduceRegistry.BatchStatus",
          "name": "newStatus",
          "type": "uint8"
        }
      ],
      "name": "BatchStatusChanged",
      "type": "event"
    },
    {
      "inputs": [
        {
          "internalType": "address",
          "name": "account",
          "type": "address"
        }
      ],
      "name": "addRegulator",
      "outputs": [],
      "stateMutability": "nonpayable",
      "type": "function"
    },
    {
      "inputs": [],
      "name": "complianceRegistry",
      "outputs": [
        {
          "internalType": "address",
          "name": "",
          "type": "address"
        }
      ],
      "stateMutability": "view",
      "type": "function"
    },
    {
      "inputs": [
        {
          "internalType": "string",
          "name": "batchId",
          "type": "string"
        },
        {
          "internalType": "string",
          "name": "reason",
          "type": "string"
        }
      ],
      "name": "flagBatch",
      "outputs": [],
      "stateMutability": "nonpayable",
      "type": "function"
    },
    {
      "inputs": [
        {
          "internalType": "string",
          "name": "batchId",
          "type": "string"
        }
      ],
      "name": "getBatch",
      "outputs": [
        {
          "components": [
            {
              "internalType": "string",
              "name": "batchId",
              "type": "string"
            },
            {
              "internalType": "string",
              "name": "farmId",
              "type": "string"
            },
            {
              "internalType": "string",
              "name": "cropType",
              "type": "string"
            },
            {
              "internalType": "uint256",
              "name": "quantityKg",
              "type": "uint256"
            },
            {
              "internalType": "string",
              "name": "seedVariety",
              "type": "string"
            },
            {
              "internalType": "bool",
              "name": "isGMOFree",
              "type": "bool"
            },
            {
              "internalType": "uint256",
              "name": "registeredAt",
              "type": "uint256"
            },
            {
              "internalType": "enum ProduceRegistry.BatchStatus",
              "name": "status",
              "type": "uint8"
            },
            {
              "internalType": "address",
              "name": "registeredBy",
              "type": "address"
            }
          ],
          "internalType": "struct ProduceRegistry.Batch",
          "name": "",
          "type": "tuple"
        }
      ],
      "stateMutability": "view",
      "type": "function"
    },
    {
      "inputs": [
        {
          "internalType": "string",
          "name": "farmId",
          "type": "string"
        }
      ],
      "name": "getBatchesByFarm",
      "outputs": [
        {
          "internalType": "string[]",
          "name": "",
          "type": "string[]"
        }
      ],
      "stateMutability": "view",
      "type": "function"
    },
    {
      "inputs": [],
      "name": "owner",
      "outputs": [
        {
          "internalType": "address",
          "name": "",
          "type": "address"
        }
      ],
      "stateMutability": "view",
      "type": "function"
    },
    {
      "inputs": [
        {
          "internalType": "string",
          "name": "batchId",
          "type": "string"
        },
        {
          "internalType": "string",
          "name": "cropType",
          "type": "string"
        },
        {
          "internalType": "uint256",
          "name": "quantityKg",
          "type": "uint256"
        },
        {
          "internalType": "string",
          "name": "seedVariety",
          "type": "string"
        },
        {
          "internalType": "bool",
          "name": "isGMOFree",
          "type": "bool"
        },
        {
          "internalType": "string",
          "name": "farmId",
          "type": "string"
        }
      ],
      "name": "registerBatch",
      "outputs": [],
      "stateMutability": "nonpayable",
      "type": "function"
    },
    {
      "inputs": [
        {
          "internalType": "address",
          "name": "_complianceRegistry",
          "type": "address"
        }
      ],
      "name": "setComplianceRegistry",
      "outputs": [],
      "stateMutability": "nonpayable",
      "type": "function"
    },
    {
      "inputs": [
        {
          "internalType": "address",
          "name": "_supplyChainLedger",
          "type": "address"
        }
      ],
      "name": "setSupplyChainLedger",
      "outputs": [],
      "stateMutability": "nonpayable",
      "type": "function"
    },
    {
      "inputs": [],
      "name": "supplyChainLedger",
      "outputs": [
        {
          "internalType": "address",
          "name": "",
          "type": "address"
        }
      ],
      "stateMutability": "view",
      "type": "function"
    },
    {
      "inputs": [
        {
          "internalType": "string",
          "name": "batchId",
          "type": "string"
        },
        {
          "internalType": "enum ProduceRegistry.BatchStatus",
          "name": "newStatus",
          "type": "uint8"
        }
      ],
      "name": "updateBatchStatus",
      "outputs": [],
      "stateMutability": "nonpayable",
      "type": "function"
    }
  ],
  "bytecode": "0x60808060405234602757600080546001600160a01b0319163317905561129b908161002d8239f35b600080fdfe6080604052600436101561001257600080fd5b6000803560e01c806324ccbf7f14610f0e57806353f7d66814610828578063582d3cbb146107ff5780638cf764d1146106f85780638da5cb5b146106d1578063ac63f3c7146105f1578063b50a3c87146104a4578063cac89c5c1461047b578063ef9ea43914610425578063f78e2ff7146102a95763f9ca42741461009657600080fd5b346102a65760203660031901126102a6576004356001600160401b0381116102a4576100c86020913690600401610f64565b9190836101006040516100da8161103b565b6060815260608582015260606040820152826060820152606060808201528260a08201528260c08201528260e0820152015261012c60ff60405185848237848187810160048152030190205416611227565b826040519384928337810160038152030190206040519061014c8261103b565b61015581611183565b825261016360018201611183565b6020830190815261017660028301611183565b916040840192835260038101546060850190815261019660048301611183565b6080860190815260ff6005840154169460a087019515158652600760068501549460c0890195865201549460ff861660e08901996005821015610290575092610248610261936102358c97946101008d9e9d61027c9b996101409f52019a60018060a01b039060081c168b526102226040519e8f9e8f9160208352519161012060208201520190610f96565b90518d8203601f190160408f0152610f96565b90518b8203601f190160608d0152610f96565b915160808a015251888203601f190160a08a0152610f96565b9451151560c08701525160e086015251610100850190610fd7565b516001600160a01b03166101208301520390f35b634e487b7160e01b81526021600452602490fd5b505b80fd5b50346102a65760403660031901126102a6576004356001600160401b0381116102a4576102da903690600401610f64565b906024356001600160401b038111610421576102fa903690600401610f64565b929092338552600760205260ff604086205416156103ea577f91d04e4ae4835b3958e4daab4681aaaecc941a93a266bb0a6e086468253a0034937f12aa50631904eddc2dfd54dee0419e9cda0b0b0a73fc97998932da9864d712209161037760ff6040518688823760208188810160048152030190205416611227565b600760405185878237602081878101600381520301902001600460ff198254161790556103c3604051928392604084526103b560408501888a611162565b918483036020860152611162565b0390a16103dd604051928392604084526040840191611162565b600460208301520390a180f35b60405162461bcd60e51b815260206004820152600f60248201526e2737ba1030903932b3bab630ba37b960891b6044820152606490fd5b8380fd5b50346102a65760203660031901126102a6576004356001600160a01b038116908190036102a45761046060018060a01b038354163314610ffa565b6bffffffffffffffffffffffff60a01b600254161760025580f35b50346102a657806003193601126102a6576001546040516001600160a01b039091168152602090f35b50346102a65760403660031901126102a6576004356001600160401b0381116102a4576104d5903690600401610f64565b90602435916005831015610421576001546001600160a01b0316331480156105dd575b1561058c577f91d04e4ae4835b3958e4daab4681aaaecc941a93a266bb0a6e086468253a00349261054060ff6040518486823760208186810160048152030190205416611227565b6105618160076040518587823760208187810160038152030190200161114a565b61058661057b604051948594604086526040860191611162565b916020840190610fd7565b0390a180f35b60405162461bcd60e51b8152602060048201526024808201527f43616c6c6572206973206e6f7420616e20617574686f72697a656420636f6e746044820152631c9858dd60e21b6064820152608490fd5b506002546001600160a01b031633146104f8565b50346102a65760203660031901126102a6576004356001600160a01b038116908190036102a45761062c60018060a01b038354163314610ffa565b808252600760205260408220805460ff19166001179055600654600160401b8110156106bd57600181016006556006548110156106a957600683527ff652222313e28459528d920b65115c16c04f3efc82aaedc97be59f3f377c0d3f018054600384901b92831b6001600160a01b0390931b191691909117905580f35b634e487b7160e01b83526032600452602483fd5b634e487b7160e01b83526041600452602483fd5b50346102a657806003193601126102a657546040516001600160a01b039091168152602090f35b50346102a65760203660031901126102a6576004356001600160401b0381116102a45761072b6020913690600401610f64565b91908260405193849283378101600581520301902080546001600160401b0381116106bd576040519061076460208260051b0183611057565b80825260208201809385526020852085915b8383106107e257868587604051928392602084019060208552518091526040840160408260051b8601019392905b8282106107b357505050500390f35b919360019193955060206107d28192603f198a82030186528851610f96565b96019201920185949391926107a4565b6001602081926107f185611183565b815201920192019190610776565b50346102a657806003193601126102a6576002546040516001600160a01b039091168152602090f35b50346102a65760c03660031901126102a6576004356001600160401b0381116102a457610859903690600401610f64565b6024356001600160401b03811161042157610878903690600401610f64565b90936064356001600160401b0381116102a457610899903690600401610f64565b608493919335968715158098036104215760a4356001600160401b038111610f0a576108c9903690600401610f64565b95909860ff604051898b82376020818b810160048152030190205416610ece5788936109416109288a956109198e61090f604051996109078b61103b565b36908c611078565b89528c3691611078565b9860208801998a523691611078565b9360408601948552606086019260443584523691611078565b906080850191825260a0850192835260c085019342855260e08601978989528b6020610100890199338b5282604051938492833781016003815203019020965180516001600160401b038111610e57576109a58161099f8b546110be565b8b6110f8565b60208c601f8311600114610e6b57906109d39383610cf5575b50508160011b916000199060031b1c19161790565b87555b60018701905180516001600160401b038111610e5757610a00816109fa85546110be565b856110f8565b60208c601f8311600114610df45790610a2d9383610cf55750508160011b916000199060031b1c19161790565b90555b51805160028701916001600160401b038211610de057610a54826109fa85546110be565b602090601f8311600114610d7d57610a8392918c9183610cf55750508160011b916000199060031b1c19161790565b90555b51600385015551805160048501916001600160401b038211610d6957610ab0826109fa85546110be565b602090601f8311600114610d00579180610ae692600798979695948c92610cf55750508160011b916000199060031b1c19161790565b90555b600583019051151560ff801983541691161790555160068201550191516005811015610ce157610b19908361114a565b518154610100600160a81b03191660089190911b610100600160a81b0316179055604051838582376020818581016004815203019020600160ff19825416179055604051828682376020818481016005815203019020805490600160401b8210156106bd57600182018082558210156106a95782526020909120016001600160401b038311610ccb57610bb683610bb083546110be565b836110f8565b6000601f8411600114610c4257917f8d52bff518e9a98aea88486838babc0cf8c92bc88ad871a6a520df31912a0ba59591610c0c8580610c2696600091610c37575b508160011b916000199060031b1c19161790565b90555b6103b5604051958695608087526080870191611162565b3360408301524260608301520390a1005b905088013538610bf8565b8181526020812090601f198516815b818110610cb35750917f8d52bff518e9a98aea88486838babc0cf8c92bc88ad871a6a520df31912a0ba597939186610c26969410610c99575b5050600185811b019055610c0f565b870135600019600388901b60f8161c191690553880610c8a565b9192602060018192868b013581550194019201610c51565b634e487b7160e01b600052604160045260246000fd5b634e487b7160e01b84526021600452602484fd5b0151905038806109be565b838a52818a209190601f1984168b5b818110610d51575091600193918560079a999897969410610d38575b505050811b019055610ae9565b015160001960f88460031b161c19169055388080610d2b565b92936020600181928786015181550195019301610d0f565b634e487b7160e01b89526041600452602489fd5b838c52818c209190601f1984168d5b818110610dc85750908460019594939210610daf575b505050811b019055610a86565b015160001960f88460031b161c19169055388080610da2565b92936020600181928786015181550195019301610d8c565b634e487b7160e01b8b52604160045260248bfd5b9192601f198416858452828420935b818110610e3f5750908460019594939210610e26575b505050811b019055610a30565b015160001960f88460031b161c19169055388080610e19565b92936020600181928786015181550195019301610e03565b634e487b7160e01b8c52604160045260248cfd5b9192601f1984168b8452828420935b818110610eb65750908460019594939210610e9d575b505050811b0187556109d6565b015160001960f88460031b161c19169055388080610e90565b92936020600181928786015181550195019301610e7a565b60405162461bcd60e51b8152602060048201526014602482015273426174636820616c72656164792065786973747360601b6044820152606490fd5b8480fd5b50346102a65760203660031901126102a6576004356001600160a01b038116908190036102a457610f4960018060a01b038354163314610ffa565b6bffffffffffffffffffffffff60a01b600154161760015580f35b9181601f84011215610f91578235916001600160401b038311610f915760208381860195010111610f9157565b600080fd5b919082519283825260005b848110610fc2575050826000602080949584010152601f8019910116010190565b80602080928401015182828601015201610fa1565b906005821015610fe45752565b634e487b7160e01b600052602160045260246000fd5b1561100157565b60405162461bcd60e51b81526020600482015260126024820152712737ba1031b7b73a3930b1ba1037bbb732b960711b6044820152606490fd5b61012081019081106001600160401b03821117610ccb57604052565b90601f801991011681019081106001600160401b03821117610ccb57604052565b9291926001600160401b038211610ccb57604051916110a1601f8201601f191660200184611057565b829481845281830111610f91578281602093846000960137010152565b90600182811c921680156110ee575b60208310146110d857565b634e487b7160e01b600052602260045260246000fd5b91607f16916110cd565b601f821161110557505050565b6000526020600020906020601f840160051c83019310611140575b601f0160051c01905b818110611134575050565b60008155600101611129565b9091508190611120565b906005811015610fe45760ff80198354169116179055565b908060209392818452848401376000828201840152601f01601f1916010190565b9060405191826000825492611197846110be565b808452936001811690811561120557506001146111be575b506111bc92500383611057565b565b90506000929192526020600020906000915b8183106111e95750509060206111bc92820101386111af565b60209193508060019154838589010152019101909184926111d0565b9050602092506111bc94915060ff191682840152151560051b820101386111af565b1561122e57565b60405162461bcd60e51b815260206004820152600f60248201526e10985d18da081b9bdd08199bdd5b99608a1b6044820152606490fdfea264697066735822122072e9f60d3a209232f6fe1a3fd293271ebde43eae78d9a906b3b940bb118f534064736f6c634300081b0033",
  "linkReferences": {},
  "deployedLinkReferences": {}
}