{
  "_format": "hh-sol-artifact-1",
  "contractName": "ComplianceRegistry",
  "sourceName": "contracts/ComplianceRegistry.sol",
  "abi": [
    {
      "inputs": [
        {
          "internalType": "address",
          "name": "_produceRegistry",
          "type": "address"
        }
      ],
      "stateMutability": "nonpayable",
      "type": "constructor"
    },
    {
      "anonymous": false,
      "inputs": [
        {
          "indexed": false,
          "internalType": "string",
          "name": "certId",
          "type": "string"
        },
        {
          "indexed": false,
          "internalType": "string",
          "name": "batchId",
          "type": "string"
        },
        {
          "indexed": false,
          "internalType": "address",
          "name": "issuedBy",
          "type": "address"
        },
        {
          "indexed": false,
          "internalType": "uint256",
          "name": "issuedAt",
          "type": "uint256"
        }
      ],
      "name": "CertificateIssued",
      "type": "event"
    },
    {
      "anonymous": false,
      "inputs": [
        {
          "indexed": false,
          "internalType": "string",
          "name": "certId",
          "type": "string"
        },
        {
          "indexed": false,
          "internalType": "string",
          "name": "batchId",
          "type": "string"
        },
        {
          "indexed": false,
          "internalType": "string",
          "name": "reason",
          "type": "string"
        }
      ],
      "name": "CertificateRevoked",
      "type": "event"
    },
    {
      "anonymous": false,
      "inputs": [
        {
          "indexed": false,
          "internalType": "string",
          "name": "batchId",
          "type": "string"
        },
        {
          "indexed": false,
          "internalType": "string",
          "name": "inspectorId",
          "type": "string"
        },
        {
          "indexed": false,
          "internalType": "enum ComplianceRegistry.GMOStatus",
          "name": "gmoStatus",
          "type": "uint8"
        },
        {
          "indexed": false,
          "internalType": "string",
          "name": "grade",
          "type": "string"
        }
      ],
      "name": "InspectionRecorded",
      "type": "event"
    },
    {
      "inputs": [
        {
          "internalType": "address",
          "name": "account",
          "type": "address"
        }
      ],
      "name": "addInspector",
      "outputs": [],
      "stateMutability": "nonpayable",
      "type": "function"
    },
    {
      "inputs": [
        {
          "internalType": "address",
          "name": "account",
          "type": "address"
        }
      ],
      "name": "addRegulator",
      "outputs": [],
      "stateMutability": "nonpayable",
      "type": "function"
    },
    {
      "inputs": [
        {
          "internalType": "string",
          "name": "batchId",
          "type": "string"
        }
      ],
      "name": "getCertificate",
      "outputs": [
        {
          "components": [
            {
              "internalType": "string",
              "name": "certId",
              "type": "string"
            },
            {
              "internalType": "string",
              "name": "batchId",
              "type": "string"
            },
            {
              "internalType": "string",
              "name": "inspectorId",
              "type": "string"
            },
            {
              "internalType": "enum ComplianceRegistry.GMOStatus",
              "name": "gmoStatus",
              "type": "uint8"
            },
            {
              "internalType": "string",
              "name": "grade",
              "type": "string"
            },
            {
              "internalType": "uint256",
              "name": "issuedAt",
              "type": "uint256"
            },
            {
              "internalType": "uint256",
              "name": "validUntil",
              "type": "uint256"
            },
            {
              "internalType": "bool",
              "name": "isActive",
              "type": "bool"
            },
            {
              "internalType": "address",
              "name": "issuedBy",
              "type": "address"
            }
          ],
          "internalType": "struct ComplianceRegistry.Certificate",
          "name": "",
          "type": "tuple"
        }
      ],
      "stateMutability": "view",
      "type": "function"
    },
    {
      "inputs": [
        {
          "internalType": "string",
          "name": "batchId",
          "type": "string"
        }
      ],
      "name": "getInspection",
      "outputs": [
        {
          "components": [
            {
              "internalType": "string",
              "name": "batchId",
              "type": "string"
            },
            {
              "internalType": "string",
              "name": "inspectorId",
              "type": "string"
            },
            {
              "internalType": "uint256",
              "name": "physicalWeightKg",
              "type": "uint256"
            },
            {
              "internalType": "string",
              "name": "qualityGrade",
              "type": "string"
            },
            {
              "internalType": "enum ComplianceRegistry.GMOStatus",
              "name": "gmoStatus",
              "type": "uint8"
            },
            {
              "internalType": "string",
              "name": "biosafetyGrade",
              "type": "string"
            },
            {
              "internalType": "bool",
              "name": "meetsNAFDACStandards",
              "type": "bool"
            },
            {
              "internalType": "string",
              "name": "notes",
              "type": "string"
            },
            {
              "internalType": "uint256",
              "name": "inspectedAt",
              "type": "uint256"
            },
            {
              "internalType": "address",
              "name": "inspectedBy",
              "type": "address"
            }
          ],
          "internalType": "struct ComplianceRegistry.Inspection",
          "name": "",
          "type": "tuple"
        }
      ],
      "stateMutability": "view",
      "type": "function"
    },
    {
      "inputs": [
        {
          "internalType": "string",
          "name": "batchId",
          "type": "string"
        },
        {
          "internalType": "string",
          "name": "certId",
          "type": "string"
        },
        {
          "internalType": "uint256",
          "name": "validFrom",
          "type": "uint256"
        },
        {
          "internalType": "uint256",
          "name": "validUntil",
          "type": "uint256"
        }
      ],
      "name": "issueCertificate",
      "outputs": [],
      "stateMutability": "nonpayable",
      "type": "function"
    },
    {
      "inputs": [],
      "name": "owner",
      "outputs": [
        {
          "internalType": "address",
          "name": "",
          "type": "address"
        }
      ],
      "stateMutability": "view",
      "type": "function"
    },
    {
      "inputs": [],
      "name": "produceRegistry",
      "outputs": [
        {
          "internalType": "contract IProduceRegistry",
          "name": "",
          "type": "address"
        }
      ],
      "stateMutability": "view",
      "type": "function"
    },
    {
      "inputs": [
        {
          "internalType": "string",
          "name": "batchId",
          "type": "string"
        },
        {
          "internalType": "string",
          "name": "inspectorId",
          "type": "string"
        },
        {
          "internalType": "uint256",
          "name": "weightKg",
          "type": "uint256"
        },
        {
          "internalType": "string",
          "name": "grade",
          "type": "string"
        },
        {
          "internalType": "enum ComplianceRegistry.GMOStatus",
          "name": "gmoStatus",
          "type": "uint8"
        },
        {
          "internalType": "string",
          "name": "biosafetyGrade",
          "type": "string"
        },
        {
          "internalType": "bool",
          "name": "meetsNAFDAC",
          "type": "bool"
        },
        {
          "internalType": "string",
          "name": "notes",
          "type": "string"
        }
      ],
      "name": "recordInspection",
      "outputs": [],
      "stateMutability": "nonpayable",
      "type": "function"
    },
    {
      "inputs": [
        {
          "internalType": "string",
          "name": "batchId",
          "type": "string"
        },
        {
          "internalType": "string",
          "name": "reason",
          "type": "string"
        }
      ],
      "name": "revokeCertificate",
      "outputs": [],
      "stateMutability": "nonpayable",
      "type": "function"
    }
  ],
  "bytecode": "0x608034607e57601f611cbe38819003918201601f19168301916001600160401b03831184841017608357808492602094604052833981010312607e57516001600160a01b03811690819003607e57600080546001600160a01b0319908116331790915560018054909116919091179055604051611c24908161009a8239f35b600080fd5b634e487b7160e01b600052604160045260246000fdfe6080604052600436101561001257600080fd5b6000803560e01c8063059599ef14610fcc57806315b06da314610799578063657e2834146104e05780637e4584921461048c5780638b2650b3146104635780638da5cb5b1461043c578063ac63f3c7146103e8578063bc4f5bad1461029f5763ed0f2e751461008057600080fd5b3461029c57602036600319011261029c576004356001600160401b03811161029a576100b260209136906004016118dd565b926101006040516100c2816119e4565b6060815260608582015260606040820152826060820152606060808201528260a08201528260c08201528260e0820152015261011460ff60405185848237848187810160078152030190205416611baa565b8260405193849283378101600681520301902061014060405191610137836119e4565b60405161014f816101488185611ae6565b0382611a00565b8352604051610165816101488160018601611ae6565b602084019081528360405192610189846101828160028501611ae6565b0385611a00565b6040820193845261027060ff6003830154166101a9606085019182611a67565b6040516101bd816101488160048801611ae6565b6080850190815261025e61025260058601549860a08801998a5261023f600760068901549860c08b01998a5201549961010060e08b019a60ff8d1615158c52019a60018060a01b039060081c168b5261022c6040519e8f9e8f916020835251916101206020820152019061190f565b90518d8203601f190160408f015261190f565b90518b8203601f190160608d015261190f565b925160808a0190611950565b51878203601f190160a089015261190f565b935160c08601525160e0850152511515610100840152516001600160a01b03166101208301520390f35b505b80fd5b503461029c57604036600319011261029c576004356001600160401b03811161029a576102d09036906004016118dd565b6024356001600160401b0381116103e4576102ef9036906004016118dd565b919092338552600360205260ff604086205416156103ad577fa500d8e1cc88492e072343dc641e33184d8d352516ddc36dc0eac6d168cb61409361038b936103996103a79361035560ff604051888482376020818a810160078152030190205416611baa565b604051868282376020818881016006815203019020956007870160ff198154169055604051978897606089526060890190611ae6565b918783036020890152611ac5565b918483036040860152611ac5565b0390a180f35b60405162461bcd60e51b815260206004820152600f60248201526e2737ba1030903932b3bab630ba37b960891b6044820152606490fd5b8380fd5b503461029c57602036600319011261029c576004356001600160a01b0381169081900361029a5761042360018060a01b038354163314611b69565b8152600360205260408120805460ff1916600117905580f35b503461029c578060031936011261029c57546040516001600160a01b039091168152602090f35b503461029c578060031936011261029c576001546040516001600160a01b039091168152602090f35b503461029c57602036600319011261029c576004356001600160a01b0381169081900361029a576104c760018060a01b038354163314611b69565b8152600260205260408120805460ff1916600117905580f35b503461029c57602036600319011261029c576004356001600160401b03811161029a576105119036906004016118dd565b91610120604051610521816119b2565b6060815260606020820152826040820152606080820152826080820152606060a08201528260c0820152606060e082015282610100820152015260ff60405183838237602081858101600581520301902054161561075d5781604051928392833781016004815203602001902060405161059a816119b2565b604051806105a88185611ae6565b036105b39082611a00565b815260405191826105c78160018401611ae6565b036105d29084611a00565b60208201928352600281015460408084019182525190816105f68160038601611ae6565b036106019083611a00565b60608401918252600483015460ff169060808501916106209083611a67565b60405191826106328160058801611ae6565b0361063d9084611a00565b60a08601928352600685015460ff169260c087019315158452604051928380600789019061066a91611ae6565b036106759085611a00565b60e088019384526008870154966101008901978852600160a01b60019003906009015416956101208901968752604051998a9960208b525160208b0161014090526101608b016106c49161190f565b90518a8203601f190160408c01526106dc919061190f565b915160608a015251888203601f190160808a01526106fa919061190f565b915160a0880161070991611950565b51868203601f190160c0880152610720919061190f565b9151151560e086015251848203601f1901610100860152610741919061190f565b9151610120840152516001600160a01b03166101408301520390f35b60405162461bcd60e51b8152602060048201526014602482015273125b9cdc1958dd1a5bdb881b9bdd08199bdd5b9960621b6044820152606490fd5b503461029c57608036600319011261029c576004356001600160401b03811161029a576107ca9036906004016118dd565b91906024356001600160401b038111610fc8576107eb9036906004016118dd565b909160443594338552600260205261080960ff604087205416611973565b60ff604051828482376020818481016005815203019020541615610f8357600360405182848237602081848101600481520301902096600160405161084d816119b2565b60405161085e81610148818e611ae6565b815261087b8a6108746040518095819301611ae6565b0383611a00565b6020810191825260028a015460408201526108a08a6101826040518097819301611ae6565b6060810193845261012060ff60048c0154169a6108c1608084019c8d611a67565b6040516108d5816101488160058601611ae6565b60a084015260ff600682015416151560c08401526040516108fd816101488160078601611ae6565b60e08401526008810154610100840152600901546001600160a01b0316910152519751916003831015610f6f57519080610f65575061097042925b604051996109458b6119e4565b61095036898b611a21565b8b5261095d368789611a21565b60208c015260408b015260608a01611a67565b608088015260a087015260643560c0870152600160e0870152336101008701526040518183823760208183810160068152030190209580518051906001600160401b038211610dd25781906109c58a54611a73565b601f8111610f18575b50602090601f8311600114610eb5578992610eaa575b50508160011b916000199060031b1c19161787555b60208101518051906001600160401b038211610dd2578190610a1e60018b0154611a73565b601f8111610e5a575b50602090601f8311600114610df1578992610de6575b50508160011b916000199060031b1c19161760018801555b60408101518051906001600160401b038211610dd2578190610a7a60028b0154611a73565b601f8111610d7f575b50602090601f8311600114610d16578992610d0b575b50508160011b916000199060031b1c19161760028801555b60608101516003811015610cf757610acc9060038901611aad565b600487019660808201519788516001600160401b038111610ce357610af18254611a73565b601f8111610c9e575b506020601f8211600114610c0d57926101009282600793610bf0999897968d9e7ffa7468fb48fb83622c2209222cf44e88523933fddb73d3b07ecf89400639b3ba9e92610c02575b50508160011b916000199060031b1c19161790555b60a0840151600582015560c084015160068201550191610b8960e08201511515849060ff801983541691151516179055565b01518154610100600160a81b03191660089190911b610100600160a81b0316179055604051818382376020818381016007815203019020600160ff19825416179055610be2604051958695608087526080870191611ac5565b918483036020860152611ac5565b3360408301524260608301520390a180f35b015190503880610b42565b828a52808a209a601f1983168b5b818110610c865750837ffa7468fb48fb83622c2209222cf44e88523933fddb73d3b07ecf89400639b3ba9c9d610bf09a99989794610100979460079760019510610c6d575b505050811b019055610b57565b015160001960f88460031b161c19169055388080610c60565b838301518e556001909d019c60209384019301610c1b565b828a5260208a20601f830160051c81019160208410610cd9575b601f0160051c01905b818110610cce5750610afa565b8a8155600101610cc1565b9091508190610cb8565b634e487b7160e01b89526041600452602489fd5b634e487b7160e01b87526021600452602487fd5b015190503880610a99565b60028b018a52818a209250601f1984168a5b818110610d675750908460019594939210610d4e575b505050811b016002880155610ab1565b015160001960f88460031b161c19169055388080610d3e565b92936020600181928786015181550195019301610d28565b90915060028a01895260208920601f840160051c81019160208510610dc8575b90601f859493920160051c01905b818110610dba5750610a83565b8a8155849350600101610dad565b9091508190610d9f565b634e487b7160e01b88526041600452602488fd5b015190503880610a3d565b60018b018a52818a209250601f1984168a5b818110610e425750908460019594939210610e29575b505050811b016001880155610a55565b015160001960f88460031b161c19169055388080610e19565b92936020600181928786015181550195019301610e03565b90915060018a01895260208920601f840160051c810160208510610ea3575b90849392915b601f830160051c82018110610e95575050610a27565b8b8155859450600101610e7f565b5080610e79565b0151905038806109e4565b8a8a52818a209250601f1984168a5b818110610f005750908460019594939210610ee7575b505050811b0187556109f9565b015160001960f88460031b161c19169055388080610eda565b92936020600181928786015181550195019301610ec4565b90915089895260208920601f840160051c810160208510610f5e575b90849392915b601f830160051c82018110610f505750506109ce565b8b8155859450600101610f3a565b5080610f34565b6109709092610938565b634e487b7160e01b88526021600452602488fd5b60405162461bcd60e51b815260206004820152601c60248201527f426174636820686173206e6f74206265656e20696e73706563746564000000006044820152606490fd5b8280fd5b503461029c5761010036600319011261029c576004356001600160401b03811161029a57610ffe9036906004016118dd565b91906024356001600160401b038111610fc85761101f9036906004016118dd565b93906064356001600160401b0381116118d9576110409036906004016118dd565b9590600360843510156118d55760a4356001600160401b0381116118d15761106c9036906004016118dd565b979060c43580151581036118cd5760e4356001600160401b0381116118c9576110999036906004016118dd565b919092338b52600260205260408b205460ff166110b590611973565b6040519b6110c28d6119b2565b6110cd368b8d611a21565b8d528c6110db368a8c611a21565b60209091015260443560408e01528c6110f536888a611a21565b60609091015261110a60843560808f01611a67565b369061111592611a21565b60a08c0152151560c08b0152369061112c92611a21565b60e089015242610100890152336101208901526040518587823780868101600481520360200190209780518051906001600160401b0382116115875781906111748c54611a73565b601f811161187b575b50602090601f8311600114611813578b92611808575b50508160011b916000199060031b1c19161789555b60208101518051906001600160401b0382116115875781906111cd60018d0154611a73565b601f81116117b7575b50602090601f8311600114611749578b9261173e575b50508160011b916000199060031b1c19161760018a01555b604081015160028a015560608101518051906001600160401b03821161158757819061123360038d0154611a73565b601f81116116ed575b50602090601f8311600114611684578b92611679575b50508160011b916000199060031b1c19161760038a01555b60808101516003811015611665576112859060048b01611aad565b60a08101518051906001600160401b0382116115875781906112aa60058d0154611a73565b601f8111611614575b50602090601f83116001146115a6578b9261159b575b50508160011b916000199060031b1c19161760058a01555b61130060c0820151151560068b019060ff801983541691151516179055565b60e08101519889516001600160401b038111611587576113236007830154611a73565b9a601f8c1161153f575b8a809c50999a50602090601f831160011461149b5792827fb4440038c142868b0da63940eecd1357b34466d841959a844be50d7ae83a2a08999897959360099361141b98968e92611490575b50508160011b916000199060031b1c19161760078201555b6101008301516008820155019061012060018060a01b03910151166bffffffffffffffffffffffff60a01b825416179055604051878a82376020818981016005815203019020600160ff198254161790556113fe6040519586956080875261038b8c8b60808a0191611ac5565b9161140e60408601608435611950565b8483036060860152611ac5565b0390a16001546001600160a01b031692833b15610fc85761145d9383928360405180978195829463b50a3c8760e01b8452604060048501526044840191611ac5565b6001602483015203925af18015611483576114755780f35b61147e91611a00565b388180f35b50604051903d90823e3d90fd5b015190503880611379565b99989796959493929190600783018a52808a209a8a5b601f19841681106115245750827fb4440038c142868b0da63940eecd1357b34466d841959a844be50d7ae83a2a089a9b9c61141b9897969593600193600996601f1981161061150b575b505050811b016007820155611391565b015160001960f88460031b161c191690553880806114fb565b828201518d556001909c019b8e9b50602092830192016114b1565b600783018b5260208b20601f830160051c81019c6020841061157d575b601f0160051c019b5b8c8110611572575061132d565b8b8155600101611565565b909c508c9061155c565b634e487b7160e01b8a52604160045260248afd5b0151905038806112c9565b925060058c018b52808b20908b935b601f19841685106115f9576001945083601f198116106115e0575b505050811b0160058a01556112e1565b015160001960f88460031b161c191690553880806115d0565b818101518355602094850194600190930192909101906115b5565b90915060058c018b5260208b20601f840160051c81016020851061165e575b90849392915b8d601f840160051c83018210611651575050506112b3565b8155859450600101611639565b5080611633565b634e487b7160e01b89526021600452602489fd5b015190503880611252565b60038d018c52818c209250601f1984168c5b8181106116d557509084600195949392106116bc575b505050811b0160038a015561126a565b015160001960f88460031b161c191690553880806116ac565b92936020600181928786015181550195019301611696565b90915060038c018b5260208b20601f840160051c810160208510611737575b90849392915b8d601f840160051c8301821061172a5750505061123c565b8155859450600101611712565b508061170c565b0151905038806111ec565b925060018c018b52808b20908b935b601f198416851061179c576001945083601f19811610611783575b505050811b0160018a0155611204565b015160001960f88460031b161c19169055388080611773565b81810151835560209485019460019093019290910190611758565b90915060018c018b5260208b20601f840160051c810160208510611801575b90849392915b8d601f840160051c830182106117f4575050506111d6565b81558594506001016117dc565b50806117d6565b015190503880611193565b92508b8b52808b20908b935b601f1984168510611860576001945083601f19811610611847575b505050811b0189556111a8565b015160001960f88460031b161c1916905538808061183a565b8181015183556020948501946001909301929091019061181f565b9091508b8b5260208b20601f840160051c8101602085106118c2575b90849392915b8d601f840160051c830182106118b55750505061117d565b815585945060010161189d565b5080611897565b8980fd5b8880fd5b8680fd5b8580fd5b8480fd5b9181601f8401121561190a578235916001600160401b03831161190a576020838186019501011161190a57565b600080fd5b919082519283825260005b84811061193b575050826000602080949584010152601f8019910116010190565b8060208092840101518282860101520161191a565b90600382101561195d5752565b634e487b7160e01b600052602160045260246000fd5b1561197a57565b60405162461bcd60e51b815260206004820152601060248201526f2737ba1030b71034b739b832b1ba37b960811b6044820152606490fd5b61014081019081106001600160401b038211176119ce57604052565b634e487b7160e01b600052604160045260246000fd5b61012081019081106001600160401b038211176119ce57604052565b90601f801991011681019081106001600160401b038211176119ce57604052565b9291926001600160401b0382116119ce5760405191611a4a601f8201601f191660200184611a00565b82948184528183011161190a578281602093846000960137010152565b600382101561195d5752565b90600182811c92168015611aa3575b6020831014611a8d57565b634e487b7160e01b600052602260045260246000fd5b91607f1691611a82565b90600381101561195d5760ff80198354169116179055565b908060209392818452848401376000828201840152601f01601f1916010190565b60009291815491611af683611a73565b8083529260018116908115611b4c5750600114611b1257505050565b60009081526020812093945091925b838310611b32575060209250010190565b600181602092949394548385870101520191019190611b21565b915050602093945060ff929192191683830152151560051b010190565b15611b7057565b60405162461bcd60e51b81526020600482015260126024820152712737ba1031b7b73a3930b1ba1037bbb732b960711b6044820152606490fd5b15611bb157565b60405162461bcd60e51b815260206004820152601560248201527410d95c9d1a599a58d85d19481b9bdd08199bdd5b99605a1b6044820152606490fdfea264697066735822122027323530ff37a045d79f9fdc7463d28d95daa1697fa0cc6a35d23a193ec86fd964736f6c634300081b0033",
  "linkReferences": {},
  "deployedLinkReferences": {}
}